{"abi":[{"type":"constructor","inputs":[{"name":"cWETH_","type":"address","internalType":"address"}],"stateMutability":"nonpayable"},{"type":"function","name":"SCALE","inputs":[],"outputs":[{"name":"","type":"uint64","internalType":"uint64"}],"stateMutability":"view"},{"type":"function","name":"authorizeBridge","inputs":[{"name":"strike","type":"uint256","internalType":"uint256"},{"name":"maturity","type":"uint64","internalType":"uint64"}],"outputs":[],"stateMutability":"nonpayable"},{"type":"function","name":"bridge","inputs":[],"outputs":[{"name":"","type":"address","internalType":"address"}],"stateMutability":"view"},{"type":"function","name":"cWETH","inputs":[],"outputs":[{"name":"","type":"address","internalType":"contract IConfidentialWETH"}],"stateMutability":"view"},{"type":"function","name":"createPool","inputs":[{"name":"strike","type":"uint256","internalType":"uint256"},{"name":"maturity","type":"uint64","internalType":"uint64"},{"name":"isStable","type":"bool","internalType":"bool"},{"name":"quoteToken","type":"address","internalType":"address"},{"name":"minPricePerToken","type":"uint64","internalType":"uint64"}],"outputs":[{"name":"pool","type":"address","internalType":"address"}],"stateMutability":"nonpayable"},{"type":"function","name":"createSeries","inputs":[{"name":"strike","type":"uint256","internalType":"uint256"},{"name":"maturity","type":"uint64","internalType":"uint64"}],"outputs":[{"name":"stable","type":"address","internalType":"address"},{"name":"up","type":"address","internalType":"address"}],"stateMutability":"nonpayable"},{"type":"function","name":"getPool","inputs":[{"name":"strike","type":"uint256","internalType":"uint256"},{"name":"maturity","type":"uint64","internalType":"uint64"},{"name":"isStable","type":"bool","internalType":"bool"}],"outputs":[{"name":"","type":"address","internalType":"address"}],"stateMutability":"view"},{"type":"function","name":"getTokens","inputs":[{"name":"strike","type":"uint256","internalType":"uint256"},{"name":"maturity","type":"uint64","internalType":"uint64"}],"outputs":[{"name":"stable","type":"address","internalType":"address"},{"name":"up","type":"address","internalType":"address"}],"stateMutability":"view"},{"type":"function","name":"isSettled","inputs":[{"name":"strike","type":"uint256","internalType":"uint256"},{"name":"maturity","type":"uint64","internalType":"uint64"}],"outputs":[{"name":"","type":"bool","internalType":"bool"}],"stateMutability":"view"},{"type":"function","name":"matchingEngine","inputs":[],"outputs":[{"name":"","type":"address","internalType":"address"}],"stateMutability":"view"},{"type":"function","name":"merge","inputs":[{"name":"strike","type":"uint256","internalType":"uint256"},{"name":"maturity","type":"uint64","internalType":"uint64"},{"name":"amount","type":"bytes32","internalType":"euint64"}],"outputs":[],"stateMutability":"nonpayable"},{"type":"function","name":"poolImplementation","inputs":[],"outputs":[{"name":"","type":"address","internalType":"address"}],"stateMutability":"view"},{"type":"function","name":"pools","inputs":[{"name":"","type":"bytes32","internalType":"bytes32"},{"name":"","type":"bool","internalType":"bool"}],"outputs":[{"name":"","type":"address","internalType":"address"}],"stateMutability":"view"},{"type":"function","name":"redeem","inputs":[{"name":"strike","type":"uint256","internalType":"uint256"},{"name":"maturity","type":"uint64","internalType":"uint64"}],"outputs":[],"stateMutability":"nonpayable"},{"type":"function","name":"series","inputs":[{"name":"","type":"bytes32","internalType":"bytes32"}],"outputs":[{"name":"stableToken","type":"address","internalType":"contract OptionToken"},{"name":"upToken","type":"address","internalType":"contract OptionToken"},{"name":"settled","type":"bool","internalType":"bool"},{"name":"stablePayout","type":"bytes32","internalType":"euint64"},{"name":"upPayout","type":"bytes32","internalType":"euint64"}],"stateMutability":"view"},{"type":"function","name":"seriesId","inputs":[{"name":"strike","type":"uint256","internalType":"uint256"},{"name":"maturity","type":"uint64","internalType":"uint64"}],"outputs":[{"name":"","type":"bytes32","internalType":"bytes32"}],"stateMutability":"pure"},{"type":"function","name":"setBridge","inputs":[{"name":"bridge_","type":"address","internalType":"address"}],"outputs":[],"stateMutability":"nonpayable"},{"type":"function","name":"setMatchingEngine","inputs":[{"name":"cme","type":"address","internalType":"address"}],"outputs":[],"stateMutability":"nonpayable"},{"type":"function","name":"setPoolImplementation","inputs":[{"name":"impl","type":"address","internalType":"address"}],"outputs":[],"stateMutability":"nonpayable"},{"type":"function","name":"settle","inputs":[{"name":"strike","type":"uint256","internalType":"uint256"},{"name":"maturity","type":"uint64","internalType":"uint64"},{"name":"oraclePrice","type":"uint256","internalType":"uint256"}],"outputs":[],"stateMutability":"nonpayable"},{"type":"function","name":"split","inputs":[{"name":"strike","type":"uint256","internalType":"uint256"},{"name":"maturity","type":"uint64","internalType":"uint64"},{"name":"encAmt","type":"bytes32","internalType":"externalEuint64"},{"name":"proof","type":"bytes","internalType":"bytes"}],"outputs":[],"stateMutability":"nonpayable"},{"type":"event","name":"MatchingEngineSet","inputs":[{"name":"engine","type":"address","indexed":true,"internalType":"address"}],"anonymous":false},{"type":"event","name":"Merge","inputs":[{"name":"user","type":"address","indexed":true,"internalType":"address"},{"name":"seriesId","type":"bytes32","indexed":true,"internalType":"bytes32"}],"anonymous":false},{"type":"event","name":"PoolCreated","inputs":[{"name":"strike","type":"uint256","indexed":true,"internalType":"uint256"},{"name":"maturity","type":"uint64","indexed":true,"internalType":"uint64"},{"name":"isStable","type":"bool","indexed":true,"internalType":"bool"},{"name":"pool","type":"address","indexed":false,"internalType":"address"}],"anonymous":false},{"type":"event","name":"Redeemed","inputs":[{"name":"user","type":"address","indexed":true,"internalType":"address"},{"name":"seriesId","type":"bytes32","indexed":true,"internalType":"bytes32"}],"anonymous":false},{"type":"event","name":"SeriesCreated","inputs":[{"name":"strike","type":"uint256","indexed":true,"internalType":"uint256"},{"name":"maturity","type":"uint64","indexed":true,"internalType":"uint64"},{"name":"stableToken","type":"address","indexed":false,"internalType":"address"},{"name":"upToken","type":"address","indexed":false,"internalType":"address"}],"anonymous":false},{"type":"event","name":"Settled","inputs":[{"name":"seriesId","type":"bytes32","indexed":true,"internalType":"bytes32"},{"name":"oraclePrice","type":"uint256","indexed":false,"internalType":"uint256"}],"anonymous":false},{"type":"event","name":"Split","inputs":[{"name":"user","type":"address","indexed":true,"internalType":"address"},{"name":"seriesId","type":"bytes32","indexed":true,"internalType":"bytes32"}],"anonymous":false},{"type":"error","name":"AlreadySettled","inputs":[]},{"type":"error","name":"FailedDeployment","inputs":[]},{"type":"error","name":"InsufficientBalance","inputs":[{"name":"balance","type":"uint256","internalType":"uint256"},{"name":"needed","type":"uint256","internalType":"uint256"}]},{"type":"error","name":"NoPoolImplementation","inputs":[]},{"type":"error","name":"NotSettled","inputs":[]},{"type":"error","name":"NotYetMatured","inputs":[]},{"type":"error","name":"PoolAlreadyExists","inputs":[]},{"type":"error","name":"SenderNotAllowedToUseHandle","inputs":[{"name":"handle","type":"bytes32","internalType":"bytes32"},{"name":"sender","type":"address","internalType":"address"}]},{"type":"error","name":"SeriesExists","inputs":[]},{"type":"error","name":"SeriesNotFound","inputs":[]}],"bytecode":{"object":"0x60a03461008157601f61392a38819003918201601f19168301916001600160401b038311848410176100855780849260209460405283398101031261008157516001600160a01b0381169081900361008157608052604051613890908161009a823960805181818161049e01528181610d090152818161165701526118130152f35b5f80fd5b634e487b7160e01b5f52604160045260245ffdfe608080604052600436101562000013575f80fd5b5f905f3560e01c9081631c0edff21462001970575080631c70688514620016865780631ee8aa1f146200163f57806333d06b2b14620013cc57806339a2540b1462000e7f5780635cd9a81f1462000ac05780637b1760d414620009735780637d26647d14620009225780638d4e5c3714620008c35780638dd14802146200087557806399323f5d146200067d578063b309b63a1462000371578063c4c244a2146200031c578063caa5746614620002a9578063cefa7799146200027e578063d6f748981462000241578063d9e829e81462000215578063e78cea9214620001ea578063eced552614620001ca578063f5de118e14620001675763faaa551e146200011b575f80fd5b3462000164576040366003190112620001645760ff600160406020936200014e6200014562001995565b60043562001ac4565b815280855220015460a01c166040519015158152f35b80fd5b5034620001645760203660031901126200016457604060a09160043581528060205220600180831b03808254169160ff6001820154600360028401549301549360405195865281166020860152851c161515604084015260608301526080820152f35b503462000164578060031936011262000164576020604051620f42408152f35b503462000164578060031936011262000164576005546040516001600160a01b039091168152602090f35b50346200016457604036600319011262000164576020620002396200014562001995565b604051908152f35b50346200016457602036600319011262000164576001600160a01b0362000267620019bc565b166001600160601b0360a01b600154161760015580f35b503462000164578060031936011262000164576001546040516001600160a01b039091168152602090f35b5034620001645760203660031901126200016457620002c7620019bc565b600454906001600160a01b0390620002e28284161562001a6d565b1680916001600160601b0360a01b16176004557fa757ecb260f9e4bf77bd2b2d9391a2409f8c8b205c6551e3b52917cb2cc9c8b98280a280f35b5034620001645760403660031901126200016457604090620003416200014562001995565b815260208181529190208054600190910154604080516001600160a01b0393841681529290911692820192909252f35b50346200016457608036600319011262000164576200038f62001995565b604435606435906001600160401b0392838311620005f55736602384011215620005f5578260040135938411620005f55760248301926024853692010111620005f557620003e09060043562001ac4565b8085526020858152604086208054929591926001600160a01b039291908316156200066b57600181019360ff855460a01c166200065a5780899760a4620004516200042b8762001aa8565b6200043a6040519182620019e7565b8781528784868301378b8589830101528a62001de5565b98866040519788948593634d04a1a960e11b85523360048601523060248601526044850152608060648501528160848501528484013781810183018c9052601f01601f191681010301818a7f000000000000000000000000000000000000000000000000000000000000000089165af19283156200064f5784936200061b575b50878752600381526003620004eb8760408a205462001c4d565b9189895252806040882055801562000604575b6200050b90309062001f59565b541691823b15620005f557604051632cfd300560e01b808252336004830152602482018690529386908290604490829084905af1908115620005f9578691620005dd575b5050541691823b15620005d95760405191825233600483015260248201529082908290604490829084905af18015620005ce57620005b2575b5050337ff0682454426b0e7ae4d403326d18d7cb943255a97095cc05aaba1478624ef3058380a380f35b620005bd90620019d3565b620005ca57815f62000588565b5080fd5b6040513d84823e3d90fd5b8380fd5b620005e890620019d3565b620005f557845f6200054f565b8480fd5b6040513d88823e3d90fd5b506200050b6200061362001fda565b9050620004fe565b6200063f90823d841162000647575b620006368183620019e7565b81019062001a09565b505f620004d1565b503d6200062a565b6040513d89823e3d90fd5b60405162560ff960e81b8152600490fd5b60405163948389ab60e01b8152600490fd5b50346200016457606036600319011262000164576004356200069e62001995565b9060443590620006af838262001ac4565b8085526020859052604085208054919490916001600160a01b0316156200066b57600182019260ff845460a01c166200065a576001600160401b0380921642106200086357841580801562000858575b15620007f457505080620f42405b169081620f42400391818311620007e057916003620007667ff8cd5951a4d275639396b7a7bbcf5eee708975d6b14cae09b50ff2a3a602e13f979593620007576020989662002030565b93600286019485551662002030565b9201918255548015620007c9575b6200078190309062001f59565b548015620007b2575b6200079790309062001f59565b805460ff60a01b1916600160a01b179055604051908152a280f35b5062000797620007c162001fda565b90506200078a565b5062000781620007d862001fda565b905062000774565b634e487b7160e01b88526011600452602488fd5b620f424090818302928084048314901517156200084457620008305782918290879004828110620008275750506200070d565b1690506200070d565b634e487b7160e01b5f52601260045260245ffd5b634e487b7160e01b89526011600452602489fd5b5085821015620006ff565b6040516362733c9560e01b8152600490fd5b503462000164576020366003190112620001645762000893620019bc565b600554906001600160a01b0390620008ae8284161562001a6d565b16906001600160601b0360a01b161760055580f35b5034620001645760603660031901126200016457602090620008e462001995565b620008fc620008f2620019ac565b9160043562001ac4565b8252600283526040822090151582528252604060018060a01b0391205416604051908152f35b5034620001645760403660031901126200016457602435908115158092036200096f57602091600435825260028352604082209082528252604060018060a01b0391205416604051908152f35b5f80fd5b50346200016457604036600319011262000164576200099162001995565b6005546001600160a01b03908116913383900362000a8e57620009b79060043562001ac4565b83528260205260408320918183541680156200066b578493813b15620005f55784809260446040518095819363388dfcd960e11b988984526004840152600160248401525af1801562000a83578492869162000a66575b505060010154169160055416823b1562000a61576044849283604051958694859384526004840152600160248401525af18015620005ce5762000a4e5750f35b62000a5990620019d3565b620001645780f35b505050fd5b62000a7491929350620019d3565b62000a61578290845f62000a0e565b6040513d87823e3d90fd5b60405162461bcd60e51b815260206004820152600a6024820152696e6f742062726964676560b01b6044820152606490fd5b503462000164576060366003190112620001645762000ade62001995565b62000aef6044359160043562001ac4565b90818352602090838252604084209060018060a01b038083541680156200066b57600184019060ff825460a01c166200065a57879462000b30338662002086565b1562000e7b57813b1562000e7b5760405163577706e160e01b808252336004830152602482018790529287908290604490829084905af19081156200064f57879162000e63575b50508383541691823b1562000e5f57604051908152336004820152602481018690529186908390604490829084905af18015620005f9578492879162000e42575b5050541690813b15620005f55760405163588f0b0160e01b808252306004830152602482018690529290919086908390604490829084905af18015620005f9578492879162000e25575b5050541690813b15620005f557604051908152306004820152602481018490529084908290604490829084905af190811562000d8557849162000e09575b50859052600384526040832054918481841562000df6575b821562000de5575b6064845f805160206200383b8339815191525416958760405197889485936303056db360e31b85526004850152602484015260ff60f81b821660448401525af1801562000d85578593859162000da7575b509062000d05929187865260038552806040872055801562000d90575b62000cdb90309062001f59565b604051637d32e7bd60e01b8152336004820152602481019190915293849283919082906044820190565b03927f0000000000000000000000000000000000000000000000000000000000000000165af1801562000d855762000d62575b5050337f035f0ba47bae29150fa25aad33d10089ab322237934abb94aed63d70be5054668380a380f35b8162000d7c92903d106200064757620006368183620019e7565b505f8062000d38565b6040513d86823e3d90fd5b5062000cdb62000d9f62001fda565b905062000cce565b929450509181813d831162000ddd575b62000dc38183620019e7565b810103126200096f575185928492909162000d0562000cb1565b503d62000db7565b5062000df062001fda565b62000c60565b935062000e0262001fda565b9362000c58565b62000e1490620019d3565b62000e2157825f62000c40565b8280fd5b62000e3391929350620019d3565b620005f5578290855f62000c02565b62000e5091929350620019d3565b620005f5578290855f62000bb8565b8680fd5b62000e6e90620019d3565b62000e7b57855f62000b77565b8580fd5b503462000164576040366003190112620001645762000e9d62001995565b62000eab8160043562001ac4565b808352602083905260408320549091906001600160a01b0316620013ba5762000ed660043562001cdc565b9262000eeb6001600160401b03831662001cdc565b9360405169737461626c654554482d60b01b602082015262000f50602b82845162000f1e81602a84016020890162001a23565b8101602d60f81b602a82015289519062000f40828c6020878501910162001a23565b0103600b810184520182620019e7565b6040516573744554482d60d01b602082015262000fb0602782855162000f7e816026840160208a0162001a23565b8101602d60f81b60268201528a519062000fa0828d6020878501910162001a23565b01036007810184520182620019e7565b604051918261172e8101106001600160401b0361172e85011117620013a657829162000ff56200100c9261172e6200210d863960c061172e8601818152019062001a46565b9061172e84018203602061172e8601015262001a46565b3061172e8301604081019190915260043560608201526001600160401b0387166080820152600160a090910152039083f0948515620005ce57620010fe6027604051926575704554482d60d01b90816020860152620010ac838688516200107b816026840160208d0162001a23565b8101602d60f81b60268201528451906200109c828583016020890162001a23565b01036007810188520186620019e7565b6040519586926020840152620010cd81518092602060268701910162001a23565b8201602d60f81b6026820152620010ee825180936020878501910162001a23565b01036007810185520183620019e7565b6040519161172e8301918383106001600160401b03841117620013a65760a062001151859493620011425f9461172e6200210d893960c0875260c087019062001a46565b90858203602087015262001a46565b9230604082015260043560608201526001600160401b03881660808201520152039082f092831562001399576200118762001fda565b6200119162001fda565b6040519160a08301928084106001600160401b03851117620013855760409384526001600160a01b03898116825288811660208084019182528387018981526060850195865260808501968752978952889052948720915182549082166001600160a01b03199091161782559351600182018054965160ff60a01b90151560a01b169186166001600160a81b03199097169690961717909455516002840155516003909201919091556004541680620012af575b5050604080516001600160a01b038581168252841660208201526001600160401b039290921691600435917f220e1e1ca923c6e27417f90002b83affb7a3f8c0e00adeee22ad0a4c9746e1f491a3604080516001600160a01b039384168152919092166020820152f35b6001600160a01b0385163b15620005ca5760405163388dfcd960e11b8082526004820192909252600160248201528281604481836001600160a01b038b165af180156200137a5790839162001362575b50506004546001600160a01b039081169085163b1562000e21576040519182526004820152600160248201528181604481836001600160a01b0389165af18015620005ce57156200124557620013568291620019d3565b62000164578062001245565b6200136d90620019d3565b620005ca57815f620012ff565b6040513d85823e3d90fd5b634e487b7160e01b5f52604160045260245ffd5b50604051903d90823e3d90fd5b634e487b7160e01b85526041600452602485fd5b6040516339cb981160e21b8152600490fd5b5034620001645760a03660031901126200016457600435620013ed62001995565b90620013f8620019ac565b916064359160018060a01b03948584168094036200096f57608435926001600160401b03908185168095036200096f5760015495888716156200162a5762001441828662001ac4565b92838552602099858b526040862099818b5416156200066b5785875260028c5260408720998115159a8b89528d52826040892054166200161857608881901c62ffffff16763d602d80600a3d3981f3363d3d373d3d3d363d7300000017885260781b6effffffffffffffffffffffffffffff19166e5af43d82803e903d91602b57fd5bf3178c52816037600989f0169a8b156200160657829115620015fb5754165b1692893b1562000e7b5760405192630389908360e61b84528460048501526024840152866044840152169586606483015260848201523060a4820152838160c481838c5af1801562000d8557908491620015e3575b5050803b1562000e215782809160446040518094819363388dfcd960e11b83528c6004840152600160248401525af180156200137a57620015cb575b5090604091815260028752818120858252875220846001600160601b0360a01b8254161790557f4b88f46a4860a5bd7da11618bd4ac07d7fa73db33572f81b8095734d523be1a785604051868152a4604051908152f35b620015d78391620019d3565b620005ca575f62001574565b620015ee90620019d3565b62000e2157825f62001538565b6001015416620014e3565b60405163b06ebf3d60e01b8152600490fd5b604051630188c99160e11b8152600490fd5b60405160016242cf5760e11b03198152600490fd5b503462000164578060031936011262000164576040517f00000000000000000000000000000000000000000000000000000000000000006001600160a01b03168152602090f35b50346200096f5760403660031901126200096f57620016a86200014562001995565b90815f526020915f835260405f20926001840193845460ff8160a01c16156200195e5781546040516370a0823160e01b8082523360048301526001600160a01b039283169390918681602481885afa918215620018e157849388925f9462001921575b5060249060405195869384928352336004840152165afa918215620018e1575f92620018ec575b50833b156200096f5760405163588f0b0160e01b80825233600483015260248201839052945f908290604490829084905af18015620018e157620018c5575b5082889998969798541693843b1562000e5f57604051908152336004820152602481018390529386908590604490829084905af18015620005f95787948791620018a6575b505093620017f2620017e2620017f9936003620017e8620017e26200180f999a60028801549062001b09565b62001bcc565b9401549062001b09565b9062001c4d565b8080156200188f575b62000cdb90339062001f59565b03927f0000000000000000000000000000000000000000000000000000000000000000165af1801562000d85576200186c575b5050337f851665af6e4e9430c7ecdf760410892dc4e51270dd981b9be1c39c7eb457a0ab8380a380f35b816200188692903d106200064757620006368183620019e7565b505f8062001842565b5062000cdb6200189e62001fda565b905062001802565b620018b59192939550620019d3565b620005f557918592855f620017b6565b839996979850620018d690620019d3565b5f9796959862001771565b6040513d5f823e3d90fd5b9091508581813d831162001919575b620019078183620019e7565b810103126200096f5751905f62001732565b503d620018fb565b91945092509081813d811162001956575b6200193e8183620019e7565b810103126200096f578392602488925193906200170b565b503d62001932565b60405163ba329a9b60e01b8152600490fd5b346200096f575f3660031901126200096f576004546001600160a01b03168152602090f35b602435906001600160401b03821682036200096f57565b6044359081151582036200096f57565b600435906001600160a01b03821682036200096f57565b6001600160401b0381116200138557604052565b90601f801991011681019081106001600160401b038211176200138557604052565b908160209103126200096f575180151581036200096f5790565b5f5b83811062001a355750505f910152565b818101518382015260200162001a25565b9060209162001a618151809281855285808601910162001a23565b601f01601f1916010190565b1562001a7557565b60405162461bcd60e51b815260206004820152600b60248201526a185b1c9958591e481cd95d60aa1b6044820152606490fd5b6001600160401b0381116200138557601f01601f191660200190565b9060405190602082019283526001600160401b0360c01b9060c01b16604082015260288152606081018181106001600160401b03821117620013855760405251902090565b90811562001bb9575b801562001ba4575b602090606460018060a01b035f805160206200383b8339815191525416935f6040519586948593630afe14ad60e31b8552600485015260248401528160448401525af1908115620018e1575f9162001b70575090565b90506020813d60201162001b9b575b8162001b8e60209383620019e7565b810103126200096f575190565b3d915062001b7f565b50602062001bb162001fda565b905062001b1a565b905062001bc562001fda565b9062001b12565b801562001c36575b5f805160206200383b83398151915254604051635a53accb60e01b81526004810192909252620f42406024830152600160f81b6044830152602090829060649082905f906001600160a01b03165af1908115620018e1575f9162001b70575090565b505f602062001c4462001fda565b91505062001bd4565b90811562001cc9575b801562001cb4575b602090606460018060a01b035f805160206200383b8339815191525416935f604051958694859363022f65e760e31b8552600485015260248401528160448401525af1908115620018e1575f9162001b70575090565b50602062001cc162001fda565b905062001c5e565b905062001cd562001fda565b9062001c56565b801562001db6575f81805b62001d9d575062001cf88162001aa8565b9062001d086040519283620019e7565b808252601f1962001d198262001aa8565b013660208401375b80831562001d9657801562001d82575f190192600a916030838306810180911162001d8257845186101562001d6e5760f81b6001600160f81b0319165f1a908401601f0153049162001d21565b634e487b7160e01b5f52603260045260245ffd5b634e487b7160e01b5f52601160045260245ffd5b5050905090565b905f19811462001d82576001600a910191048062001ce7565b50604051604081018181106001600160401b03821117620013855760405260018152600360fc1b602082015290565b81519091901562001f11575f805160206200383b8339815191525460405163045fc19560e11b81526004810193909352336024840152608060448401526001600160a01b039160209184919084169082905f90829062001e4a90608483019062001a46565b6005606483015203925af1918215620018e1575f9262001ed7575b507f9e7b61f58c47dc699ac88507c4f5bb9f121c03808c5676a8078fe583e46497005416803b156200096f57604051630f8e573b60e21b815260048101839052336024820152905f908290604490829084905af18015620018e15762001ec9575090565b62001ed490620019d3565b90565b9091506020813d60201162001f08575b8162001ef660209383620019e7565b810103126200096f5751905f62001e65565b3d915062001ee7565b50801562001f4e5762001f25338262002086565b1562001f2e5790565b604051630276b5d960e01b81526004810191909152336024820152604490fd5b5062001ed462001fda565b7f9e7b61f58c47dc699ac88507c4f5bb9f121c03808c5676a8078fe583e4649700546001600160a01b031691823b156200096f57604051635ca4b5b160e11b815260048101929092526001600160a01b03166024820152905f908290604490829084905af18015620018e15762001fcd5750565b62001fd890620019d3565b565b5f805160206200383b83398151915254604051639cd07acb60e01b81525f60048201819052600560248301529091602091839160449183916001600160a01b03165af1908115620018e1575f9162001b70575090565b5f805160206200383b83398151915254604051639cd07acb60e01b8152600481019290925260056024830152602090829060449082905f906001600160a01b03165af1908115620018e1575f9162001b70575090565b7f9e7b61f58c47dc699ac88507c4f5bb9f121c03808c5676a8078fe583e4649700546040516382027b6d60e01b815260048101929092526001600160a01b039283166024830152909160209183916044918391165afa908115620018e1575f91620020ef575090565b62001ed4915060203d6020116200064757620006368183620019e756fe6101006040523462000389576200172e803803806200001e816200038d565b92833981019060c081830312620003895780516001600160401b039081811162000389578362000050918401620003b3565b90602093848401519082821162000389576200006e918501620003b3565b6040840151909490916001600160a01b038316830362000389576060850151936080860151958287168703620003895760a001519687151588036200038957815193838511620002a7576001948554938685811c951680156200037e575b8386101462000288578190601f958681116200032b575b508390868311600114620002c7575f92620002bb575b50505f19600383901b1c191690861b1785555b8151938411620002a7576002548581811c911680156200029c575b8282101462000288578381116200023f575b5080928411600114620001d657509282939183925f94620001ca575b50501b915f199060031b1c1916176002555b60805260a05260c05260e05260405161130a908162000424823960805181818161015c015281816101fe0152818161062f015281816106d1015281816107c10152610887015260a051816102e5015260c05181610907015260e051816109690152f35b015192505f8062000155565b919083601f19811660025f52845f20945f905b888383106200022457505050106200020b575b505050811b0160025562000167565b01515f1960f88460031b161c191690555f8080620001fc565b858701518855909601959485019487935090810190620001e9565b60025f52815f208480870160051c8201928488106200027e575b0160051c019086905b8281106200027257505062000139565b5f815501869062000262565b9250819262000259565b634e487b7160e01b5f52602260045260245ffd5b90607f169062000127565b634e487b7160e01b5f52604160045260245ffd5b015190505f80620000f9565b90889350601f19831691845f52855f20925f5b87828210620003145750508411620002fb575b505050811b0185556200010c565b01515f1960f88460031b161c191690555f8080620002ed565b8385015186558c97909501949384019301620002da565b909150875f52835f208680850160051c82019286861062000374575b918a91869594930160051c01915b82811062000365575050620000e3565b5f81558594508a910162000355565b9250819262000347565b94607f1694620000cc565b5f80fd5b6040519190601f01601f191682016001600160401b03811183821017620002a757604052565b919080601f84011215620003895782516001600160401b038111620002a757602090620003e9601f8201601f191683016200038d565b9281845282828701011162000389575f5b8181106200040f5750825f9394955001015290565b8581018301518482018401528201620003fa56fe6080604081815260049182361015610015575f80fd5b5f3560e01c90816306fdde031461098e5750806309047bdd1461095257806318160ddd1461092b578063204f83f9146108e75780632cfd30051461085f578063313ce56714610844578063577706e1146107a5578063588f0b01146106a957806370a0823114610672578063711bf9b2146105fc5780637b7e0a5a146105da5780637d32e7bd146105a057806395d89b411461048e5780639a09435214610308578063ad8f5008146102ce578063b32c100114610294578063b88baa8d146101c7578063b91816111461018b578063c45a0155146101485763dd62ed3e146100fb575f80fd5b34610144578060031936011261014457602091610116610a95565b61011e610aab565b6001600160a01b039182165f908152928552838320911682528352819020549051908152f35b5f80fd5b5034610144575f36600319011261014457517f00000000000000000000000000000000000000000000000000000000000000006001600160a01b03168152602090f35b5034610144576020366003190112610144576020906001600160a01b036101b0610a95565b165f526005825260ff815f20541690519015158152f35b509034610144576060366003190112610144576101e2610a95565b916101eb610aab565b6044359390926001600160a01b039190337f0000000000000000000000000000000000000000000000000000000000000000841614158061027e575b61027057506102363386611055565b1561014457610260948461024992610d2e565b82165f5260036020525f2054801561026257610f57565b005b5061026b611261565b610f57565b835163ea8e4eb560e01b8152fd5b50335f52600560205260ff845f20541615610227565b5034610144576020906102c76102ba6102c06102af36610aef565b949192943691610b80565b90610bc6565b9033610e19565b5160018152f35b5034610144575f36600319011261014457602090517f00000000000000000000000000000000000000000000000000000000000000008152f35b503461014457608036600319011261014457610322610a95565b9161032b610aab565b60643567ffffffffffffffff81116101445761035761035061035f9236908601610ac1565b3691610b80565b604435610bc6565b6103693382611055565b156101445760018060a01b039182861695865f5260208097868252875f20335f528252875f20549661039b88876110f4565b915f52600383526103af895f2054876110f4565b96821561047e575b8715610466575b905f6064925f805160206112b583398151915254168b51998a95869463d99882d560e01b865285015260248401528160448401525af193841561045c575f94610429575b5061042461041d86610417866102c799610fd1565b87611178565b3383610e19565b610d5a565b9493508685813d8311610455575b6104418183610b5e565b810103126101445793519293610424610402565b503d610437565b86513d5f823e3d90fd5b96506064905f610474611215565b98919250506103be565b9150610488611215565b916103b7565b5034610144575f366003190112610144578051905f906002549160018360011c9060018516948515610596575b602095868410811461058357838852879493929187908215610561575050600114610506575b505061050292916104f3910385610b5e565b51928284938452830190610a57565b0390f35b9085925060025f527f405787fa12a823e0f2b7631cc41b3ba8828b3321ca811111fa75cd3aa3bb5ace915f925b82841061054957505050820101816104f36104e1565b8054848a018601528895508794909301928101610533565b60ff19168682015292151560051b850190920192508391506104f390506104e1565b602289634e487b7160e01b5f525260245ffd5b91607f16916104bb565b50346101445780600319360112610144576105b9610a95565b90602435916105c83384611055565b15610144576020926102c79133610d2e565b5034610144576020906102c76102ba6105f56102af36610aef565b9033610d2e565b5034610144578060031936011261014457610615610a95565b9160243592831515809403610144576001600160a01b03917f0000000000000000000000000000000000000000000000000000000000000000831633036102705750165f5260056020525f209060ff801983541691161790555f80f35b5034610144576020366003190112610144576020906001600160a01b03610697610a95565b165f5260038252805f20549051908152f35b50346101445780600319360112610144576106c2610a95565b602435916001600160a01b03337f0000000000000000000000000000000000000000000000000000000000000000821614158061078f575b61077f576107479394508216805f52600360205261071b85835f2054610fd1565b9182915f5260036020525f2055808015918261076c575b61073d903090610f57565b9061026257610f57565b8015610759575b610260903390610f57565b50610260610765611261565b905061074e565b5061073d610778611261565b9050610732565b815163ea8e4eb560e01b81528590fd5b50335f52600560205260ff825f205416156106fa565b50346101445780600319360112610144576107be610a95565b337f00000000000000000000000000000000000000000000000000000000000000006001600160a01b031614158061082e575b6108205761080490602435903390610d2e565b335f5260036020525f2054801561075957610260903390610f57565b505163ea8e4eb560e01b8152fd5b50335f52600560205260ff825f205416156107f1565b5034610144575f366003190112610144576020905160068152f35b5034610144578060031936011261014457610878610a95565b602435916001600160a01b03337f000000000000000000000000000000000000000000000000000000000000000082161415806108d1575b61077f576107479394508216805f52600360205261071b85835f2054610ea4565b50335f52600560205260ff825f205416156108b0565b5034610144575f366003190112610144576020905167ffffffffffffffff7f0000000000000000000000000000000000000000000000000000000000000000168152f35b5034610144575f3660031901126101445760209067ffffffffffffffff5f54169051908152f35b5034610144575f36600319011261014457602090517f000000000000000000000000000000000000000000000000000000000000000015158152f35b91905034610144575f366003190112610144575f90600191600154928360011c9060018516948515610a4d575b6020958684108114610583578388528794939291879082156105615750506001146109f257505061050292916104f3910385610b5e565b9085925060015f527fb10e2d527612073b26eecdfd717e6a320cf44b4afac2b0732d9fcbe2b7fa0cf6915f925b828410610a3557505050820101816104f36104e1565b8054848a018601528895508794909301928101610a1f565b91607f16916109bb565b91908251928382525f5b848110610a81575050825f602080949584010152601f8019910116010190565b602081830181015184830182015201610a61565b600435906001600160a01b038216820361014457565b602435906001600160a01b038216820361014457565b9181601f840112156101445782359167ffffffffffffffff8311610144576020838186019501011161014457565b6060600319820112610144576004356001600160a01b03811681036101445791602435916044359067ffffffffffffffff821161014457610b3291600401610ac1565b9091565b67ffffffffffffffff8111610b4a57604052565b634e487b7160e01b5f52604160045260245ffd5b90601f8019910116810190811067ffffffffffffffff821117610b4a57604052565b92919267ffffffffffffffff8211610b4a5760405191610baa601f8201601f191660200184610b5e565b829481845281830111610144578281602093845f960137010152565b815190919015610cec575f805160206112b58339815191525460405163045fc19560e11b81526004810193909352336024840152608060448401526001600160a01b039160209184919084169082905f908290610c27906084830190610a57565b6005606483015203925af1918215610cad575f92610cb8575b507f9e7b61f58c47dc699ac88507c4f5bb9f121c03808c5676a8078fe583e46497005416803b1561014457604051630f8e573b60e21b815260048101839052336024820152905f908290604490829084905af18015610cad57610ca1575090565b610caa90610b36565b90565b6040513d5f823e3d90fd5b9091506020813d602011610ce4575b81610cd460209383610b5e565b810103126101445751905f610c40565b3d9150610cc7565b508015610d2557610cfd3382611055565b15610d055790565b604051630276b5d960e01b81526004810191909152336024820152604490fd5b50610caa611261565b9091610d589260018060a01b0383165f526003602052610d5260405f2054836110f4565b92610d5a565b565b91610df39193610d7291610d6c611261565b91611178565b91610dd160018060a01b03610dbc81871696875f526003602052610d9a8760405f2054610ea4565b885f5260036020528060405f2055808015918261076c5761073d903090610f57565b821693845f52600360205260405f2054610fd1565b835f5260036020528060405f2055808015918261076c5761073d903090610f57565b7f4853ae1b4d437c4255ac16cd3ceda3465975023f27cb141584cd9d44440fed825f80a3565b9190610e6b9060018060a01b039384811693845f52600460205260405f2095831695865f526020528060405f205561073d819282159384610e91575b610e60903090610f57565b828461026257610f57565b7ff37f546c25e850257cc0c94f92bec94a17e2f0e884ddda268a25d8144b70eb6a5f80a3565b50610e60610e9d611261565b9050610e55565b908115610f47575b8015610f35575b602090606460018060a01b035f805160206112b58339815191525416935f604051958694859363022f65e760e31b8552600485015260248401528160448401525af1908115610cad575f91610f06575090565b90506020813d602011610f2d575b81610f2160209383610b5e565b81010312610144575190565b3d9150610f14565b506020610f40611261565b9050610eb3565b9050610f51611261565b90610eac565b7f9e7b61f58c47dc699ac88507c4f5bb9f121c03808c5676a8078fe583e4649700546001600160a01b031691823b1561014457604051635ca4b5b160e11b815260048101929092526001600160a01b03166024820152905f908290604490829084905af18015610cad57610fc85750565b610d5890610b36565b908115611045575b8015611033575b602090606460018060a01b035f805160206112b58339815191525416935f60405195869485936303056db360e31b8552600485015260248401528160448401525af1908115610cad575f91610f06575090565b50602061103e611261565b9050610fe0565b905061104f611261565b90610fd9565b7f9e7b61f58c47dc699ac88507c4f5bb9f121c03808c5676a8078fe583e4649700546040516382027b6d60e01b815260048101929092526001600160a01b039283166024830152909160209183916044918391165afa908115610cad575f916110bc575090565b90506020813d6020116110ec575b816110d760209383610b5e565b81010312610144575180151581036101445790565b3d91506110ca565b908115611168575b8015611156575b602090606460018060a01b035f805160206112b58339815191525416935f6040519586948593631d44e90160e21b8552600485015260248401528160448401525af1908115610cad575f91610f06575090565b506020611161611261565b9050611103565b9050611172611261565b906110fc565b91908215611205575b80156111f7575b81156111e1575b6064602092935f60018060a01b035f805160206112b583398151915254166040519687958694637702dcff60e01b86526004860152602485015260448401525af1908115610cad575f91610f06575090565b6020915060646111ef611261565b92505061118f565b50611200611261565b611188565b915061120f611215565b91611181565b5f602060018060a01b035f805160206112b58339815191525416604460405180948193639cd07acb60e01b83528160048401528160248401525af1908115610cad575f91610f06575090565b5f805160206112b583398151915254604051639cd07acb60e01b81525f60048201819052600560248301529091602091839160449183916001600160a01b03165af1908115610cad575f91610f0657509056fe9e7b61f58c47dc699ac88507c4f5bb9f121c03808c5676a8078fe583e4649701a264697066735822122065b1a974faf452bba9e0f2e96e626e501ca57428160909e2efc5efdc421c694764736f6c634300081800339e7b61f58c47dc699ac88507c4f5bb9f121c03808c5676a8078fe583e4649701a26469706673582212208cf88411b9af11a803d23ad0cbe61e74421269482258183c0c95065b9c97b62b64736f6c63430008180033","linkReferences":{}},"methodIdentifiers":{"SCALE()":"eced5526","authorizeBridge(uint256,uint64)":"7b1760d4","bridge()":"e78cea92","cWETH()":"1ee8aa1f","createPool(uint256,uint64,bool,address,uint64)":"33d06b2b","createSeries(uint256,uint64)":"39a2540b","getPool(uint256,uint64,bool)":"8d4e5c37","getTokens(uint256,uint64)":"c4c244a2","isSettled(uint256,uint64)":"faaa551e","matchingEngine()":"1c0edff2","merge(uint256,uint64,bytes32)":"5cd9a81f","poolImplementation()":"cefa7799","pools(bytes32,bool)":"7d26647d","redeem(uint256,uint64)":"1c706885","series(bytes32)":"f5de118e","seriesId(uint256,uint64)":"d9e829e8","setBridge(address)":"8dd14802","setMatchingEngine(address)":"caa57466","setPoolImplementation(address)":"d6f74898","settle(uint256,uint64,uint256)":"99323f5d","split(uint256,uint64,bytes32,bytes)":"b309b63a"},"id":19}