{"abi":[{"type":"constructor","inputs":[{"name":"cWETH_","type":"address","internalType":"address"},{"name":"oracle_","type":"address","internalType":"address"}],"stateMutability":"nonpayable"},{"type":"function","name":"SCALE","inputs":[],"outputs":[{"name":"","type":"uint64","internalType":"uint64"}],"stateMutability":"view"},{"type":"function","name":"authorizeBridge","inputs":[{"name":"strike","type":"uint256","internalType":"uint256"},{"name":"maturity","type":"uint64","internalType":"uint64"}],"outputs":[],"stateMutability":"nonpayable"},{"type":"function","name":"bridge","inputs":[],"outputs":[{"name":"","type":"address","internalType":"address"}],"stateMutability":"view"},{"type":"function","name":"cWETH","inputs":[],"outputs":[{"name":"","type":"address","internalType":"contract IConfidentialWETH"}],"stateMutability":"view"},{"type":"function","name":"createPool","inputs":[{"name":"strike","type":"uint256","internalType":"uint256"},{"name":"maturity","type":"uint64","internalType":"uint64"},{"name":"isStable","type":"bool","internalType":"bool"},{"name":"quoteToken","type":"address","internalType":"address"},{"name":"minPricePerToken","type":"uint64","internalType":"uint64"}],"outputs":[{"name":"pool","type":"address","internalType":"address"}],"stateMutability":"nonpayable"},{"type":"function","name":"createSeries","inputs":[{"name":"strike","type":"uint256","internalType":"uint256"},{"name":"maturity","type":"uint64","internalType":"uint64"}],"outputs":[{"name":"stable","type":"address","internalType":"address"},{"name":"up","type":"address","internalType":"address"}],"stateMutability":"nonpayable"},{"type":"function","name":"getPool","inputs":[{"name":"strike","type":"uint256","internalType":"uint256"},{"name":"maturity","type":"uint64","internalType":"uint64"},{"name":"isStable","type":"bool","internalType":"bool"}],"outputs":[{"name":"","type":"address","internalType":"address"}],"stateMutability":"view"},{"type":"function","name":"getTokens","inputs":[{"name":"strike","type":"uint256","internalType":"uint256"},{"name":"maturity","type":"uint64","internalType":"uint64"}],"outputs":[{"name":"stable","type":"address","internalType":"address"},{"name":"up","type":"address","internalType":"address"}],"stateMutability":"view"},{"type":"function","name":"isSettled","inputs":[{"name":"strike","type":"uint256","internalType":"uint256"},{"name":"maturity","type":"uint64","internalType":"uint64"}],"outputs":[{"name":"","type":"bool","internalType":"bool"}],"stateMutability":"view"},{"type":"function","name":"matchingEngine","inputs":[],"outputs":[{"name":"","type":"address","internalType":"address"}],"stateMutability":"view"},{"type":"function","name":"merge","inputs":[{"name":"strike","type":"uint256","internalType":"uint256"},{"name":"maturity","type":"uint64","internalType":"uint64"},{"name":"amount","type":"bytes32","internalType":"euint64"}],"outputs":[],"stateMutability":"nonpayable"},{"type":"function","name":"oracle","inputs":[],"outputs":[{"name":"","type":"address","internalType":"address"}],"stateMutability":"view"},{"type":"function","name":"poolImplementation","inputs":[],"outputs":[{"name":"","type":"address","internalType":"address"}],"stateMutability":"view"},{"type":"function","name":"pools","inputs":[{"name":"","type":"bytes32","internalType":"bytes32"},{"name":"","type":"bool","internalType":"bool"}],"outputs":[{"name":"","type":"address","internalType":"address"}],"stateMutability":"view"},{"type":"function","name":"redeem","inputs":[{"name":"strike","type":"uint256","internalType":"uint256"},{"name":"maturity","type":"uint64","internalType":"uint64"}],"outputs":[],"stateMutability":"nonpayable"},{"type":"function","name":"series","inputs":[{"name":"","type":"bytes32","internalType":"bytes32"}],"outputs":[{"name":"stableToken","type":"address","internalType":"contract OptionToken"},{"name":"upToken","type":"address","internalType":"contract OptionToken"},{"name":"settled","type":"bool","internalType":"bool"},{"name":"stablePayout","type":"bytes32","internalType":"euint64"},{"name":"upPayout","type":"bytes32","internalType":"euint64"}],"stateMutability":"view"},{"type":"function","name":"seriesId","inputs":[{"name":"strike","type":"uint256","internalType":"uint256"},{"name":"maturity","type":"uint64","internalType":"uint64"}],"outputs":[{"name":"","type":"bytes32","internalType":"bytes32"}],"stateMutability":"pure"},{"type":"function","name":"setBridge","inputs":[{"name":"bridge_","type":"address","internalType":"address"}],"outputs":[],"stateMutability":"nonpayable"},{"type":"function","name":"setMatchingEngine","inputs":[{"name":"cme","type":"address","internalType":"address"}],"outputs":[],"stateMutability":"nonpayable"},{"type":"function","name":"setPoolImplementation","inputs":[{"name":"impl","type":"address","internalType":"address"}],"outputs":[],"stateMutability":"nonpayable"},{"type":"function","name":"settle","inputs":[{"name":"strike","type":"uint256","internalType":"uint256"},{"name":"maturity","type":"uint64","internalType":"uint64"},{"name":"oraclePrice","type":"uint256","internalType":"uint256"}],"outputs":[],"stateMutability":"nonpayable"},{"type":"function","name":"split","inputs":[{"name":"strike","type":"uint256","internalType":"uint256"},{"name":"maturity","type":"uint64","internalType":"uint64"},{"name":"encAmt","type":"bytes32","internalType":"externalEuint64"},{"name":"proof","type":"bytes","internalType":"bytes"}],"outputs":[],"stateMutability":"nonpayable"},{"type":"function","name":"vault","inputs":[],"outputs":[{"name":"","type":"address","internalType":"contract ConfidentialCollateralVault"}],"stateMutability":"view"},{"type":"event","name":"MatchingEngineSet","inputs":[{"name":"engine","type":"address","indexed":true,"internalType":"address"}],"anonymous":false},{"type":"event","name":"Merge","inputs":[{"name":"user","type":"address","indexed":true,"internalType":"address"},{"name":"seriesId","type":"bytes32","indexed":true,"internalType":"bytes32"}],"anonymous":false},{"type":"event","name":"PoolCreated","inputs":[{"name":"strike","type":"uint256","indexed":true,"internalType":"uint256"},{"name":"maturity","type":"uint64","indexed":true,"internalType":"uint64"},{"name":"isStable","type":"bool","indexed":true,"internalType":"bool"},{"name":"pool","type":"address","indexed":false,"internalType":"address"}],"anonymous":false},{"type":"event","name":"Redeemed","inputs":[{"name":"user","type":"address","indexed":true,"internalType":"address"},{"name":"seriesId","type":"bytes32","indexed":true,"internalType":"bytes32"}],"anonymous":false},{"type":"event","name":"SeriesCreated","inputs":[{"name":"strike","type":"uint256","indexed":true,"internalType":"uint256"},{"name":"maturity","type":"uint64","indexed":true,"internalType":"uint64"},{"name":"stableToken","type":"address","indexed":false,"internalType":"address"},{"name":"upToken","type":"address","indexed":false,"internalType":"address"}],"anonymous":false},{"type":"event","name":"Settled","inputs":[{"name":"seriesId","type":"bytes32","indexed":true,"internalType":"bytes32"},{"name":"oraclePrice","type":"uint256","indexed":false,"internalType":"uint256"}],"anonymous":false},{"type":"event","name":"Split","inputs":[{"name":"user","type":"address","indexed":true,"internalType":"address"},{"name":"seriesId","type":"bytes32","indexed":true,"internalType":"bytes32"}],"anonymous":false},{"type":"error","name":"AlreadySettled","inputs":[]},{"type":"error","name":"FailedDeployment","inputs":[]},{"type":"error","name":"InsufficientBalance","inputs":[{"name":"balance","type":"uint256","internalType":"uint256"},{"name":"needed","type":"uint256","internalType":"uint256"}]},{"type":"error","name":"InvalidOracle","inputs":[]},{"type":"error","name":"NoPoolImplementation","inputs":[]},{"type":"error","name":"NotOracle","inputs":[]},{"type":"error","name":"NotSettled","inputs":[]},{"type":"error","name":"NotYetMatured","inputs":[]},{"type":"error","name":"PoolAlreadyExists","inputs":[]},{"type":"error","name":"SeriesExists","inputs":[]},{"type":"error","name":"SeriesNotFound","inputs":[]},{"type":"error","name":"ZamaProtocolUnsupported","inputs":[]}],"bytecode":{"object":"0x60e034620003265762004ccc906001600160401b0390601f38849003908101601f191682019083821183831017620002115780839160409687948552833981010312620003265762000051816200034a565b906200006160208092016200034a565b916200006c6200035f565b50466001036200023657620000806200035f565b506200008b6200032a565b73ca2e8f1f656cd25c01f05d0b243ab1ecd4a8ffb6815273d82385dada1ae3e969447f20a3164f6213100e75838201527377627828a55156b04ac0dc0eb30467f1a552bb0386820152905b81517f9e7b61f58c47dc699ac88507c4f5bb9f121c03808c5676a8078fe583e464970080546001600160a01b03199081166001600160a01b0393841617909155848401517f9e7b61f58c47dc699ac88507c4f5bb9f121c03808c5676a8078fe583e464970180548316918416919091179055928701517f9e7b61f58c47dc699ac88507c4f5bb9f121c03808c5676a8078fe583e464970280549094169082161790925583821615620002255716918260805260a052835192610d0591828501918583109083111762000211578593859362003fc78539825230908201520301905ff08015620002075760c05251613c4b90816200037c8239608051816116c0015260a0518181816106cb0152610991015260c05181818161014a015281816104bc01528181610d0d01526118b20152f35b50513d5f823e3d90fd5b634e487b7160e01b5f52604160045260245ffd5b8551639589a27d60e01b8152600490fd5b4662aa36a703620002a6576200024b6200035f565b50620002566200032a565b73f0ffdc93b7e186bc2f8cb3daa75d86d1930a433d81527392c920834ec8941d2c77d188936e1f7a6f49c1278382015273be0e383937d564d7ff0bc3b46c51f0bf8d5c311a8682015290620000d6565b46617a69036200031557620002ba6200035f565b50620002c56200032a565b7350157cffd6bbfa2dece204a89ec419c23ef5755d815273e3a9105a3a932253a70f126eb1e3b589c643dd248382015273901f8942346f7ab3a01f6d7613119bca447bb0308682015290620000d6565b84516373cac13b60e01b8152600490fd5b5f80fd5b60405190606082016001600160401b038111838210176200021157604052565b51906001600160a01b03821682036200032657565b620003696200032a565b905f82525f60208301525f604083015256fe608080604052600436101562000013575f80fd5b5f905f3560e01c9081631c0edff21462001ae9575080631c70688514620016ef5780631ee8aa1f14620016a857806333d06b2b146200142a57806339a2540b1462000ee15780635cd9a81f1462000b4f5780637b1760d41462000a0d5780637d26647d14620009c05780637dc0d1d014620009795780638d4e5c37146200091a5780638dd1480214620008cc57806399323f5d146200069b578063b309b63a14620003d0578063c4c244a2146200037b578063caa574661462000308578063cefa779914620002dd578063d6f7489814620002a0578063d9e829e81462000274578063e78cea921462000249578063eced55261462000229578063f5de118e14620001c6578063faaa551e146200017c5763fbfa77cf1462000133575f80fd5b3462000179578060031936011262000179576040517f00000000000000000000000000000000000000000000000000000000000000006001600160a01b03168152602090f35b80fd5b503462000179576040366003190112620001795760ff60016040602093620001b0620001a762001b0e565b60043562001c07565b815280855220015460a01c166040519015158152f35b5034620001795760203660031901126200017957604060a09160043581528060205220600180831b03808254169160ff6001820154600360028401549301549360405195865281166020860152851c161515604084015260608301526080820152f35b503462000179578060031936011262000179576020604051620f42408152f35b503462000179578060031936011262000179576004546040516001600160a01b039091168152602090f35b5034620001795760403660031901126200017957602062000298620001a762001b0e565b604051908152f35b50346200017957602036600319011262000179576001600160a01b03620002c662001b35565b166001600160601b0360a01b600154161760015580f35b503462000179578060031936011262000179576001546040516001600160a01b039091168152602090f35b50346200017957602036600319011262000179576200032662001b35565b600354906001600160a01b0390620003418284161562001bcc565b1680916001600160601b0360a01b16176003557fa757ecb260f9e4bf77bd2b2d9391a2409f8c8b205c6551e3b52917cb2cc9c8b98280a280f35b5034620001795760403660031901126200017957604090620003a0620001a762001b0e565b815260208181529190208054600190910154604080516001600160a01b0393841681529290911692820192909252f35b5034620001795760803660031901126200017957620003ee62001b0e565b6064356001600160401b0391828211620005ef5736602383011215620005ef578160040135928311620005ef573660248484010111620005ef57620004369060043562001c07565b91828452836020526040842060018060a01b0380825416156200068957600182019160ff835460a01c1662000678576020602460a489978760405198899485936328d5f3a160e21b85528d60048601523382860152604435604486015260806064860152826084860152018484013781810183018a9052601f01601f19168101030181887f000000000000000000000000000000000000000000000000000000000000000087165af19384156200066d5785946200062b575b50806200052183809354166200050f8791881592836200061a5762001eb5565b838654169087906200061a5762001eb5565b541691823b156200060b57604051632cfd300560e01b808252336004830152602482018690529386908290604490829084905af19081156200060f578691620005f3575b5050541691823b15620005ef5760405191825233600483015260248201529082908290604490829084905af18015620005e457620005c8575b5050337ff0682454426b0e7ae4d403326d18d7cb943255a97095cc05aaba1478624ef3058380a380f35b620005d39062001b4c565b620005e057815f6200059e565b5080fd5b6040513d84823e3d90fd5b8380fd5b620005fe9062001b4c565b6200060b57845f62000565565b8480fd5b6040513d88823e3d90fd5b506200062562001f36565b62001eb5565b945092506020843d60201162000664575b816200064b6020938362001b60565b810103126200066057808694519390620004ef565b5f80fd5b3d91506200063c565b6040513d87823e3d90fd5b60405162560ff960e81b8152600490fd5b60405163948389ab60e01b8152600490fd5b5034620001795760603660031901126200017957600435620006bc62001b0e565b90604435906001600160a01b037f000000000000000000000000000000000000000000000000000000000000000081163303620008ba57620006ff848362001c07565b93848652856020526040862091825416156200068957600182019260ff845460a01c1662000678576001600160401b038092164210620008a85784158080156200089d575b156200083957505080620f42405b169081620f424003918183116200082557916003620007ab7ff8cd5951a4d275639396b7a7bbcf5eee708975d6b14cae09b50ff2a3a602e13f9795936200079c6020989662001f8c565b93600286019485551662001f8c565b92019182555480156200080e575b620007c690309062001eb5565b548015620007f7575b620007dc90309062001eb5565b805460ff60a01b1916600160a01b179055604051908152a280f35b50620007dc6200080662001f36565b9050620007cf565b50620007c66200081d62001f36565b9050620007b9565b634e487b7160e01b88526011600452602488fd5b620f4240908183029280840483149015171562000889576200087557829182908790048281106200086c57505062000752565b16905062000752565b634e487b7160e01b5f52601260045260245ffd5b634e487b7160e01b89526011600452602489fd5b508582101562000744565b6040516362733c9560e01b8152600490fd5b604051631bc2178f60e01b8152600490fd5b5034620001795760203660031901126200017957620008ea62001b35565b600454906001600160a01b0390620009058284161562001bcc565b16906001600160601b0360a01b161760045580f35b50346200017957606036600319011262000179576020906200093b62001b0e565b620009536200094962001b25565b9160043562001c07565b8252600283526040822090151582528252604060018060a01b0391205416604051908152f35b503462000179578060031936011262000179576040517f00000000000000000000000000000000000000000000000000000000000000006001600160a01b03168152602090f35b5034620001795760403660031901126200017957602435908115158092036200066057602091600435825260028352604082209082528252604060018060a01b0391205416604051908152f35b503462000179576040366003190112620001795762000a2b62001b0e565b6004546001600160a01b03908116913383900362000b1d5762000a519060043562001c07565b835282602052604083209181835416801562000689578493813b156200060b5784809260446040518095819363388dfcd960e11b988984526004840152600160248401525af180156200066d578492869162000b00575b505060010154169160045416823b1562000afb576044849283604051958694859384526004840152600160248401525af18015620005e45762000ae85750f35b62000af39062001b4c565b620001795780f35b505050fd5b62000b0e9192935062001b4c565b62000afb578290845f62000aa8565b60405162461bcd60e51b815260206004820152600a6024820152696e6f742062726964676560b01b6044820152606490fd5b503462000179576060366003190112620001795762000b6d62001b0e565b62000b7e6044359160043562001c07565b80835260208381526040842080549293909290916001600160a01b0391821680156200068957600185019060ff825460a01c1662000678577f9e7b61f58c47dc699ac88507c4f5bb9f121c03808c5676a8078fe583e4649700546040516382027b6d60e01b8152600481018790523360248201528997918590829060449082908a165afa90811562000e9957889162000ea4575b501562000e9557813b1562000e955760405163577706e160e01b808252336004830152602482018890529288908290604490829084905af190811562000e9957889162000e7d575b50508483541691823b1562000e7957604051908152336004820152602481018790529187908390604490829084905af1801562000e4d578592889162000e58575b50505460405163588f0b0160e01b80825230600483015260248201889052939290918591839160449183918c91165af1801562000e4d5762000e19575b505460405191825230600483015260248201859052829082906044908290899088165af180156200066d5762000de4575b50507f0000000000000000000000000000000000000000000000000000000000000000168181831562000dcc575b62000d429162001eb5565b803b1562000dc857604051632b0b4fa760e01b815260048101859052336024820152604481019290925282908290606490829084905af18015620005e45762000db0575b5050337f035f0ba47bae29150fa25aad33d10089ab322237934abb94aed63d70be5054668380a380f35b62000dbb9062001b4c565b620005e057815f62000d86565b8280fd5b62000d42915062000ddc62001f36565b915062000d37565b90809294503d831162000e11575b62000dfe818362001b60565b81010312620006605783915f8062000d09565b503d62000df2565b83809297503d831162000e45575b62000e33818362001b60565b81010312620006605786945f62000cd8565b503d62000e27565b6040513d89823e3d90fd5b62000e669192935062001b4c565b62000e75578390865f62000c9b565b8580fd5b8780fd5b62000e889062001b4c565b62000e9557865f62000c5a565b8680fd5b6040513d8a823e3d90fd5b90508481813d831162000ed9575b62000ebe818362001b60565b8101031262000e795751801515810362000e79575f62000c12565b503d62000eb2565b503462000179576040366003190112620001795762000eff62001b0e565b62000f0d8160043562001c07565b808352602083905260408320549091906001600160a01b0316620014185762000f3860043562001dac565b9262000f4d6001600160401b03831662001dac565b9360405169737461626c654554482d60b01b602082015262000fb2602b82845162000f8081602a84016020890162001b82565b8101602d60f81b602a82015289519062000fa2828c6020878501910162001b82565b0103600b81018452018262001b60565b6040516573744554482d60d01b602082015262001012602782855162000fe0816026840160208a0162001b82565b8101602d60f81b60268201528a519062001002828d6020878501910162001b82565b0103600781018452018262001b60565b6040519182611c138101106001600160401b03611c138501111762001404578291620010576200106e92611c1362001fe3863960c0611c138601818152019062001ba5565b90611c13840182036020611c138601015262001ba5565b30611c138301604081019190915260043560608201526001600160401b0387166080820152600160a090910152039083f0948515620005e457620011606027604051926575704554482d60d01b908160208601526200110e83868851620010dd816026840160208d0162001b82565b8101602d60f81b6026820152845190620010fe828583016020890162001b82565b0103600781018852018662001b60565b60405195869260208401526200112f81518092602060268701910162001b82565b8201602d60f81b602682015262001150825180936020878501910162001b82565b0103600781018552018362001b60565b60405191611c138301918383106001600160401b03841117620014045760a0620011b3859493620011a45f94611c1362001fe3893960c0875260c087019062001ba5565b90858203602087015262001ba5565b9230604082015260043560608201526001600160401b03881660808201520152039082f0928315620013f757620011e962001f36565b620011f362001f36565b6040519160a08301928084106001600160401b03851117620013e35760409384526001600160a01b03898116825288811660208084019182528387018981526060850195865260808501968752978952889052948720915182549082166001600160a01b03199091161782559351600182018054965160ff60a01b90151560a01b169186166001600160a81b0319909716969096171790945551600284015551600392830155905416806200130d575b5050604080516001600160a01b038581168252841660208201526001600160401b039290921691600435917f220e1e1ca923c6e27417f90002b83affb7a3f8c0e00adeee22ad0a4c9746e1f491a3604080516001600160a01b039384168152919092166020820152f35b6001600160a01b0385163b15620005e05760405163388dfcd960e11b8082526004820192909252600160248201528281604481836001600160a01b038b165af18015620013d857908391620013c0575b50506003546001600160a01b039081169085163b1562000dc8576040519182526004820152600160248201528181604481836001600160a01b0389165af18015620005e45715620012a357620013b4829162001b4c565b620001795780620012a3565b620013cb9062001b4c565b620005e057815f6200135d565b6040513d85823e3d90fd5b634e487b7160e01b5f52604160045260245ffd5b50604051903d90823e3d90fd5b634e487b7160e01b85526041600452602485fd5b6040516339cb981160e21b8152600490fd5b5034620001795760a036600319011262000179576004356200144b62001b0e565b906200145662001b25565b916064359160018060a01b03948584168094036200066057608435926001600160401b03908185168095036200066057600154958887161562001693576200149f828662001c07565b92838552602099858b526040862099818b541615620006895785875260028c5260408720998115159a8b89528d52826040892054166200168157608881901c62ffffff16763d602d80600a3d3981f3363d3d373d3d3d363d7300000017885260781b6effffffffffffffffffffffffffffff19166e5af43d82803e903d91602b57fd5bf3178c52816037600989f0169a8b156200166f57829115620016645754165b1692893b1562000e755760405192630389908360e61b84528460048501526024840152866044840152169586606483015260848201523060a4820152838160c481838c5af18015620016595790849162001641575b5050803b1562000dc85782809160446040518094819363388dfcd960e11b83528c6004840152600160248401525af18015620013d85762001629575b5090604091815260028752818120858252875220846001600160601b0360a01b8254161790557f4b88f46a4860a5bd7da11618bd4ac07d7fa73db33572f81b8095734d523be1a785604051868152a4604051908152f35b62001635839162001b4c565b620005e0575f620015d2565b6200164c9062001b4c565b62000dc857825f62001596565b6040513d86823e3d90fd5b600101541662001541565b60405163b06ebf3d60e01b8152600490fd5b604051630188c99160e11b8152600490fd5b60405160016242cf5760e11b03198152600490fd5b503462000179578060031936011262000179576040517f00000000000000000000000000000000000000000000000000000000000000006001600160a01b03168152602090f35b503462000660576040366003190112620006605762001711620001a762001b0e565b805f5260205f815260405f206001810190815460ff8160a01c161562001ad75781546040516370a0823160e01b8082523360048301526001600160a01b039592861693909290918781602481885afa9283156200196a57879489925f9562001a9a575b5060249060405196879384928352336004840152165afa9283156200196a575f9362001a65575b5060405163588f0b0160e01b80825233600483015260248201849052949091908890839060449082905f905af19081156200196a578892889262001a30575b505460405195865233600487015260248601859052859160449183915f91165af19283156200196a578693620019fe575b506200183c916003620018326200182c6200182c9460028901549062001c4c565b62001d0f565b9501549062001c4c565b8215620019eb575b8015620019da575b6064845f8051602062003bf68339815191525416935f604051958694859363022f65e760e31b8552600485015260248401528160448401525af19283156200196a575f93620019a4575b505081159082826200198d575b620018b090339062001eb5565b7f0000000000000000000000000000000000000000000000000000000000000000169081839162001975575b620018e79162001eb5565b803b156200066057604051632b0b4fa760e01b81526004810184905233602482015260448101929092525f908290606490829084905af180156200196a5762001954575b50337f851665af6e4e9430c7ecdf760410892dc4e51270dd981b9be1c39c7eb457a0ab8380a380f35b6200196191925062001b4c565b5f905f6200192b565b6040513d5f823e3d90fd5b620018e791506200198562001f36565b9150620018dc565b50620018b06200199c62001f36565b9050620018a3565b9080929350813d8311620019d2575b620019bf818362001b60565b81010312620006605751905f8062001896565b503d620019b3565b50620019e562001f36565b6200184c565b9150620019f762001f36565b9162001844565b8391933d831162001a28575b62001a16818362001b60565b81010312620006605784915f6200180b565b503d62001a0a565b90928092503d831162001a5d575b62001a4a818362001b60565b8101031262000660578587915f620017da565b503d62001a3e565b9092508681813d831162001a92575b62001a80818362001b60565b81010312620006605751915f6200179b565b503d62001a74565b91955093509081813d811162001acf575b62001ab7818362001b60565b81010312620006605786936024899251949062001774565b503d62001aab565b60405163ba329a9b60e01b8152600490fd5b3462000660575f36600319011262000660576003546001600160a01b03168152602090f35b602435906001600160401b03821682036200066057565b6044359081151582036200066057565b600435906001600160a01b03821682036200066057565b6001600160401b038111620013e357604052565b90601f801991011681019081106001600160401b03821117620013e357604052565b5f5b83811062001b945750505f910152565b818101518382015260200162001b84565b9060209162001bc08151809281855285808601910162001b82565b601f01601f1916010190565b1562001bd457565b60405162461bcd60e51b815260206004820152600b60248201526a185b1c9958591e481cd95d60aa1b6044820152606490fd5b9060405190602082019283526001600160401b0360c01b9060c01b16604082015260288152606081018181106001600160401b03821117620013e35760405251902090565b90811562001cfc575b801562001ce7575b602090606460018060a01b035f8051602062003bf68339815191525416935f6040519586948593630afe14ad60e31b8552600485015260248401528160448401525af19081156200196a575f9162001cb3575090565b90506020813d60201162001cde575b8162001cd16020938362001b60565b8101031262000660575190565b3d915062001cc2565b50602062001cf462001f36565b905062001c5d565b905062001d0862001f36565b9062001c55565b801562001d79575b5f8051602062003bf683398151915254604051635a53accb60e01b81526004810192909252620f42406024830152600160f81b6044830152602090829060649082905f906001600160a01b03165af19081156200196a575f9162001cb3575090565b505f602062001d8762001f36565b91505062001d17565b6001600160401b038111620013e357601f01601f191660200190565b801562001e86575f81805b62001e6d575062001dc88162001d90565b9062001dd8604051928362001b60565b808252601f1962001de98262001d90565b013660208401375b80831562001e6657801562001e52575f190192600a916030838306810180911162001e5257845186101562001e3e5760f81b6001600160f81b0319165f1a908401601f0153049162001df1565b634e487b7160e01b5f52603260045260245ffd5b634e487b7160e01b5f52601160045260245ffd5b5050905090565b905f19811462001e52576001600a910191048062001db7565b50604051604081018181106001600160401b03821117620013e35760405260018152600360fc1b602082015290565b7f9e7b61f58c47dc699ac88507c4f5bb9f121c03808c5676a8078fe583e4649700546001600160a01b031691823b156200066057604051635ca4b5b160e11b815260048101929092526001600160a01b03166024820152905f908290604490829084905af180156200196a5762001f295750565b62001f349062001b4c565b565b5f8051602062003bf683398151915254604051639cd07acb60e01b81525f60048201819052600560248301529091602091839160449183916001600160a01b03165af19081156200196a575f9162001cb3575090565b5f8051602062003bf683398151915254604051639cd07acb60e01b8152600481019290925260056024830152602090829060449082905f906001600160a01b03165af19081156200196a575f9162001cb357509056fe61010060409080825234620003435762001c13803803809162000023828562000617565b833981019060c081830312620003435780516001600160401b0390818111620003435783620000549184016200063b565b9060209384840151908282116200034357620000729185016200063b565b83860151916001600160a01b03808416840362000343576060860151946080870151968388168803620003435760a001519788151589036200034357620000b8620006af565b506001914683036200050557620000ce620006af565b508a51620000dc81620005fb565b73ca2e8f1f656cd25c01f05d0b243ab1ecd4a8ffb6815273d82385dada1ae3e969447f20a3164f6213100e75838201527377627828a55156b04ac0dc0eb30467f1a552bb038c820152955b8487511696858d60018060a01b0319927f9e7b61f58c47dc699ac88507c4f5bb9f121c03808c5676a8078fe583e46497009a848c5416178b558287820151165f8051602062001bf383398151915290858254161790550151167f9e7b61f58c47dc699ac88507c4f5bb9f121c03808c5676a8078fe583e464970291825416179055815186811162000325578454928584811c94168015620004fa575b8585101462000418578190601f94858111620004a7575b50859085831160011462000443575f9262000437575b50505f19600383901b1c191690851b1784555b80519286841162000325576002548581811c911680156200042c575b828210146200041857838111620003cf575b50809284116001146200036657509282939183925f946200035a575b50501b915f199060031b1c1916176002555b62000269620006cf565b92835f55831562000347575b541691823b1562000343575f92604484928a519586938492635ca4b5b160e11b845260048401523060248401525af18015620003395762000314575b505060805260a05260c05260e0525161148e908162000765823960805181818161015c015281816101fe0152818161062f015281816106d6015281816108c601526109a0015260a051816102e5015260c05181610a95015260e05181610aed0152f35b8111620003255785525f80620002b1565b634e487b7160e01b5f52604160045260245ffd5b87513d5f823e3d90fd5b5f80fd5b925062000353620006cf565b9262000275565b015192505f806200024d565b919083601f19811660025f52845f20945f905b88838310620003b457505050106200039b575b505050811b016002556200025f565b01515f1960f88460031b161c191690555f80806200038c565b85870151885590960195948501948793509081019062000379565b60025f52815f208480870160051c8201928488106200040e575b0160051c019086905b8281106200040257505062000231565b5f8155018690620003f2565b92508192620003e9565b634e487b7160e01b5f52602260045260245ffd5b90607f16906200021f565b015190505f80620001f0565b90879350601f19831691845f52875f20925f5b8982821062000490575050841162000477575b505050811b01845562000203565b01515f1960f88460031b161c191690555f808062000469565b8385015186558b9790950194938401930162000456565b909150865f52855f208580850160051c820192888610620004f0575b918991869594930160051c01915b828110620004e1575050620001da565b5f8155859450899101620004d1565b92508192620004c3565b93607f1693620001c3565b4662aa36a70362000578576200051a620006af565b508a516200052881620005fb565b73f0ffdc93b7e186bc2f8cb3daa75d86d1930a433d81527392c920834ec8941d2c77d188936e1f7a6f49c1278382015273be0e383937d564d7ff0bc3b46c51f0bf8d5c311a8c8201529562000127565b46617a6903620005ea576200058c620006af565b508a516200059a81620005fb565b7350157cffd6bbfa2dece204a89ec419c23ef5755d815273e3a9105a3a932253a70f126eb1e3b589c643dd248382015273901f8942346f7ab3a01f6d7613119bca447bb0308c8201529562000127565b8a516373cac13b60e01b8152600490fd5b606081019081106001600160401b038211176200032557604052565b601f909101601f19168101906001600160401b038211908210176200032557604052565b919080601f84011215620003435782516001600160401b0381116200032557602090604051926200067683601f19601f850116018562000617565b81845282828701011162000343575f5b8181106200069b5750825f9394955001015290565b858101830151848201840152820162000686565b60405190620006be82620005fb565b5f6040838281528260208201520152565b5f8051602062001bf383398151915254604051639cd07acb60e01b81525f60048201819052600560248301529091602091839160449183916001600160a01b03165af190811562000759575f9162000725575090565b90506020813d60201162000750575b81620007436020938362000617565b8101031262000343575190565b3d915062000734565b6040513d5f823e3d90fdfe6080604081815260049182361015610015575f80fd5b5f3560e01c90816306fdde0314610b125750806309047bdd14610ad657806318160ddd14610ab9578063204f83f914610a755780632cfd300514610978578063313ce5671461095d578063577706e1146108aa578063588f0b01146106a957806370a0823114610672578063711bf9b2146105fc5780637b7e0a5a146105da5780637d32e7bd146105a057806395d89b411461048e5780639a09435214610308578063ad8f5008146102ce578063b32c100114610294578063b88baa8d146101c7578063b91816111461018b578063c45a0155146101485763dd62ed3e146100fb575f80fd5b34610144578060031936011261014457602091610116610c19565b61011e610c2f565b6001600160a01b039182165f908152928552838320911682528352819020549051908152f35b5f80fd5b5034610144575f36600319011261014457517f00000000000000000000000000000000000000000000000000000000000000006001600160a01b03168152602090f35b5034610144576020366003190112610144576020906001600160a01b036101b0610c19565b165f526005825260ff815f20541690519015158152f35b509034610144576060366003190112610144576101e2610c19565b916101eb610c2f565b6044359390926001600160a01b039190337f0000000000000000000000000000000000000000000000000000000000000000841614158061027e575b610270575061023633866111d9565b1561014457610260948461024992610eb2565b82165f5260036020525f20548015610262576110db565b005b5061026b611399565b6110db565b835163ea8e4eb560e01b8152fd5b50335f52600560205260ff845f20541615610227565b5034610144576020906102c76102ba6102c06102af36610c73565b949192943691610d04565b90610d4a565b9033610f9d565b5160018152f35b5034610144575f36600319011261014457602090517f00000000000000000000000000000000000000000000000000000000000000008152f35b503461014457608036600319011261014457610322610c19565b9161032b610c2f565b60643567ffffffffffffffff81116101445761035761035061035f9236908601610c45565b3691610d04565b604435610d4a565b61036933826111d9565b156101445760018060a01b039182861695865f5260208097868252875f20335f528252875f20549661039b8887611278565b915f52600383526103af895f205487611278565b96821561047e575b8715610466575b905f6064925f8051602061143983398151915254168b51998a95869463d99882d560e01b865285015260248401528160448401525af193841561045c575f94610429575b5061042461041d86610417866102c799611155565b876112fc565b3383610f9d565b610ede565b9493508685813d8311610455575b6104418183610ce2565b810103126101445793519293610424610402565b503d610437565b86513d5f823e3d90fd5b96506064905f6104746113ec565b98919250506103be565b91506104886113ec565b916103b7565b5034610144575f366003190112610144578051905f906002549160018360011c9060018516948515610596575b602095868410811461058357838852879493929187908215610561575050600114610506575b505061050292916104f3910385610ce2565b51928284938452830190610bdb565b0390f35b9085925060025f527f405787fa12a823e0f2b7631cc41b3ba8828b3321ca811111fa75cd3aa3bb5ace915f925b82841061054957505050820101816104f36104e1565b8054848a018601528895508794909301928101610533565b60ff19168682015292151560051b850190920192508391506104f390506104e1565b602289634e487b7160e01b5f525260245ffd5b91607f16916104bb565b50346101445780600319360112610144576105b9610c19565b90602435916105c833846111d9565b15610144576020926102c79133610eb2565b5034610144576020906102c76102ba6105f56102af36610c73565b9033610eb2565b5034610144578060031936011261014457610615610c19565b9160243592831515809403610144576001600160a01b03917f0000000000000000000000000000000000000000000000000000000000000000831633036102705750165f5260056020525f209060ff801983541691161790555f80f35b5034610144576020366003190112610144576020906001600160a01b03610697610c19565b165f5260038252805f20549051908152f35b5090346101445781600319360112610144576106c3610c19565b602435926001600160a01b0392909190337f00000000000000000000000000000000000000000000000000000000000000008516141580610894575b6108865783821690815f52602095869160038352855f2054968215610876575b871561085e575b905f6064925f8051602061143983398151915254168851998a9586946304559f7160e01b865285015260248401528160448401525af1938415610854575f94610821575b50906107cf9161077b855f54611155565b805f55801561080e575b6107909030906110db565b805f52600386526107a485855f2054611155565b905f526003865280845f205580801591826107fb575b6107c59030906110db565b90610262576110db565b8182156107e8575b6107e29033906110db565b51908152f35b506107e26107f4611399565b90506107d7565b506107c5610807611399565b90506107ba565b5061079061081a611399565b9050610785565b919093508482813d831161084d575b61083a8183610ce2565b81010312610144579051926107cf61076a565b503d610830565b83513d5f823e3d90fd5b96506064905f61086c611399565b9891925050610726565b9150610880611399565b9161071f565b825163ea8e4eb560e01b8152fd5b50335f52600560205260ff835f205416156106ff565b50346101445780600319360112610144576108c3610c19565b337f00000000000000000000000000000000000000000000000000000000000000006001600160a01b0316141580610947575b6109395761090990602435903390610eb2565b335f5260036020525f20548015610926575b6102609033906110db565b50610260610932611399565b905061091b565b505163ea8e4eb560e01b8152fd5b50335f52600560205260ff825f205416156108f6565b5034610144575f366003190112610144576020905160068152f35b5034610144578060031936011261014457610991610c19565b602435916001600160a01b03337f00000000000000000000000000000000000000000000000000000000000000008216141580610a5f575b610a4f578394506109de610a2b945f54611028565b805f558015610a3c575b6109f39030906110db565b8216805f526003602052610a0a85835f2054611028565b9182915f5260036020525f205580801591826107fb576107c59030906110db565b8015610926576102609033906110db565b506109f3610a48611399565b90506109e8565b815163ea8e4eb560e01b81528590fd5b50335f52600560205260ff825f205416156109c9565b5034610144575f366003190112610144576020905167ffffffffffffffff7f0000000000000000000000000000000000000000000000000000000000000000168152f35b5034610144575f366003190112610144576020905f549051908152f35b5034610144575f36600319011261014457602090517f000000000000000000000000000000000000000000000000000000000000000015158152f35b91905034610144575f366003190112610144575f90600191600154928360011c9060018516948515610bd1575b602095868410811461058357838852879493929187908215610561575050600114610b7657505061050292916104f3910385610ce2565b9085925060015f527fb10e2d527612073b26eecdfd717e6a320cf44b4afac2b0732d9fcbe2b7fa0cf6915f925b828410610bb957505050820101816104f36104e1565b8054848a018601528895508794909301928101610ba3565b91607f1691610b3f565b91908251928382525f5b848110610c05575050825f602080949584010152601f8019910116010190565b602081830181015184830182015201610be5565b600435906001600160a01b038216820361014457565b602435906001600160a01b038216820361014457565b9181601f840112156101445782359167ffffffffffffffff8311610144576020838186019501011161014457565b6060600319820112610144576004356001600160a01b03811681036101445791602435916044359067ffffffffffffffff821161014457610cb691600401610c45565b9091565b67ffffffffffffffff8111610cce57604052565b634e487b7160e01b5f52604160045260245ffd5b90601f8019910116810190811067ffffffffffffffff821117610cce57604052565b92919267ffffffffffffffff8211610cce5760405191610d2e601f8201601f191660200184610ce2565b829481845281830111610144578281602093845f960137010152565b815190919015610e70575f805160206114398339815191525460405163045fc19560e11b81526004810193909352336024840152608060448401526001600160a01b039160209184919084169082905f908290610dab906084830190610bdb565b6005606483015203925af1918215610e31575f92610e3c575b507f9e7b61f58c47dc699ac88507c4f5bb9f121c03808c5676a8078fe583e46497005416803b1561014457604051630f8e573b60e21b815260048101839052336024820152905f908290604490829084905af18015610e3157610e25575090565b610e2e90610cba565b90565b6040513d5f823e3d90fd5b9091506020813d602011610e68575b81610e5860209383610ce2565b810103126101445751905f610dc4565b3d9150610e4b565b508015610ea957610e8133826111d9565b15610e895790565b604051630276b5d960e01b81526004810191909152336024820152604490fd5b50610e2e611399565b9091610edc9260018060a01b0383165f526003602052610ed660405f205483611278565b92610ede565b565b91610f779193610ef691610ef0611399565b916112fc565b91610f5560018060a01b03610f4081871696875f526003602052610f1e8760405f2054611028565b885f5260036020528060405f205580801591826107fb576107c59030906110db565b821693845f52600360205260405f2054611155565b835f5260036020528060405f205580801591826107fb576107c59030906110db565b7f4853ae1b4d437c4255ac16cd3ceda3465975023f27cb141584cd9d44440fed825f80a3565b9190610fef9060018060a01b039384811693845f52600460205260405f2095831695865f526020528060405f20556107c5819282159384611015575b610fe49030906110db565b8284610262576110db565b7ff37f546c25e850257cc0c94f92bec94a17e2f0e884ddda268a25d8144b70eb6a5f80a3565b50610fe4611021611399565b9050610fd9565b9081156110cb575b80156110b9575b602090606460018060a01b035f805160206114398339815191525416935f604051958694859363022f65e760e31b8552600485015260248401528160448401525af1908115610e31575f9161108a575090565b90506020813d6020116110b1575b816110a560209383610ce2565b81010312610144575190565b3d9150611098565b5060206110c4611399565b9050611037565b90506110d5611399565b90611030565b7f9e7b61f58c47dc699ac88507c4f5bb9f121c03808c5676a8078fe583e4649700546001600160a01b031691823b1561014457604051635ca4b5b160e11b815260048101929092526001600160a01b03166024820152905f908290604490829084905af18015610e315761114c5750565b610edc90610cba565b9081156111c9575b80156111b7575b602090606460018060a01b035f805160206114398339815191525416935f60405195869485936303056db360e31b8552600485015260248401528160448401525af1908115610e31575f9161108a575090565b5060206111c2611399565b9050611164565b90506111d3611399565b9061115d565b7f9e7b61f58c47dc699ac88507c4f5bb9f121c03808c5676a8078fe583e4649700546040516382027b6d60e01b815260048101929092526001600160a01b039283166024830152909160209183916044918391165afa908115610e31575f91611240575090565b90506020813d602011611270575b8161125b60209383610ce2565b81010312610144575180151581036101445790565b3d915061124e565b9081156112ec575b80156112da575b602090606460018060a01b035f805160206114398339815191525416935f6040519586948593631d44e90160e21b8552600485015260248401528160448401525af1908115610e31575f9161108a575090565b5060206112e5611399565b9050611287565b90506112f6611399565b90611280565b91908215611389575b801561137b575b8115611365575b6064602092935f60018060a01b035f8051602061143983398151915254166040519687958694637702dcff60e01b86526004860152602485015260448401525af1908115610e31575f9161108a575090565b602091506064611373611399565b925050611313565b50611384611399565b61130c565b91506113936113ec565b91611305565b5f8051602061143983398151915254604051639cd07acb60e01b81525f60048201819052600560248301529091602091839160449183916001600160a01b03165af1908115610e31575f9161108a575090565b5f602060018060a01b035f805160206114398339815191525416604460405180948193639cd07acb60e01b83528160048401528160248401525af1908115610e31575f9161108a57509056fe9e7b61f58c47dc699ac88507c4f5bb9f121c03808c5676a8078fe583e4649701a264697066735822122040fa979ee7f7106c4dbae74007feffeb74749b0a61532fbe989009a18ed5c12064736f6c634300081800339e7b61f58c47dc699ac88507c4f5bb9f121c03808c5676a8078fe583e46497019e7b61f58c47dc699ac88507c4f5bb9f121c03808c5676a8078fe583e4649701a2646970667358221220043129eff6887254ffc3a37bef3682931752c8745b315a2a90d7d4fef8c2c47164736f6c6343000818003360c034620002ab5762000d0590601f38839003908101601f19168201906001600160401b03821183831017620002af5780839160409586948552833981010312620002ab576200005d60206200005583620002e3565b9201620002e3565b9062000068620002f8565b5046600103620001b9576200007c620002f8565b5062000087620002c3565b73ca2e8f1f656cd25c01f05d0b243ab1ecd4a8ffb6815273d82385dada1ae3e969447f20a3164f6213100e7560208201527377627828a55156b04ac0dc0eb30467f1a552bb0384820152905b81517f9e7b61f58c47dc699ac88507c4f5bb9f121c03808c5676a8078fe583e464970080546001600160a01b03199081166001600160a01b039384161790915560208401517f9e7b61f58c47dc699ac88507c4f5bb9f121c03808c5676a8078fe583e464970180548316918416919091179055928501517f9e7b61f58c47dc699ac88507c4f5bb9f121c03808c5676a8078fe583e46497028054909416908216179092551660805260a052516109f090816200031582396080518181816101d30152818161046c01526105e7015260a05181818160930152818161012b01526103b60152f35b4662aa36a7036200022a57620001ce620002f8565b50620001d9620002c3565b73f0ffdc93b7e186bc2f8cb3daa75d86d1930a433d81527392c920834ec8941d2c77d188936e1f7a6f49c127602082015273be0e383937d564d7ff0bc3b46c51f0bf8d5c311a8482015290620000d3565b46617a69036200029a576200023e620002f8565b5062000249620002c3565b7350157cffd6bbfa2dece204a89ec419c23ef5755d815273e3a9105a3a932253a70f126eb1e3b589c643dd24602082015273901f8942346f7ab3a01f6d7613119bca447bb0308482015290620000d3565b82516373cac13b60e01b8152600490fd5b5f80fd5b634e487b7160e01b5f52604160045260245ffd5b60405190606082016001600160401b03811183821017620002af57604052565b51906001600160a01b0382168203620002ab57565b62000302620002c3565b905f82525f60208301525f604083015256fe6080604081815260049182361015610015575f80fd5b5f3560e01c9081631ee8aa1f146105d5575080632b0b4fa71461038a578063a357ce84146100c2578063c45a01551461007f5763d7b8c54314610056575f80fd5b3461007b57602036600319011261007b57602091355f525f8252805f20549051908152f35b5f80fd5b503461007b575f36600319011261007b57517f00000000000000000000000000000000000000000000000000000000000000006001600160a01b03168152602090f35b50903461007b57608036600319011261007b578035906100e0610616565b926044359060643567ffffffffffffffff9384821161007b573660238301121561007b578181013594851161007b576024820191602486369201011161007b576001600160a01b03917f00000000000000000000000000000000000000000000000000000000000000008316330361037b57601f19601f870116836020998a92875184820161016f9082610654565b8a81528a86868301375f818c01860152610189908a61068e565b998089519687958695634d04a1a960e11b8752169b8c8a8701523060248701526044860152606485016080905281608486015260a4850137820160a4015f905281010360a40181867f0000000000000000000000000000000000000000000000000000000000000000165a905f91f1801561037157610344575b50855f525f875286835f205486928115610334575b8715948561031c575b905f6064925f8051602061099b83398151915254168851968795869463022f65e760e31b865285015260248401528160448401525af1908115610312575f916102e5575b50855f525f875280835f205580156102d2575b61028390309061089c565b83906102bf575b61029590339061089c565b51927feaf380bbf80a28976076568b0dcbc66ae4815e1a6460e44d6e4c1c716ffbee915f80a38152f35b506102956102cb610918565b905061028a565b506102836102de610918565b9050610278565b90508681813d831161030b575b6102fc8183610654565b8101031261007b57515f610265565b503d6102f2565b83513d5f823e3d90fd5b93506064905f61032a610918565b9591925050610221565b905061033e610918565b90610218565b61036390883d8a1161036a575b61035b8183610654565b810190610676565b505f610203565b503d610351565b84513d5f823e3d90fd5b508251631966391b60e11b8152fd5b503461007b57606036600319011261007b578135906103a7610616565b90604435906001600160a01b037f0000000000000000000000000000000000000000000000000000000000000000811633036105c557845f526020935f8552825f20548481156105b5575b86861592836105a5575b60648b5f885f8051602061099b83398151915254168a5196879586946303056db360e31b865285015260248401528160448401525af190811561059b579087949392915f91610565575b50604492915f918a835282875280888420558015610552575b61046a90309061089c565b7f000000000000000000000000000000000000000000000000000000000000000085169088828261053e575b61049f9161089c565b83899161052a575b6104b09161089c565b86519788958694637d32e7bd60e01b865216809c85015260248401525af19081156105215750610503575b50507f4770fbbd7702cc701f57b09bfaaf10740fabb91e4c906ce6de1f8da8212e2a3f5f80a3005b8161051992903d1061036a5761035b8183610654565b505f806104db565b513d5f823e3d90fd5b6104b09150610537610918565b91506104a7565b61049f915061054b610918565b9150610496565b5061046a61055e610918565b905061045f565b85819692509392933d8311610594575b61057f8183610654565b8101031261007b579251869391906044610446565b503d610575565b85513d5f823e3d90fd5b91506105af610918565b916103fc565b90506105bf610918565b906103f2565b8151631966391b60e11b81528690fd5b3461007b575f36600319011261007b577f00000000000000000000000000000000000000000000000000000000000000006001600160a01b03168152602090f35b602435906001600160a01b038216820361007b57565b67ffffffffffffffff811161064057604052565b634e487b7160e01b5f52604160045260245ffd5b90601f8019910116810190811067ffffffffffffffff82111761064057604052565b9081602091031261007b5751801515810361007b5790565b8151909190156107e4575f8051602061099b8339815191525460405163045fc19560e11b81526004810193909352336024840152608060448401528151608484018190526001600160a01b0392918316918491905f5b8281106107cc57505091815f60a4828683836020998401015260056064830152601f801991011681010301925af191821561078d575f92610798575b507f9e7b61f58c47dc699ac88507c4f5bb9f121c03808c5676a8078fe583e46497005416803b1561007b57604051630f8e573b60e21b815260048101839052336024820152905f908290604490829084905af1801561078d57610781575090565b61078a9061062c565b90565b6040513d5f823e3d90fd5b9091506020813d6020116107c4575b816107b460209383610654565b8101031261007b5751905f610720565b3d91506107a7565b602082820181015160a48984010152879450016106e4565b508015610893577f9e7b61f58c47dc699ac88507c4f5bb9f121c03808c5676a8078fe583e4649700546040516382027b6d60e01b81526004810183905233602482015290602090829060449082906001600160a01b03165afa90811561078d575f91610874575b50156108545790565b604051630276b5d960e01b81526004810191909152336024820152604490fd5b61088d915060203d60201161036a5761035b8183610654565b5f61084b565b5061078a610918565b7f9e7b61f58c47dc699ac88507c4f5bb9f121c03808c5676a8078fe583e4649700546001600160a01b031691823b1561007b57604051635ca4b5b160e11b815260048101929092526001600160a01b03166024820152905f908290604490829084905af1801561078d5761090d5750565b6109169061062c565b565b5f8051602061099b83398151915254604051639cd07acb60e01b81525f60048201819052600560248301529091602091839160449183916001600160a01b03165af190811561078d575f9161096b575090565b90506020813d602011610992575b8161098660209383610654565b8101031261007b575190565b3d915061097956fe9e7b61f58c47dc699ac88507c4f5bb9f121c03808c5676a8078fe583e4649701a26469706673582212209f09023966de43e95375b1963edf6735a07e4072836e55320413256c4388bda464736f6c63430008180033","linkReferences":{}},"methodIdentifiers":{"SCALE()":"eced5526","authorizeBridge(uint256,uint64)":"7b1760d4","bridge()":"e78cea92","cWETH()":"1ee8aa1f","createPool(uint256,uint64,bool,address,uint64)":"33d06b2b","createSeries(uint256,uint64)":"39a2540b","getPool(uint256,uint64,bool)":"8d4e5c37","getTokens(uint256,uint64)":"c4c244a2","isSettled(uint256,uint64)":"faaa551e","matchingEngine()":"1c0edff2","merge(uint256,uint64,bytes32)":"5cd9a81f","oracle()":"7dc0d1d0","poolImplementation()":"cefa7799","pools(bytes32,bool)":"7d26647d","redeem(uint256,uint64)":"1c706885","series(bytes32)":"f5de118e","seriesId(uint256,uint64)":"d9e829e8","setBridge(address)":"8dd14802","setMatchingEngine(address)":"caa57466","setPoolImplementation(address)":"d6f74898","settle(uint256,uint64,uint256)":"99323f5d","split(uint256,uint64,bytes32,bytes)":"b309b63a","vault()":"fbfa77cf"},"id":40}