{"abi":[{"type":"function","name":"MAX_SELLERS","inputs":[],"outputs":[{"name":"","type":"uint256","internalType":"uint256"}],"stateMutability":"view"},{"type":"function","name":"SCALE","inputs":[],"outputs":[{"name":"","type":"uint64","internalType":"uint64"}],"stateMutability":"view"},{"type":"function","name":"deposit","inputs":[{"name":"encAmount","type":"bytes32","internalType":"externalEuint64"},{"name":"proof","type":"bytes","internalType":"bytes"}],"outputs":[],"stateMutability":"nonpayable"},{"type":"function","name":"encAccumulatedQuote","inputs":[{"name":"","type":"address","internalType":"address"}],"outputs":[{"name":"","type":"bytes32","internalType":"euint64"}],"stateMutability":"view"},{"type":"function","name":"encPoolBalance","inputs":[],"outputs":[{"name":"","type":"bytes32","internalType":"euint64"}],"stateMutability":"view"},{"type":"function","name":"encShares","inputs":[{"name":"","type":"address","internalType":"address"}],"outputs":[{"name":"","type":"bytes32","internalType":"euint64"}],"stateMutability":"view"},{"type":"function","name":"factory","inputs":[],"outputs":[{"name":"","type":"address","internalType":"address"}],"stateMutability":"view"},{"type":"function","name":"fill","inputs":[{"name":"encPayment","type":"bytes32","internalType":"externalEuint64"},{"name":"encExpected","type":"bytes32","internalType":"externalEuint64"},{"name":"paymentProof","type":"bytes","internalType":"bytes"},{"name":"expectedProof","type":"bytes","internalType":"bytes"}],"outputs":[],"stateMutability":"nonpayable"},{"type":"function","name":"hasSeller","inputs":[{"name":"","type":"address","internalType":"address"}],"outputs":[{"name":"","type":"bool","internalType":"bool"}],"stateMutability":"view"},{"type":"function","name":"initialize","inputs":[{"name":"optionToken_","type":"address","internalType":"address"},{"name":"quoteToken_","type":"address","internalType":"address"},{"name":"strike_","type":"uint256","internalType":"uint256"},{"name":"maturity_","type":"uint64","internalType":"uint64"},{"name":"minPricePerToken_","type":"uint64","internalType":"uint64"},{"name":"factory_","type":"address","internalType":"address"}],"outputs":[],"stateMutability":"nonpayable"},{"type":"function","name":"initialized","inputs":[],"outputs":[{"name":"","type":"bool","internalType":"bool"}],"stateMutability":"view"},{"type":"function","name":"maturity","inputs":[],"outputs":[{"name":"","type":"uint64","internalType":"uint64"}],"stateMutability":"view"},{"type":"function","name":"minPricePerToken","inputs":[],"outputs":[{"name":"","type":"uint64","internalType":"uint64"}],"stateMutability":"view"},{"type":"function","name":"optionToken","inputs":[],"outputs":[{"name":"","type":"address","internalType":"contract OptionToken"}],"stateMutability":"view"},{"type":"function","name":"quoteToken","inputs":[],"outputs":[{"name":"","type":"address","internalType":"contract IConfidentialQuoteToken"}],"stateMutability":"view"},{"type":"function","name":"sellerCount","inputs":[],"outputs":[{"name":"","type":"uint256","internalType":"uint256"}],"stateMutability":"view"},{"type":"function","name":"sellers","inputs":[{"name":"","type":"uint256","internalType":"uint256"}],"outputs":[{"name":"","type":"address","internalType":"address"}],"stateMutability":"view"},{"type":"function","name":"strike","inputs":[],"outputs":[{"name":"","type":"uint256","internalType":"uint256"}],"stateMutability":"view"},{"type":"function","name":"withdraw","inputs":[],"outputs":[],"stateMutability":"nonpayable"},{"type":"event","name":"Deposited","inputs":[{"name":"seller","type":"address","indexed":true,"internalType":"address"}],"anonymous":false},{"type":"event","name":"Filled","inputs":[{"name":"buyer","type":"address","indexed":true,"internalType":"address"}],"anonymous":false},{"type":"event","name":"Withdrawn","inputs":[{"name":"seller","type":"address","indexed":true,"internalType":"address"}],"anonymous":false},{"type":"error","name":"AlreadyInitialized","inputs":[]},{"type":"error","name":"AlreadyMatured","inputs":[]},{"type":"error","name":"NotFactory","inputs":[]},{"type":"error","name":"NotYetMatured","inputs":[]},{"type":"error","name":"PoolFull","inputs":[]},{"type":"error","name":"SenderNotAllowedToUseHandle","inputs":[{"name":"handle","type":"bytes32","internalType":"bytes32"},{"name":"sender","type":"address","internalType":"address"}]}],"bytecode":{"object":"0x608080604052346100165761185e908161001b8239f35b5f80fdfe6080604081815260049182361015610015575f80fd5b5f925f3560e01c918263158ef93e14610ee257508163204f83f914610eba578163217a4b7014610e925781632aa494db14610e5b5781632bab754b14610e34578163354b7d5414610e195781633ccfd60b14610bcf5781633e94cb7214610b9757816359fa9b1f14610b78578163ad8f500814610b59578163b7b6199c14610b3a578163be6b79da14610b10578163c45a015514610ae8578163cee26ed514610aa4578163df497ef214610556578163e26420c014610427578163e29973fc1461015057508063eced5526146101335763fd58e96d146100f3575f80fd5b3461012f57602036600319011261012f5760209160ff9082906001600160a01b0361011c610f02565b168152600a855220541690519015158152f35b5080fd5b503461012f578160031936011261012f5760209051620f42408152f35b9050346102f757816003193601126102f75767ffffffffffffffff91602435838111610423576101839036908401610f61565b9360035416421015610415578490338252602094600a865260ff8484205416156102fb575b6101be916101b7913691610ff1565b84356110f5565b81549093906001600160a01b0316803b156102f757835163577706e160e01b81523392810192835260208301869052918391839182908490829060400103925af180156102ed576102d5575b505061025e92600891338652828252610226848288205461160f565b9283923388525285205580801591826102c2575b61024590309061178c565b906102af575b61025690339061178c565b60055461160f565b80600555801561029c575b61027490309061178c565b337f20a3fe276908af20d1fa2f8f48225ac6a1997eb2d38695c580adeb4124a1a59b8280a280f35b506102746102a8611693565b9050610269565b506102566102bb611693565b905061024b565b506102456102ce611693565b905061023a565b6102de90610f8f565b6102e957835f61020a565b8380fd5b83513d84823e3d90fd5b8280fd5b909150600754603281101561040557680100000000000000008110156103f25786926101be926103348360016101b79501600755610f18565b81546001600160a01b0360039290921b91821b1916339182901b179091558552600a8852858520805460ff1916600117905561036e611693565b3386526008895286862055610381611693565b3386526009895286862055600888528585205480156103df575b6103a690309061178c565b338552600988528585205480156103cc575b6103c390309061178c565b915091506101a8565b506103c36103d8611693565b90506103b8565b506103a66103eb611693565b905061039b565b634e487b7160e01b875260418552602487fd5b505050516327a01e0760e21b8152fd5b50516305a29e1160e51b8152fd5b8480fd5b919050346102f75760c03660031901126102f757610443610f02565b6001600160a01b039160243583811690819003610552576064359067ffffffffffffffff908183168093036105525760843591821682036105525760a435948686168096036105525787549660ff8860a01c1661054357906fffffffffffffffff00000000000000009392916bffffffffffffffffffffffff60a01b9116818b5416178a556001541617600155604435600255600354931b16916fffffffffffffffffffffffffffffffff19161717600355600160a01b916affffffffffffffffffffff60a81b1617179055610517611693565b806005558015610530575b61052d90309061178c565b80f35b5061052d61053c611693565b9050610522565b855162dc149f60e41b81528990fd5b5f80fd5b9050346102f75760803660031901126102f75780359167ffffffffffffffff90604435828111610aa05761058d9036908501610f61565b929093606435828111610a9c576105a79036908301610f61565b9190946003958460035416421015610a8c57906105eb6105e38b97969594936105db6105d58c863691610ff1565b8d6110f5565b953691610ff1565b6024356110f5565b908060018060a01b039960019b8b600154169089519a8b9586948593634d04a1a960e11b8552338b86015230602486015260448501526080606485015281608485015260a48401378060a4868401015260a460209c8d96601f801991011681010301925af18015610a8257610a65575b5061067c61067761067186600354891c166116e6565b836112f8565b61137c565b928a8761068986846113f6565b610695856005546113f6565b908015610a56575b8115610a41575b6064908d5f805160206118098339815191525416948b51958694859363d99882d560e01b85528b850152602484015260ff60f81b821660448401525af1908115610a37578c91610a08575b506107249061071561070661072a9560055461147a565b61070e611693565b90836114fe565b9561071e611693565b916114fe565b90611037565b9061073783600554611037565b8060055580156109f5575b61074d90309061178c565b8283156109e2575b61076090339061178c565b8988815416803b1561012f57865163b88baa8d60e01b815230848201908152336020820152604081018790529091839183919082908490829060600103925af180156109d85790889392916109bb575b5050916107fd928182156109a8575b6107ca90339061178c565b6001548751637d32e7bd60e01b8152339281019283526020830193909352919384928b169183918e918391604090910190565b03925af1801561099e57610971575b509360075495885b8781106108445789337f165a4c09b8f9b447ff3e85c37a38fb6ce8b4f5251f471c4abb77bb4c24c207008280a280f35b808a836108518c94610f18565b905490871b1c168082526008998a8a5261086e898420548261147a565b809b838552808c52610883828c872054611037565b908486528c52808b86205583818015928361095e575b6108a490309061178c565b9161094a575b6108b39161178c565b6108bc91611037565b998787548a1c166108cc906116e6565b6108d5916112f8565b6108de9061137c565b81835288600991828c5281852054906108f69161160f565b9384928482528c522055818015906109239382610937575b61091990309061178c565b906109295761178c565b01610814565b50610932611693565b61178c565b50610919610943611693565b905061090e565b6108b39150610957611693565b91506108aa565b506108a461096a611693565b9050610899565b61099090853d8711610997575b6109888183610fb7565b810190610fd9565b505f61080c565b503d61097e565b84513d8b823e3d90fd5b506107ca6109b4611693565b90506107bf565b6109c791929350610f8f565b6109d45785908a5f6107b0565b8980fd5b87513d84823e3d90fd5b506107606109ee611693565b9050610755565b5061074d610a01611693565b9050610742565b90508781813d8311610a30575b610a1f8183610fb7565b81010312610552575161072a6106ef565b503d610a15565b87513d8e823e3d90fd5b90506064610a4e84611739565b9190506106a4565b50610a6083611739565b61069d565b610a7b90873d8911610997576109888183610fb7565b505f61065b565b86513d8d823e3d90fd5b85516305a29e1160e51b81528390fd5b8780fd5b8580fd5b9050346102f75760203660031901126102f7573591600754831015610ae55750610acf602092610f18565b905491519160018060a01b039160031b1c168152f35b80fd5b9050346102f757826003193601126102f7575490516001600160a01b03909116815260209150f35b50503461012f578160031936011261012f576003548151911c67ffffffffffffffff168152602090f35b50503461012f578160031936011261012f576020906005549051908152f35b50503461012f578160031936011261012f576020906002549051908152f35b50503461012f578160031936011261012f576020906007549051908152f35b50503461012f57602036600319011261012f5760209181906001600160a01b03610bbf610f02565b1681526008845220549051908152f35b91905034610552575f36600319011261055257335f5260209160088352815f20549060098452825f205491610c02611693565b335f5260088652845f2055610c15611693565b335f5260098652845f205560088552835f20548015610e06575b610c3a90309061178c565b335f5260098552835f20548015610df3575b610c5790309061178c565b610c6381600554611037565b806005558015610de0575b610c7990309061178c565b808115610dcd575b610c8c90339061178c565b5f546001600160a01b0391908216803b1561055257855163b88baa8d60e01b8152308582019081523360208201526040810193909352915f91839182908490829060600103925af18015610dc357610da4575b50918491610d309493828315610d91575b610cfb90339061178c565b6001548551637d32e7bd60e01b8152339381019384526020840194909452929586939190911691839189918391604090910190565b03925af1908115610d885750610d6a575b82337ff45a04d08a70caa7eb4b747571305559ad9fdf4a093afd41506b35c8a306fa948280a280f35b81610d8092903d10610997576109888183610fb7565b505f80610d41565b513d85823e3d90fd5b50610cfb610d9d611693565b9050610cf0565b610d30949391965091610db78693610f8f565b5f969193945091610cdf565b85513d5f823e3d90fd5b50610c8c610dd9611693565b9050610c81565b50610c79610dec611693565b9050610c6e565b50610c57610dff611693565b9050610c4c565b50610c3a610e12611693565b9050610c2f565b8234610552575f366003190112610552576020905160328152f35b8234610552575f366003190112610552575f5490516001600160a01b039091168152602090f35b8234610552576020366003190112610552576020906001600160a01b03610e80610f02565b165f5260098252805f20549051908152f35b8234610552575f3660031901126105525760015490516001600160a01b039091168152602090f35b8234610552575f3660031901126105525760209067ffffffffffffffff600354169051908152f35b34610552575f3660031901126105525760ff6020925460a01c1615158152f35b600435906001600160a01b038216820361055257565b600754811015610f4d5760075f527fa66cc928b5edb82af9bd49922954155ab7b0942694bea4ce44661d9a8736c68801905f90565b634e487b7160e01b5f52603260045260245ffd5b9181601f840112156105525782359167ffffffffffffffff8311610552576020838186019501011161055257565b67ffffffffffffffff8111610fa357604052565b634e487b7160e01b5f52604160045260245ffd5b90601f8019910116810190811067ffffffffffffffff821117610fa357604052565b90816020910312610552575180151581036105525790565b92919267ffffffffffffffff8211610fa3576040519161101b601f8201601f191660200184610fb7565b829481845281830111610552578281602093845f960137010152565b9081156110e5575b80156110d3575b602090606460018060a01b035f805160206118098339815191525416935f60405195869485936303056db360e31b8552600485015260248401528160448401525af19081156110c8575f91611099575090565b90506020813d6020116110c0575b816110b460209383610fb7565b81010312610552575190565b3d91506110a7565b6040513d5f823e3d90fd5b5060206110de611693565b9050611046565b90506110ef611693565b9061103f565b815190919015611240575f805160206118098339815191525460405163045fc19560e11b81526004810193909352336024840152608060448401528151608484018190526001600160a01b0392918316918491905f5b82811061122857505091815f60a4828683836020998401015260056064830152601f801991011681010301925af19182156110c8575f926111f4575b507f9e7b61f58c47dc699ac88507c4f5bb9f121c03808c5676a8078fe583e46497005416803b1561055257604051630f8e573b60e21b815260048101839052336024820152905f908290604490829084905af180156110c8576111e8575090565b6111f190610f8f565b90565b9091506020813d602011611220575b8161121060209383610fb7565b810103126105525751905f611187565b3d9150611203565b602082820181015160a489840101528794500161114b565b5080156112ef577f9e7b61f58c47dc699ac88507c4f5bb9f121c03808c5676a8078fe583e4649700546040516382027b6d60e01b81526004810183905233602482015290602090829060449082906001600160a01b03165afa9081156110c8575f916112d0575b50156112b05790565b604051630276b5d960e01b81526004810191909152336024820152604490fd5b6112e9915060203d602011610997576109888183610fb7565b5f6112a7565b506111f1611693565b90811561136c575b801561135a575b602090606460018060a01b035f805160206118098339815191525416935f6040519586948593630afe14ad60e31b8552600485015260248401528160448401525af19081156110c8575f91611099575090565b506020611365611693565b9050611307565b9050611376611693565b90611300565b80156113e2575b5f8051602061180983398151915254604051635a53accb60e01b81526004810192909252620f42406024830152600160f81b6044830152602090829060649082905f906001600160a01b03165af19081156110c8575f91611099575090565b505f60206113ee611693565b915050611383565b90811561146a575b8015611458575b602090606460018060a01b035f805160206118098339815191525416935f6040519586948593631391547f60e01b8552600485015260248401528160448401525af19081156110c8575f91611099575090565b506020611463611693565b9050611405565b9050611474611693565b906113fe565b9081156114ee575b80156114dc575b602090606460018060a01b035f805160206118098339815191525416935f60405195869485936304559f7160e01b8552600485015260248401528160448401525af19081156110c8575f91611099575090565b5060206114e7611693565b9050611489565b90506114f8611693565b90611482565b9190821561158b575b801561157d575b8115611567575b6064602092935f60018060a01b035f8051602061180983398151915254166040519687958694637702dcff60e01b86526004860152602485015260448401525af19081156110c8575f91611099575090565b602091506064611575611693565b925050611515565b50611586611693565b61150e565b91505f602060018060a01b035f805160206118098339815191525416604460405180948193639cd07acb60e01b83528160048401528160248401525af19081156110c8575f916115dd575b5091611507565b90506020813d602011611607575b816115f860209383610fb7565b8101031261055257515f6115d6565b3d91506115eb565b908115611683575b8015611671575b602090606460018060a01b035f805160206118098339815191525416935f604051958694859363022f65e760e31b8552600485015260248401528160448401525af19081156110c8575f91611099575090565b50602061167c611693565b905061161e565b905061168d611693565b90611617565b5f8051602061180983398151915254604051639cd07acb60e01b81525f60048201819052600560248301529091602091839160449183916001600160a01b03165af19081156110c8575f91611099575090565b5f8051602061180983398151915254604051639cd07acb60e01b8152600481019290925260056024830152602090829060449082905f906001600160a01b03165af19081156110c8575f91611099575090565b5f8051602061180983398151915254604051639cd07acb60e01b815260048101929092525f6024830181905260209183916044918391906001600160a01b03165af19081156110c8575f91611099575090565b7f9e7b61f58c47dc699ac88507c4f5bb9f121c03808c5676a8078fe583e4649700546001600160a01b031691823b1561055257604051635ca4b5b160e11b815260048101929092526001600160a01b03166024820152905f908290604490829084905af180156110c8576117fd5750565b61180690610f8f565b56fe9e7b61f58c47dc699ac88507c4f5bb9f121c03808c5676a8078fe583e4649701a2646970667358221220aea829e91705520436ded8cdf10167006f6cce407153d93a3a77a0a06605222b64736f6c63430008180033","linkReferences":{}},"methodIdentifiers":{"MAX_SELLERS()":"354b7d54","SCALE()":"eced5526","deposit(bytes32,bytes)":"e29973fc","encAccumulatedQuote(address)":"2aa494db","encPoolBalance()":"b7b6199c","encShares(address)":"3e94cb72","factory()":"c45a0155","fill(bytes32,bytes32,bytes,bytes)":"df497ef2","hasSeller(address)":"fd58e96d","initialize(address,address,uint256,uint64,uint64,address)":"e26420c0","initialized()":"158ef93e","maturity()":"204f83f9","minPricePerToken()":"be6b79da","optionToken()":"2bab754b","quoteToken()":"217a4b70","sellerCount()":"59fa9b1f","sellers(uint256)":"cee26ed5","strike()":"ad8f5008","withdraw()":"3ccfd60b"},"id":21}