{"abi":[{"type":"function","name":"MAX_SELLERS","inputs":[],"outputs":[{"name":"","type":"uint256","internalType":"uint256"}],"stateMutability":"view"},{"type":"function","name":"SCALE","inputs":[],"outputs":[{"name":"","type":"uint64","internalType":"uint64"}],"stateMutability":"view"},{"type":"function","name":"deposit","inputs":[{"name":"encAmount","type":"bytes32","internalType":"externalEuint64"},{"name":"proof","type":"bytes","internalType":"bytes"}],"outputs":[],"stateMutability":"nonpayable"},{"type":"function","name":"encAccumulatedQuote","inputs":[{"name":"","type":"address","internalType":"address"}],"outputs":[{"name":"","type":"bytes32","internalType":"euint64"}],"stateMutability":"view"},{"type":"function","name":"encPoolBalance","inputs":[],"outputs":[{"name":"","type":"bytes32","internalType":"euint64"}],"stateMutability":"view"},{"type":"function","name":"encShares","inputs":[{"name":"","type":"address","internalType":"address"}],"outputs":[{"name":"","type":"bytes32","internalType":"euint64"}],"stateMutability":"view"},{"type":"function","name":"factory","inputs":[],"outputs":[{"name":"","type":"address","internalType":"address"}],"stateMutability":"view"},{"type":"function","name":"fill","inputs":[{"name":"encPayment","type":"bytes32","internalType":"externalEuint64"},{"name":"encExpected","type":"bytes32","internalType":"externalEuint64"},{"name":"paymentProof","type":"bytes","internalType":"bytes"},{"name":"expectedProof","type":"bytes","internalType":"bytes"}],"outputs":[],"stateMutability":"nonpayable"},{"type":"function","name":"hasSeller","inputs":[{"name":"","type":"address","internalType":"address"}],"outputs":[{"name":"","type":"bool","internalType":"bool"}],"stateMutability":"view"},{"type":"function","name":"initialize","inputs":[{"name":"optionToken_","type":"address","internalType":"address"},{"name":"quoteToken_","type":"address","internalType":"address"},{"name":"strike_","type":"uint256","internalType":"uint256"},{"name":"maturity_","type":"uint64","internalType":"uint64"},{"name":"minPricePerToken_","type":"uint64","internalType":"uint64"},{"name":"factory_","type":"address","internalType":"address"}],"outputs":[],"stateMutability":"nonpayable"},{"type":"function","name":"initialized","inputs":[],"outputs":[{"name":"","type":"bool","internalType":"bool"}],"stateMutability":"view"},{"type":"function","name":"maturity","inputs":[],"outputs":[{"name":"","type":"uint64","internalType":"uint64"}],"stateMutability":"view"},{"type":"function","name":"minPricePerToken","inputs":[],"outputs":[{"name":"","type":"uint64","internalType":"uint64"}],"stateMutability":"view"},{"type":"function","name":"optionToken","inputs":[],"outputs":[{"name":"","type":"address","internalType":"contract OptionToken"}],"stateMutability":"view"},{"type":"function","name":"quoteToken","inputs":[],"outputs":[{"name":"","type":"address","internalType":"contract IConfidentialQuoteToken"}],"stateMutability":"view"},{"type":"function","name":"sellerCount","inputs":[],"outputs":[{"name":"","type":"uint256","internalType":"uint256"}],"stateMutability":"view"},{"type":"function","name":"sellers","inputs":[{"name":"","type":"uint256","internalType":"uint256"}],"outputs":[{"name":"","type":"address","internalType":"address"}],"stateMutability":"view"},{"type":"function","name":"strike","inputs":[],"outputs":[{"name":"","type":"uint256","internalType":"uint256"}],"stateMutability":"view"},{"type":"function","name":"withdraw","inputs":[],"outputs":[],"stateMutability":"nonpayable"},{"type":"event","name":"Deposited","inputs":[{"name":"seller","type":"address","indexed":true,"internalType":"address"}],"anonymous":false},{"type":"event","name":"Filled","inputs":[{"name":"buyer","type":"address","indexed":true,"internalType":"address"}],"anonymous":false},{"type":"event","name":"Withdrawn","inputs":[{"name":"seller","type":"address","indexed":true,"internalType":"address"}],"anonymous":false},{"type":"error","name":"AlreadyInitialized","inputs":[]},{"type":"error","name":"AlreadyMatured","inputs":[]},{"type":"error","name":"NotFactory","inputs":[]},{"type":"error","name":"NotYetMatured","inputs":[]},{"type":"error","name":"PoolFull","inputs":[]},{"type":"error","name":"SenderNotAllowedToUseHandle","inputs":[{"name":"handle","type":"bytes32","internalType":"bytes32"},{"name":"sender","type":"address","internalType":"address"}]},{"type":"error","name":"ZamaProtocolUnsupported","inputs":[]}],"bytecode":{"object":"0x6080806040523461001657611a5c908161001b8239f35b5f80fdfe6080604081815260049182361015610015575f80fd5b5f925f3560e01c918263158ef93e146110bf57508163204f83f914611097578163217a4b701461106f5781632aa494db146110385781632bab754b14611011578163354b7d5414610ff65781633ccfd60b14610dac5781633e94cb7214610d7457816359fa9b1f14610d55578163ad8f500814610d36578163b7b6199c14610d17578163be6b79da14610ced578163c45a015514610cc5578163cee26ed514610c81578163df497ef214610733578163e26420c014610427578163e29973fc1461015057508063eced5526146101335763fd58e96d146100f3575f80fd5b3461012f57602036600319011261012f5760209160ff9082906001600160a01b0361011c6110df565b168152600a855220541690519015158152f35b5080fd5b503461012f578160031936011261012f5760209051620f42408152f35b9050346102f757816003193601126102f75767ffffffffffffffff9160243583811161042357610183903690840161113e565b9360035416421015610415578490338252602094600a865260ff8484205416156102fb575b6101be916101b79136916111ea565b84356112ee565b81549093906001600160a01b0316803b156102f757835163577706e160e01b81523392810192835260208301869052918391839182908490829060400103925af180156102ed576102d5575b505061025e926008913386528282526102268482882054611800565b9283923388525285205580801591826102c2575b61024590309061197d565b906102af575b61025690339061197d565b600554611800565b80600555801561029c575b61027490309061197d565b337f20a3fe276908af20d1fa2f8f48225ac6a1997eb2d38695c580adeb4124a1a59b8280a280f35b506102746102a8611884565b9050610269565b506102566102bb611884565b905061024b565b506102456102ce611884565b905061023a565b6102de9061116c565b6102e957835f61020a565b8380fd5b83513d84823e3d90fd5b8280fd5b909150600754603281101561040557680100000000000000008110156103f25786926101be926103348360016101b795016007556110f5565b81546001600160a01b0360039290921b91821b1916339182901b179091558552600a8852858520805460ff1916600117905561036e611884565b3386526008895286862055610381611884565b3386526009895286862055600888528585205480156103df575b6103a690309061197d565b338552600988528585205480156103cc575b6103c390309061197d565b915091506101a8565b506103c36103d8611884565b90506103b8565b506103a66103eb611884565b905061039b565b634e487b7160e01b875260418552602487fd5b505050516327a01e0760e21b8152fd5b50516305a29e1160e51b8152fd5b8480fd5b919050346102f75760c03660031901126102f7576104436110df565b6001600160a01b03916024358381169081900361072f576064359067ffffffffffffffff9081831680930361072f57608435918216820361072f5760a4359486861680960361072f5787549660ff8860a01c16610720576104a26117e2565b5046600103610615579067ffffffffffffffff60401b9392916104c36117e2565b5086516104cf81611194565b73ca2e8f1f656cd25c01f05d0b243ab1ecd4a8ffb6815273d82385dada1ae3e969447f20a3164f6213100e7560208201527377627828a55156b04ac0dc0eb30467f1a552bb0388820152915b818881855116946bffffffffffffffffffffffff60a01b955f80516020611a078339815191529087825416179055826020820151165f805160206119e783398151915290878254161790550151167f9e7b61f58c47dc699ac88507c4f5bb9f121c03808c5676a8078fe583e4649702908482541617905516818b5416178a556001541617600155604435600255600354931b16916fffffffffffffffffffffffffffffffff19161717600355600160a01b916affffffffffffffffffffff60a81b16171790556105e9611884565b806005558015610602575b6105ff90309061197d565b80f35b506105ff61060e611884565b90506105f4565b4662aa36a703610693579067ffffffffffffffff60401b9392916106376117e2565b50865161064381611194565b73f0ffdc93b7e186bc2f8cb3daa75d86d1930a433d81527392c920834ec8941d2c77d188936e1f7a6f49c127602082015273be0e383937d564d7ff0bc3b46c51f0bf8d5c311a888201529161051b565b46617a6903610710579067ffffffffffffffff60401b9392916106b46117e2565b5086516106c081611194565b7350157cffd6bbfa2dece204a89ec419c23ef5755d815273e3a9105a3a932253a70f126eb1e3b589c643dd24602082015273901f8942346f7ab3a01f6d7613119bca447bb030888201529161051b565b85516373cac13b60e01b81528990fd5b855162dc149f60e41b81528990fd5b5f80fd5b9050346102f75760803660031901126102f75780359167ffffffffffffffff90604435828111610c7d5761076a903690850161113e565b929093606435828111610c7957610784903690830161113e565b9190946003958460035416421015610c6957906107c86107c08b97969594936107b86107b28c8636916111ea565b8d6112ee565b9536916111ea565b6024356112ee565b908060018060a01b039960019b8b600154169089519a8b9586948593634d04a1a960e11b8552338b86015230602486015260448501526080606485015281608485015260a48401378060a4868401015260a460209c8d96601f801991011681010301925af18015610c5f57610c42575b5061085961085461084e86600354891c166118d7565b836114cb565b61154f565b928a8761086686846115c9565b610872856005546115c9565b908015610c33575b8115610c1e575b6064908d5f805160206119e78339815191525416948b51958694859363d99882d560e01b85528b850152602484015260ff60f81b821660448401525af1908115610c14578c91610be5575b50610901906108f26108e36109079560055461164d565b6108eb611884565b90836116d1565b956108fb611884565b916116d1565b90611230565b9061091483600554611230565b806005558015610bd2575b61092a90309061197d565b828315610bbf575b61093d90339061197d565b8988815416803b1561012f57865163b88baa8d60e01b815230848201908152336020820152604081018790529091839183919082908490829060600103925af18015610bb5579088939291610b98575b5050916109da92818215610b85575b6109a790339061197d565b6001548751637d32e7bd60e01b8152339281019283526020830193909352919384928b169183918e918391604090910190565b03925af18015610b7b57610b4e575b509360075495885b878110610a215789337f165a4c09b8f9b447ff3e85c37a38fb6ce8b4f5251f471c4abb77bb4c24c207008280a280f35b808a83610a2e8c946110f5565b905490871b1c168082526008998a8a52610a4b898420548261164d565b809b838552808c52610a60828c872054611230565b908486528c52808b862055838180159283610b3b575b610a8190309061197d565b91610b27575b610a909161197d565b610a9991611230565b998787548a1c16610aa9906118d7565b610ab2916114cb565b610abb9061154f565b81835288600991828c528185205490610ad391611800565b9384928482528c52205581801590610b009382610b14575b610af690309061197d565b90610b065761197d565b016109f1565b50610b0f611884565b61197d565b50610af6610b20611884565b9050610aeb565b610a909150610b34611884565b9150610a87565b50610a81610b47611884565b9050610a76565b610b6d90853d8711610b74575b610b6581836111b0565b8101906111d2565b505f6109e9565b503d610b5b565b84513d8b823e3d90fd5b506109a7610b91611884565b905061099c565b610ba49192935061116c565b610bb15785908a5f61098d565b8980fd5b87513d84823e3d90fd5b5061093d610bcb611884565b9050610932565b5061092a610bde611884565b905061091f565b90508781813d8311610c0d575b610bfc81836111b0565b8101031261072f57516109076108cc565b503d610bf2565b87513d8e823e3d90fd5b90506064610c2b8461192a565b919050610881565b50610c3d8361192a565b61087a565b610c5890873d8911610b7457610b6581836111b0565b505f610838565b86513d8d823e3d90fd5b85516305a29e1160e51b81528390fd5b8780fd5b8580fd5b9050346102f75760203660031901126102f7573591600754831015610cc25750610cac6020926110f5565b905491519160018060a01b039160031b1c168152f35b80fd5b9050346102f757826003193601126102f7575490516001600160a01b03909116815260209150f35b50503461012f578160031936011261012f576003548151911c67ffffffffffffffff168152602090f35b50503461012f578160031936011261012f576020906005549051908152f35b50503461012f578160031936011261012f576020906002549051908152f35b50503461012f578160031936011261012f576020906007549051908152f35b50503461012f57602036600319011261012f5760209181906001600160a01b03610d9c6110df565b1681526008845220549051908152f35b9190503461072f575f36600319011261072f57335f5260209160088352815f20549060098452825f205491610ddf611884565b335f5260088652845f2055610df2611884565b335f5260098652845f205560088552835f20548015610fe3575b610e1790309061197d565b335f5260098552835f20548015610fd0575b610e3490309061197d565b610e4081600554611230565b806005558015610fbd575b610e5690309061197d565b808115610faa575b610e6990339061197d565b5f546001600160a01b0391908216803b1561072f57855163b88baa8d60e01b8152308582019081523360208201526040810193909352915f91839182908490829060600103925af18015610fa057610f81575b50918491610f0d9493828315610f6e575b610ed890339061197d565b6001548551637d32e7bd60e01b8152339381019384526020840194909452929586939190911691839189918391604090910190565b03925af1908115610f655750610f47575b82337ff45a04d08a70caa7eb4b747571305559ad9fdf4a093afd41506b35c8a306fa948280a280f35b81610f5d92903d10610b7457610b6581836111b0565b505f80610f1e565b513d85823e3d90fd5b50610ed8610f7a611884565b9050610ecd565b610f0d949391965091610f94869361116c565b5f969193945091610ebc565b85513d5f823e3d90fd5b50610e69610fb6611884565b9050610e5e565b50610e56610fc9611884565b9050610e4b565b50610e34610fdc611884565b9050610e29565b50610e17610fef611884565b9050610e0c565b823461072f575f36600319011261072f576020905160328152f35b823461072f575f36600319011261072f575f5490516001600160a01b039091168152602090f35b823461072f57602036600319011261072f576020906001600160a01b0361105d6110df565b165f5260098252805f20549051908152f35b823461072f575f36600319011261072f5760015490516001600160a01b039091168152602090f35b823461072f575f36600319011261072f5760209067ffffffffffffffff600354169051908152f35b3461072f575f36600319011261072f5760ff6020925460a01c1615158152f35b600435906001600160a01b038216820361072f57565b60075481101561112a5760075f527fa66cc928b5edb82af9bd49922954155ab7b0942694bea4ce44661d9a8736c68801905f90565b634e487b7160e01b5f52603260045260245ffd5b9181601f8401121561072f5782359167ffffffffffffffff831161072f576020838186019501011161072f57565b67ffffffffffffffff811161118057604052565b634e487b7160e01b5f52604160045260245ffd5b6060810190811067ffffffffffffffff82111761118057604052565b90601f8019910116810190811067ffffffffffffffff82111761118057604052565b9081602091031261072f5751801515810361072f5790565b92919267ffffffffffffffff82116111805760405191611214601f8201601f1916602001846111b0565b82948184528183011161072f578281602093845f960137010152565b9081156112de575b80156112cc575b602090606460018060a01b035f805160206119e78339815191525416935f60405195869485936303056db360e31b8552600485015260248401528160448401525af19081156112c1575f91611292575090565b90506020813d6020116112b9575b816112ad602093836111b0565b8101031261072f575190565b3d91506112a0565b6040513d5f823e3d90fd5b5060206112d7611884565b905061123f565b90506112e8611884565b90611238565b815190919015611426575f805160206119e78339815191525460405163045fc19560e11b81526004810193909352336024840152608060448401528151608484018190526001600160a01b0392918316918491905f5b82811061140e57505091815f60a4828683836020998401015260056064830152601f801991011681010301925af19182156112c1575f926113da575b505f80516020611a078339815191525416803b1561072f57604051630f8e573b60e21b815260048101839052336024820152905f908290604490829084905af180156112c1576113ce575090565b6113d79061116c565b90565b9091506020813d602011611406575b816113f6602093836111b0565b8101031261072f5751905f611380565b3d91506113e9565b602082820181015160a4898401015287945001611344565b5080156114c2575f80516020611a07833981519152546040516382027b6d60e01b81526004810183905233602482015290602090829060449082906001600160a01b03165afa9081156112c1575f916114a3575b50156114835790565b604051630276b5d960e01b81526004810191909152336024820152604490fd5b6114bc915060203d602011610b7457610b6581836111b0565b5f61147a565b506113d7611884565b90811561153f575b801561152d575b602090606460018060a01b035f805160206119e78339815191525416935f6040519586948593630afe14ad60e31b8552600485015260248401528160448401525af19081156112c1575f91611292575090565b506020611538611884565b90506114da565b9050611549611884565b906114d3565b80156115b5575b5f805160206119e783398151915254604051635a53accb60e01b81526004810192909252620f42406024830152600160f81b6044830152602090829060649082905f906001600160a01b03165af19081156112c1575f91611292575090565b505f60206115c1611884565b915050611556565b90811561163d575b801561162b575b602090606460018060a01b035f805160206119e78339815191525416935f6040519586948593631391547f60e01b8552600485015260248401528160448401525af19081156112c1575f91611292575090565b506020611636611884565b90506115d8565b9050611647611884565b906115d1565b9081156116c1575b80156116af575b602090606460018060a01b035f805160206119e78339815191525416935f60405195869485936304559f7160e01b8552600485015260248401528160448401525af19081156112c1575f91611292575090565b5060206116ba611884565b905061165c565b90506116cb611884565b90611655565b9190821561175e575b8015611750575b811561173a575b6064602092935f60018060a01b035f805160206119e783398151915254166040519687958694637702dcff60e01b86526004860152602485015260448401525af19081156112c1575f91611292575090565b602091506064611748611884565b9250506116e8565b50611759611884565b6116e1565b91505f602060018060a01b035f805160206119e78339815191525416604460405180948193639cd07acb60e01b83528160048401528160248401525af19081156112c1575f916117b0575b50916116da565b90506020813d6020116117da575b816117cb602093836111b0565b8101031261072f57515f6117a9565b3d91506117be565b604051906117ef82611194565b5f6040838281528260208201520152565b908115611874575b8015611862575b602090606460018060a01b035f805160206119e78339815191525416935f604051958694859363022f65e760e31b8552600485015260248401528160448401525af19081156112c1575f91611292575090565b50602061186d611884565b905061180f565b905061187e611884565b90611808565b5f805160206119e783398151915254604051639cd07acb60e01b81525f60048201819052600560248301529091602091839160449183916001600160a01b03165af19081156112c1575f91611292575090565b5f805160206119e783398151915254604051639cd07acb60e01b8152600481019290925260056024830152602090829060449082905f906001600160a01b03165af19081156112c1575f91611292575090565b5f805160206119e783398151915254604051639cd07acb60e01b815260048101929092525f6024830181905260209183916044918391906001600160a01b03165af19081156112c1575f91611292575090565b5f80516020611a07833981519152546001600160a01b031691823b1561072f57604051635ca4b5b160e11b815260048101929092526001600160a01b03166024820152905f908290604490829084905af180156112c1576119db5750565b6119e49061116c565b56fe9e7b61f58c47dc699ac88507c4f5bb9f121c03808c5676a8078fe583e46497019e7b61f58c47dc699ac88507c4f5bb9f121c03808c5676a8078fe583e4649700a2646970667358221220a5de1c6d50a6bfaff5dca843377a8edf5fa25efa5d0256e2e1177f5575ec871b64736f6c63430008180033","linkReferences":{}},"methodIdentifiers":{"MAX_SELLERS()":"354b7d54","SCALE()":"eced5526","deposit(bytes32,bytes)":"e29973fc","encAccumulatedQuote(address)":"2aa494db","encPoolBalance()":"b7b6199c","encShares(address)":"3e94cb72","factory()":"c45a0155","fill(bytes32,bytes32,bytes,bytes)":"df497ef2","hasSeller(address)":"fd58e96d","initialize(address,address,uint256,uint64,uint64,address)":"e26420c0","initialized()":"158ef93e","maturity()":"204f83f9","minPricePerToken()":"be6b79da","optionToken()":"2bab754b","quoteToken()":"217a4b70","sellerCount()":"59fa9b1f","sellers(uint256)":"cee26ed5","strike()":"ad8f5008","withdraw()":"3ccfd60b"},"id":47}