{"abi":[{"type":"receive","stateMutability":"payable"},{"type":"function","name":"CALLBACK_SUCCESS","inputs":[],"outputs":[{"name":"","type":"bytes32","internalType":"bytes32"}],"stateMutability":"view"},{"type":"function","name":"configure","inputs":[{"name":"factory_","type":"address","internalType":"contract PublicOptionFactory"},{"name":"strike_","type":"uint256","internalType":"uint256"},{"name":"maturity_","type":"uint64","internalType":"uint64"}],"outputs":[],"stateMutability":"nonpayable"},{"type":"function","name":"factory","inputs":[],"outputs":[{"name":"","type":"address","internalType":"contract PublicOptionFactory"}],"stateMutability":"view"},{"type":"function","name":"maturity","inputs":[],"outputs":[{"name":"","type":"uint64","internalType":"uint64"}],"stateMutability":"view"},{"type":"function","name":"onFlashLoan","inputs":[{"name":"","type":"address","internalType":"address"},{"name":"token","type":"address","internalType":"address"},{"name":"amount","type":"uint256","internalType":"uint256"},{"name":"fee","type":"uint256","internalType":"uint256"},{"name":"","type":"bytes","internalType":"bytes"}],"outputs":[{"name":"","type":"bytes32","internalType":"bytes32"}],"stateMutability":"nonpayable"},{"type":"function","name":"strike","inputs":[],"outputs":[{"name":"","type":"uint256","internalType":"uint256"}],"stateMutability":"view"}],"bytecode":{"object":"0x608080604052346100165761060b908161001b8239f35b5f80fdfe6080604081815260049182361015610021575b505050361561001f575f80fd5b005b5f925f3560e01c918263204f83f91461052e5750816323e30c8b146101665781638237e5381461012b57816399b9f13a146100ba57508063ad8f50081461009c5763c45a0155146100725780610012565b34610098578160031936011261009857905490516001600160a01b039091168152602090f35b5080fd5b50346100985781600319360112610098576020906001549051908152f35b83903461009857606036600319011261009857356001600160a01b03811690819003610098576044359067ffffffffffffffff8216809203610127576bffffffffffffffffffffffff60a01b83541617825560243560015567ffffffffffffffff19600254161760025580f35b8280fd5b505034610098578160031936011261009857602090517f439148f0bbc682ca079e46d6e2c2f0c1e3b820f1a291b069d8882abf8cf18dd98152f35b9050346104c15760a03660031901126104c1576001600160a01b038135818116036104c157602435908082168092036104c157604435606435916084359367ffffffffffffffff948581116104c157366023820112156104c157808701358681116104c157369101602401116104c1578061031a5750865416866001548560025416833b15610127578851630c6e0e7760e11b815280890192835267ffffffffffffffff90911660208301526040820185905292829184919082908790829060600103925af19182610302575b50506102c5578580610247819482946105b4565b335af1913d156102be573d9182116102ab5750825190610271601f8201601f19166020018361057a565b81528360203d92013e5b1561009857602091505b517f439148f0bbc682ca079e46d6e2c2f0c1e3b820f1a291b069d8882abf8cf18dd98152f35b634e487b7160e01b855260419052602484fd5b505061027b565b845162461bcd60e51b81526020818601818152600f918101919091526e1cdc1b1a5d081cdd58d8d959591959608a1b604082015281906060010390fd5b61030b90610552565b61031657865f610233565b8680fd5b92909491855f541694875196879663fbfa77cf60e01b8852878660209a8b935afa968715610524575f976104ec575b50885163095ea7b360e01b8082529782166001600160a01b03168682019081526020810185905289908290819060400103815f8b5af180156104e2576104c5575b505f541690600154906002541690823b156104c1578951630c6e0e7760e11b815286810191825267ffffffffffffffff90921660208201526040810184905290915f9183919082908490829060600103925af190816104ae575b506104715791876103fb87959361041c97956105b4565b88519485523392850192835260208301529294859384929091839160400190565b03925af180156104645760209450610436575b5050610285565b8161045592903d1061045d575b61044d818361057a565b81019061059c565b505f8061042f565b503d610443565b50505051903d90823e3d90fd5b865162461bcd60e51b81526020818501818152600f918101919091526e1cdc1b1a5d081cdd58d8d959591959608a1b604082015281906060010390fd5b6104b9919950610552565b5f975f6103e4565b5f80fd5b6104db90893d8b1161045d5761044d818361057a565b505f61038a565b8a513d5f823e3d90fd5b9096508781813d831161051d575b610504818361057a565b810103126104c1575186811681036104c157955f610349565b503d6104fa565b89513d5f823e3d90fd5b346104c1575f3660031901126104c15760209067ffffffffffffffff600254168152f35b67ffffffffffffffff811161056657604052565b634e487b7160e01b5f52604160045260245ffd5b90601f8019910116810190811067ffffffffffffffff82111761056657604052565b908160209103126104c1575180151581036104c15790565b919082018092116105c157565b634e487b7160e01b5f52601160045260245ffdfea2646970667358221220d60eb5f3a96583fd9c76ad97938b66ff981d5fe1c5382a24e686b9d95948c43464736f6c63430008180033","linkReferences":{}},"methodIdentifiers":{"CALLBACK_SUCCESS()":"8237e538","configure(address,uint256,uint64)":"99b9f13a","factory()":"c45a0155","maturity()":"204f83f9","onFlashLoan(address,address,uint256,uint256,bytes)":"23e30c8b","strike()":"ad8f5008"},"id":50}