{"abi":[{"type":"receive","stateMutability":"payable"},{"type":"function","name":"CALLBACK_SUCCESS","inputs":[],"outputs":[{"name":"","type":"bytes32","internalType":"bytes32"}],"stateMutability":"view"},{"type":"function","name":"onFlashLoan","inputs":[{"name":"","type":"address","internalType":"address"},{"name":"token","type":"address","internalType":"address"},{"name":"amount","type":"uint256","internalType":"uint256"},{"name":"fee","type":"uint256","internalType":"uint256"},{"name":"","type":"bytes","internalType":"bytes"}],"outputs":[{"name":"","type":"bytes32","internalType":"bytes32"}],"stateMutability":"nonpayable"}],"bytecode":{"object":"0x6080806040523461001657610272908161001b8239f35b5f80fdfe604060808152600436101561001c575b50361561001a575f80fd5b005b5f3560e01c806323e30c8b1461007357638237e5380361000f573461006f575f36600319011261006f57602090517f439148f0bbc682ca079e46d6e2c2f0c1e3b820f1a291b069d8882abf8cf18dd98152f35b5f80fd5b503461006f5760a036600319011261006f576001600160a01b036004358181160361006f5760243590811680910361006f57604435606435906084359267ffffffffffffffff9384811161006f573660238201121561006f57806004013585811161006f573691016024011161006f578061017357505f806100f7819482946101f9565b335af1903d1561016d573d90811161015957825190610120601f8201601f19166020018361021a565b81525f60203d92013e5b1561006f576020905b517f439148f0bbc682ca079e46d6e2c2f0c1e3b820f1a291b069d8882abf8cf18dd98152f35b634e487b7160e01b5f52604160045260245ffd5b5061012a565b905f93506101856020936044926101f9565b8551948593849263095ea7b360e01b845233600485015260248401525af180156101ef576101b7575b50602090610133565b6020813d6020116101e7575b816101d06020938361021a565b8101031261006f57518015150361006f575f6101ae565b3d91506101c3565b82513d5f823e3d90fd5b9190820180921161020657565b634e487b7160e01b5f52601160045260245ffd5b90601f8019910116810190811067ffffffffffffffff8211176101595760405256fea264697066735822122048443c3611cebdb48f17a1a98641dc140da4008afc801c860745f573096501bb64736f6c63430008180033","linkReferences":{}},"methodIdentifiers":{"CALLBACK_SUCCESS()":"8237e538","onFlashLoan(address,address,uint256,uint256,bytes)":"23e30c8b"},"id":50}