{"abi":[{"type":"constructor","inputs":[{"name":"name_","type":"string","internalType":"string"},{"name":"symbol_","type":"string","internalType":"string"},{"name":"factory_","type":"address","internalType":"address"},{"name":"strike_","type":"uint256","internalType":"uint256"},{"name":"maturity_","type":"uint64","internalType":"uint64"},{"name":"isStable_","type":"bool","internalType":"bool"}],"stateMutability":"nonpayable"},{"type":"function","name":"allowance","inputs":[{"name":"owner","type":"address","internalType":"address"},{"name":"spender","type":"address","internalType":"address"}],"outputs":[{"name":"","type":"bytes32","internalType":"euint64"}],"stateMutability":"view"},{"type":"function","name":"approve","inputs":[{"name":"spender","type":"address","internalType":"address"},{"name":"encAmount","type":"bytes32","internalType":"externalEuint64"},{"name":"proof","type":"bytes","internalType":"bytes"}],"outputs":[{"name":"","type":"bool","internalType":"bool"}],"stateMutability":"nonpayable"},{"type":"function","name":"authorized","inputs":[{"name":"","type":"address","internalType":"address"}],"outputs":[{"name":"","type":"bool","internalType":"bool"}],"stateMutability":"view"},{"type":"function","name":"authorizedTransfer","inputs":[{"name":"from","type":"address","internalType":"address"},{"name":"to","type":"address","internalType":"address"},{"name":"amount","type":"bytes32","internalType":"euint64"}],"outputs":[],"stateMutability":"nonpayable"},{"type":"function","name":"balanceOf","inputs":[{"name":"account","type":"address","internalType":"address"}],"outputs":[{"name":"","type":"bytes32","internalType":"euint64"}],"stateMutability":"view"},{"type":"function","name":"burn","inputs":[{"name":"from","type":"address","internalType":"address"},{"name":"amount","type":"bytes32","internalType":"euint64"}],"outputs":[],"stateMutability":"nonpayable"},{"type":"function","name":"decimals","inputs":[],"outputs":[{"name":"","type":"uint8","internalType":"uint8"}],"stateMutability":"pure"},{"type":"function","name":"factory","inputs":[],"outputs":[{"name":"","type":"address","internalType":"address"}],"stateMutability":"view"},{"type":"function","name":"isStable","inputs":[],"outputs":[{"name":"","type":"bool","internalType":"bool"}],"stateMutability":"view"},{"type":"function","name":"maturity","inputs":[],"outputs":[{"name":"","type":"uint64","internalType":"uint64"}],"stateMutability":"view"},{"type":"function","name":"mint","inputs":[{"name":"to","type":"address","internalType":"address"},{"name":"amount","type":"bytes32","internalType":"euint64"}],"outputs":[],"stateMutability":"nonpayable"},{"type":"function","name":"name","inputs":[],"outputs":[{"name":"","type":"string","internalType":"string"}],"stateMutability":"view"},{"type":"function","name":"pullFrom","inputs":[{"name":"from","type":"address","internalType":"address"},{"name":"amount","type":"bytes32","internalType":"euint64"}],"outputs":[],"stateMutability":"nonpayable"},{"type":"function","name":"setAuthorized","inputs":[{"name":"addr","type":"address","internalType":"address"},{"name":"enabled","type":"bool","internalType":"bool"}],"outputs":[],"stateMutability":"nonpayable"},{"type":"function","name":"strike","inputs":[],"outputs":[{"name":"","type":"uint256","internalType":"uint256"}],"stateMutability":"view"},{"type":"function","name":"symbol","inputs":[],"outputs":[{"name":"","type":"string","internalType":"string"}],"stateMutability":"view"},{"type":"function","name":"totalSupply","inputs":[],"outputs":[{"name":"","type":"uint64","internalType":"uint64"}],"stateMutability":"view"},{"type":"function","name":"transfer","inputs":[{"name":"to","type":"address","internalType":"address"},{"name":"encAmount","type":"bytes32","internalType":"externalEuint64"},{"name":"proof","type":"bytes","internalType":"bytes"}],"outputs":[{"name":"","type":"bool","internalType":"bool"}],"stateMutability":"nonpayable"},{"type":"function","name":"transfer","inputs":[{"name":"to","type":"address","internalType":"address"},{"name":"amount","type":"bytes32","internalType":"euint64"}],"outputs":[{"name":"","type":"bool","internalType":"bool"}],"stateMutability":"nonpayable"},{"type":"function","name":"transferFrom","inputs":[{"name":"from","type":"address","internalType":"address"},{"name":"to","type":"address","internalType":"address"},{"name":"encAmount","type":"bytes32","internalType":"externalEuint64"},{"name":"proof","type":"bytes","internalType":"bytes"}],"outputs":[{"name":"","type":"bool","internalType":"bool"}],"stateMutability":"nonpayable"},{"type":"event","name":"Approval","inputs":[{"name":"owner","type":"address","indexed":true,"internalType":"address"},{"name":"spender","type":"address","indexed":true,"internalType":"address"}],"anonymous":false},{"type":"event","name":"Transfer","inputs":[{"name":"from","type":"address","indexed":true,"internalType":"address"},{"name":"to","type":"address","indexed":true,"internalType":"address"}],"anonymous":false},{"type":"error","name":"NotAuthorized","inputs":[]},{"type":"error","name":"SenderNotAllowedToUseHandle","inputs":[{"name":"handle","type":"bytes32","internalType":"bytes32"},{"name":"sender","type":"address","internalType":"address"}]}],"bytecode":{"object":"0x6101006040523462000389576200172e803803806200001e816200038d565b92833981019060c081830312620003895780516001600160401b039081811162000389578362000050918401620003b3565b90602093848401519082821162000389576200006e918501620003b3565b6040840151909490916001600160a01b038316830362000389576060850151936080860151958287168703620003895760a001519687151588036200038957815193838511620002a7576001948554938685811c951680156200037e575b8386101462000288578190601f958681116200032b575b508390868311600114620002c7575f92620002bb575b50505f19600383901b1c191690861b1785555b8151938411620002a7576002548581811c911680156200029c575b8282101462000288578381116200023f575b5080928411600114620001d657509282939183925f94620001ca575b50501b915f199060031b1c1916176002555b60805260a05260c05260e05260405161130a908162000424823960805181818161015c015281816101fe0152818161062f015281816106d1015281816107c10152610887015260a051816102e5015260c05181610907015260e051816109690152f35b015192505f8062000155565b919083601f19811660025f52845f20945f905b888383106200022457505050106200020b575b505050811b0160025562000167565b01515f1960f88460031b161c191690555f8080620001fc565b858701518855909601959485019487935090810190620001e9565b60025f52815f208480870160051c8201928488106200027e575b0160051c019086905b8281106200027257505062000139565b5f815501869062000262565b9250819262000259565b634e487b7160e01b5f52602260045260245ffd5b90607f169062000127565b634e487b7160e01b5f52604160045260245ffd5b015190505f80620000f9565b90889350601f19831691845f52855f20925f5b87828210620003145750508411620002fb575b505050811b0185556200010c565b01515f1960f88460031b161c191690555f8080620002ed565b8385015186558c97909501949384019301620002da565b909150875f52835f208680850160051c82019286861062000374575b918a91869594930160051c01915b82811062000365575050620000e3565b5f81558594508a910162000355565b9250819262000347565b94607f1694620000cc565b5f80fd5b6040519190601f01601f191682016001600160401b03811183821017620002a757604052565b919080601f84011215620003895782516001600160401b038111620002a757602090620003e9601f8201601f191683016200038d565b9281845282828701011162000389575f5b8181106200040f5750825f9394955001015290565b8581018301518482018401528201620003fa56fe6080604081815260049182361015610015575f80fd5b5f3560e01c90816306fdde031461098e5750806309047bdd1461095257806318160ddd1461092b578063204f83f9146108e75780632cfd30051461085f578063313ce56714610844578063577706e1146107a5578063588f0b01146106a957806370a0823114610672578063711bf9b2146105fc5780637b7e0a5a146105da5780637d32e7bd146105a057806395d89b411461048e5780639a09435214610308578063ad8f5008146102ce578063b32c100114610294578063b88baa8d146101c7578063b91816111461018b578063c45a0155146101485763dd62ed3e146100fb575f80fd5b34610144578060031936011261014457602091610116610a95565b61011e610aab565b6001600160a01b039182165f908152928552838320911682528352819020549051908152f35b5f80fd5b5034610144575f36600319011261014457517f00000000000000000000000000000000000000000000000000000000000000006001600160a01b03168152602090f35b5034610144576020366003190112610144576020906001600160a01b036101b0610a95565b165f526005825260ff815f20541690519015158152f35b509034610144576060366003190112610144576101e2610a95565b916101eb610aab565b6044359390926001600160a01b039190337f0000000000000000000000000000000000000000000000000000000000000000841614158061027e575b61027057506102363386611055565b1561014457610260948461024992610d2e565b82165f5260036020525f2054801561026257610f57565b005b5061026b611261565b610f57565b835163ea8e4eb560e01b8152fd5b50335f52600560205260ff845f20541615610227565b5034610144576020906102c76102ba6102c06102af36610aef565b949192943691610b80565b90610bc6565b9033610e19565b5160018152f35b5034610144575f36600319011261014457602090517f00000000000000000000000000000000000000000000000000000000000000008152f35b503461014457608036600319011261014457610322610a95565b9161032b610aab565b60643567ffffffffffffffff81116101445761035761035061035f9236908601610ac1565b3691610b80565b604435610bc6565b6103693382611055565b156101445760018060a01b039182861695865f5260208097868252875f20335f528252875f20549661039b88876110f4565b915f52600383526103af895f2054876110f4565b96821561047e575b8715610466575b905f6064925f805160206112b583398151915254168b51998a95869463d99882d560e01b865285015260248401528160448401525af193841561045c575f94610429575b5061042461041d86610417866102c799610fd1565b87611178565b3383610e19565b610d5a565b9493508685813d8311610455575b6104418183610b5e565b810103126101445793519293610424610402565b503d610437565b86513d5f823e3d90fd5b96506064905f610474611215565b98919250506103be565b9150610488611215565b916103b7565b5034610144575f366003190112610144578051905f906002549160018360011c9060018516948515610596575b602095868410811461058357838852879493929187908215610561575050600114610506575b505061050292916104f3910385610b5e565b51928284938452830190610a57565b0390f35b9085925060025f527f405787fa12a823e0f2b7631cc41b3ba8828b3321ca811111fa75cd3aa3bb5ace915f925b82841061054957505050820101816104f36104e1565b8054848a018601528895508794909301928101610533565b60ff19168682015292151560051b850190920192508391506104f390506104e1565b602289634e487b7160e01b5f525260245ffd5b91607f16916104bb565b50346101445780600319360112610144576105b9610a95565b90602435916105c83384611055565b15610144576020926102c79133610d2e565b5034610144576020906102c76102ba6105f56102af36610aef565b9033610d2e565b5034610144578060031936011261014457610615610a95565b9160243592831515809403610144576001600160a01b03917f0000000000000000000000000000000000000000000000000000000000000000831633036102705750165f5260056020525f209060ff801983541691161790555f80f35b5034610144576020366003190112610144576020906001600160a01b03610697610a95565b165f5260038252805f20549051908152f35b50346101445780600319360112610144576106c2610a95565b602435916001600160a01b03337f0000000000000000000000000000000000000000000000000000000000000000821614158061078f575b61077f576107479394508216805f52600360205261071b85835f2054610fd1565b9182915f5260036020525f2055808015918261076c575b61073d903090610f57565b9061026257610f57565b8015610759575b610260903390610f57565b50610260610765611261565b905061074e565b5061073d610778611261565b9050610732565b815163ea8e4eb560e01b81528590fd5b50335f52600560205260ff825f205416156106fa565b50346101445780600319360112610144576107be610a95565b337f00000000000000000000000000000000000000000000000000000000000000006001600160a01b031614158061082e575b6108205761080490602435903390610d2e565b335f5260036020525f2054801561075957610260903390610f57565b505163ea8e4eb560e01b8152fd5b50335f52600560205260ff825f205416156107f1565b5034610144575f366003190112610144576020905160068152f35b5034610144578060031936011261014457610878610a95565b602435916001600160a01b03337f000000000000000000000000000000000000000000000000000000000000000082161415806108d1575b61077f576107479394508216805f52600360205261071b85835f2054610ea4565b50335f52600560205260ff825f205416156108b0565b5034610144575f366003190112610144576020905167ffffffffffffffff7f0000000000000000000000000000000000000000000000000000000000000000168152f35b5034610144575f3660031901126101445760209067ffffffffffffffff5f54169051908152f35b5034610144575f36600319011261014457602090517f000000000000000000000000000000000000000000000000000000000000000015158152f35b91905034610144575f366003190112610144575f90600191600154928360011c9060018516948515610a4d575b6020958684108114610583578388528794939291879082156105615750506001146109f257505061050292916104f3910385610b5e565b9085925060015f527fb10e2d527612073b26eecdfd717e6a320cf44b4afac2b0732d9fcbe2b7fa0cf6915f925b828410610a3557505050820101816104f36104e1565b8054848a018601528895508794909301928101610a1f565b91607f16916109bb565b91908251928382525f5b848110610a81575050825f602080949584010152601f8019910116010190565b602081830181015184830182015201610a61565b600435906001600160a01b038216820361014457565b602435906001600160a01b038216820361014457565b9181601f840112156101445782359167ffffffffffffffff8311610144576020838186019501011161014457565b6060600319820112610144576004356001600160a01b03811681036101445791602435916044359067ffffffffffffffff821161014457610b3291600401610ac1565b9091565b67ffffffffffffffff8111610b4a57604052565b634e487b7160e01b5f52604160045260245ffd5b90601f8019910116810190811067ffffffffffffffff821117610b4a57604052565b92919267ffffffffffffffff8211610b4a5760405191610baa601f8201601f191660200184610b5e565b829481845281830111610144578281602093845f960137010152565b815190919015610cec575f805160206112b58339815191525460405163045fc19560e11b81526004810193909352336024840152608060448401526001600160a01b039160209184919084169082905f908290610c27906084830190610a57565b6005606483015203925af1918215610cad575f92610cb8575b507f9e7b61f58c47dc699ac88507c4f5bb9f121c03808c5676a8078fe583e46497005416803b1561014457604051630f8e573b60e21b815260048101839052336024820152905f908290604490829084905af18015610cad57610ca1575090565b610caa90610b36565b90565b6040513d5f823e3d90fd5b9091506020813d602011610ce4575b81610cd460209383610b5e565b810103126101445751905f610c40565b3d9150610cc7565b508015610d2557610cfd3382611055565b15610d055790565b604051630276b5d960e01b81526004810191909152336024820152604490fd5b50610caa611261565b9091610d589260018060a01b0383165f526003602052610d5260405f2054836110f4565b92610d5a565b565b91610df39193610d7291610d6c611261565b91611178565b91610dd160018060a01b03610dbc81871696875f526003602052610d9a8760405f2054610ea4565b885f5260036020528060405f2055808015918261076c5761073d903090610f57565b821693845f52600360205260405f2054610fd1565b835f5260036020528060405f2055808015918261076c5761073d903090610f57565b7f4853ae1b4d437c4255ac16cd3ceda3465975023f27cb141584cd9d44440fed825f80a3565b9190610e6b9060018060a01b039384811693845f52600460205260405f2095831695865f526020528060405f205561073d819282159384610e91575b610e60903090610f57565b828461026257610f57565b7ff37f546c25e850257cc0c94f92bec94a17e2f0e884ddda268a25d8144b70eb6a5f80a3565b50610e60610e9d611261565b9050610e55565b908115610f47575b8015610f35575b602090606460018060a01b035f805160206112b58339815191525416935f604051958694859363022f65e760e31b8552600485015260248401528160448401525af1908115610cad575f91610f06575090565b90506020813d602011610f2d575b81610f2160209383610b5e565b81010312610144575190565b3d9150610f14565b506020610f40611261565b9050610eb3565b9050610f51611261565b90610eac565b7f9e7b61f58c47dc699ac88507c4f5bb9f121c03808c5676a8078fe583e4649700546001600160a01b031691823b1561014457604051635ca4b5b160e11b815260048101929092526001600160a01b03166024820152905f908290604490829084905af18015610cad57610fc85750565b610d5890610b36565b908115611045575b8015611033575b602090606460018060a01b035f805160206112b58339815191525416935f60405195869485936303056db360e31b8552600485015260248401528160448401525af1908115610cad575f91610f06575090565b50602061103e611261565b9050610fe0565b905061104f611261565b90610fd9565b7f9e7b61f58c47dc699ac88507c4f5bb9f121c03808c5676a8078fe583e4649700546040516382027b6d60e01b815260048101929092526001600160a01b039283166024830152909160209183916044918391165afa908115610cad575f916110bc575090565b90506020813d6020116110ec575b816110d760209383610b5e565b81010312610144575180151581036101445790565b3d91506110ca565b908115611168575b8015611156575b602090606460018060a01b035f805160206112b58339815191525416935f6040519586948593631d44e90160e21b8552600485015260248401528160448401525af1908115610cad575f91610f06575090565b506020611161611261565b9050611103565b9050611172611261565b906110fc565b91908215611205575b80156111f7575b81156111e1575b6064602092935f60018060a01b035f805160206112b583398151915254166040519687958694637702dcff60e01b86526004860152602485015260448401525af1908115610cad575f91610f06575090565b6020915060646111ef611261565b92505061118f565b50611200611261565b611188565b915061120f611215565b91611181565b5f602060018060a01b035f805160206112b58339815191525416604460405180948193639cd07acb60e01b83528160048401528160248401525af1908115610cad575f91610f06575090565b5f805160206112b583398151915254604051639cd07acb60e01b81525f60048201819052600560248301529091602091839160449183916001600160a01b03165af1908115610cad575f91610f0657509056fe9e7b61f58c47dc699ac88507c4f5bb9f121c03808c5676a8078fe583e4649701a264697066735822122065b1a974faf452bba9e0f2e96e626e501ca57428160909e2efc5efdc421c694764736f6c63430008180033","linkReferences":{}},"methodIdentifiers":{"allowance(address,address)":"dd62ed3e","approve(address,bytes32,bytes)":"b32c1001","authorized(address)":"b9181611","authorizedTransfer(address,address,bytes32)":"b88baa8d","balanceOf(address)":"70a08231","burn(address,bytes32)":"588f0b01","decimals()":"313ce567","factory()":"c45a0155","isStable()":"09047bdd","maturity()":"204f83f9","mint(address,bytes32)":"2cfd3005","name()":"06fdde03","pullFrom(address,bytes32)":"577706e1","setAuthorized(address,bool)":"711bf9b2","strike()":"ad8f5008","symbol()":"95d89b41","totalSupply()":"18160ddd","transfer(address,bytes32)":"7d32e7bd","transfer(address,bytes32,bytes)":"7b7e0a5a","transferFrom(address,address,bytes32,bytes)":"9a094352"},"id":20}