{"abi":[{"type":"constructor","inputs":[{"name":"name_","type":"string","internalType":"string"},{"name":"symbol_","type":"string","internalType":"string"},{"name":"factory_","type":"address","internalType":"address"},{"name":"strike_","type":"uint256","internalType":"uint256"},{"name":"maturity_","type":"uint64","internalType":"uint64"},{"name":"isStable_","type":"bool","internalType":"bool"}],"stateMutability":"nonpayable"},{"type":"function","name":"allowance","inputs":[{"name":"owner","type":"address","internalType":"address"},{"name":"spender","type":"address","internalType":"address"}],"outputs":[{"name":"","type":"bytes32","internalType":"euint64"}],"stateMutability":"view"},{"type":"function","name":"approve","inputs":[{"name":"spender","type":"address","internalType":"address"},{"name":"encAmount","type":"bytes32","internalType":"externalEuint64"},{"name":"proof","type":"bytes","internalType":"bytes"}],"outputs":[{"name":"","type":"bool","internalType":"bool"}],"stateMutability":"nonpayable"},{"type":"function","name":"authorized","inputs":[{"name":"","type":"address","internalType":"address"}],"outputs":[{"name":"","type":"bool","internalType":"bool"}],"stateMutability":"view"},{"type":"function","name":"authorizedTransfer","inputs":[{"name":"from","type":"address","internalType":"address"},{"name":"to","type":"address","internalType":"address"},{"name":"amount","type":"bytes32","internalType":"euint64"}],"outputs":[],"stateMutability":"nonpayable"},{"type":"function","name":"balanceOf","inputs":[{"name":"account","type":"address","internalType":"address"}],"outputs":[{"name":"","type":"bytes32","internalType":"euint64"}],"stateMutability":"view"},{"type":"function","name":"burn","inputs":[{"name":"from","type":"address","internalType":"address"},{"name":"amount","type":"bytes32","internalType":"euint64"}],"outputs":[{"name":"burnAmount","type":"bytes32","internalType":"euint64"}],"stateMutability":"nonpayable"},{"type":"function","name":"decimals","inputs":[],"outputs":[{"name":"","type":"uint8","internalType":"uint8"}],"stateMutability":"pure"},{"type":"function","name":"factory","inputs":[],"outputs":[{"name":"","type":"address","internalType":"address"}],"stateMutability":"view"},{"type":"function","name":"isStable","inputs":[],"outputs":[{"name":"","type":"bool","internalType":"bool"}],"stateMutability":"view"},{"type":"function","name":"maturity","inputs":[],"outputs":[{"name":"","type":"uint64","internalType":"uint64"}],"stateMutability":"view"},{"type":"function","name":"mint","inputs":[{"name":"to","type":"address","internalType":"address"},{"name":"amount","type":"bytes32","internalType":"euint64"}],"outputs":[],"stateMutability":"nonpayable"},{"type":"function","name":"name","inputs":[],"outputs":[{"name":"","type":"string","internalType":"string"}],"stateMutability":"view"},{"type":"function","name":"pullFrom","inputs":[{"name":"from","type":"address","internalType":"address"},{"name":"amount","type":"bytes32","internalType":"euint64"}],"outputs":[],"stateMutability":"nonpayable"},{"type":"function","name":"setAuthorized","inputs":[{"name":"addr","type":"address","internalType":"address"},{"name":"enabled","type":"bool","internalType":"bool"}],"outputs":[],"stateMutability":"nonpayable"},{"type":"function","name":"strike","inputs":[],"outputs":[{"name":"","type":"uint256","internalType":"uint256"}],"stateMutability":"view"},{"type":"function","name":"symbol","inputs":[],"outputs":[{"name":"","type":"string","internalType":"string"}],"stateMutability":"view"},{"type":"function","name":"totalSupply","inputs":[],"outputs":[{"name":"","type":"bytes32","internalType":"euint64"}],"stateMutability":"view"},{"type":"function","name":"transfer","inputs":[{"name":"to","type":"address","internalType":"address"},{"name":"encAmount","type":"bytes32","internalType":"externalEuint64"},{"name":"proof","type":"bytes","internalType":"bytes"}],"outputs":[{"name":"","type":"bool","internalType":"bool"}],"stateMutability":"nonpayable"},{"type":"function","name":"transfer","inputs":[{"name":"to","type":"address","internalType":"address"},{"name":"amount","type":"bytes32","internalType":"euint64"}],"outputs":[{"name":"","type":"bool","internalType":"bool"}],"stateMutability":"nonpayable"},{"type":"function","name":"transferFrom","inputs":[{"name":"from","type":"address","internalType":"address"},{"name":"to","type":"address","internalType":"address"},{"name":"encAmount","type":"bytes32","internalType":"externalEuint64"},{"name":"proof","type":"bytes","internalType":"bytes"}],"outputs":[{"name":"","type":"bool","internalType":"bool"}],"stateMutability":"nonpayable"},{"type":"event","name":"Approval","inputs":[{"name":"owner","type":"address","indexed":true,"internalType":"address"},{"name":"spender","type":"address","indexed":true,"internalType":"address"}],"anonymous":false},{"type":"event","name":"Transfer","inputs":[{"name":"from","type":"address","indexed":true,"internalType":"address"},{"name":"to","type":"address","indexed":true,"internalType":"address"}],"anonymous":false},{"type":"error","name":"NotAuthorized","inputs":[]},{"type":"error","name":"SenderNotAllowedToUseHandle","inputs":[{"name":"handle","type":"bytes32","internalType":"bytes32"},{"name":"sender","type":"address","internalType":"address"}]},{"type":"error","name":"ZamaProtocolUnsupported","inputs":[]}],"bytecode":{"object":"0x61010060409080825234620003435762001c13803803809162000023828562000617565b833981019060c081830312620003435780516001600160401b0390818111620003435783620000549184016200063b565b9060209384840151908282116200034357620000729185016200063b565b83860151916001600160a01b03808416840362000343576060860151946080870151968388168803620003435760a001519788151589036200034357620000b8620006af565b506001914683036200050557620000ce620006af565b508a51620000dc81620005fb565b73ca2e8f1f656cd25c01f05d0b243ab1ecd4a8ffb6815273d82385dada1ae3e969447f20a3164f6213100e75838201527377627828a55156b04ac0dc0eb30467f1a552bb038c820152955b8487511696858d60018060a01b0319927f9e7b61f58c47dc699ac88507c4f5bb9f121c03808c5676a8078fe583e46497009a848c5416178b558287820151165f8051602062001bf383398151915290858254161790550151167f9e7b61f58c47dc699ac88507c4f5bb9f121c03808c5676a8078fe583e464970291825416179055815186811162000325578454928584811c94168015620004fa575b8585101462000418578190601f94858111620004a7575b50859085831160011462000443575f9262000437575b50505f19600383901b1c191690851b1784555b80519286841162000325576002548581811c911680156200042c575b828210146200041857838111620003cf575b50809284116001146200036657509282939183925f946200035a575b50501b915f199060031b1c1916176002555b62000269620006cf565b92835f55831562000347575b541691823b1562000343575f92604484928a519586938492635ca4b5b160e11b845260048401523060248401525af18015620003395762000314575b505060805260a05260c05260e0525161148e908162000765823960805181818161015c015281816101fe0152818161062f015281816106d6015281816108c601526109a0015260a051816102e5015260c05181610a95015260e05181610aed0152f35b8111620003255785525f80620002b1565b634e487b7160e01b5f52604160045260245ffd5b87513d5f823e3d90fd5b5f80fd5b925062000353620006cf565b9262000275565b015192505f806200024d565b919083601f19811660025f52845f20945f905b88838310620003b457505050106200039b575b505050811b016002556200025f565b01515f1960f88460031b161c191690555f80806200038c565b85870151885590960195948501948793509081019062000379565b60025f52815f208480870160051c8201928488106200040e575b0160051c019086905b8281106200040257505062000231565b5f8155018690620003f2565b92508192620003e9565b634e487b7160e01b5f52602260045260245ffd5b90607f16906200021f565b015190505f80620001f0565b90879350601f19831691845f52875f20925f5b8982821062000490575050841162000477575b505050811b01845562000203565b01515f1960f88460031b161c191690555f808062000469565b8385015186558b9790950194938401930162000456565b909150865f52855f208580850160051c820192888610620004f0575b918991869594930160051c01915b828110620004e1575050620001da565b5f8155859450899101620004d1565b92508192620004c3565b93607f1693620001c3565b4662aa36a70362000578576200051a620006af565b508a516200052881620005fb565b73f0ffdc93b7e186bc2f8cb3daa75d86d1930a433d81527392c920834ec8941d2c77d188936e1f7a6f49c1278382015273be0e383937d564d7ff0bc3b46c51f0bf8d5c311a8c8201529562000127565b46617a6903620005ea576200058c620006af565b508a516200059a81620005fb565b7350157cffd6bbfa2dece204a89ec419c23ef5755d815273e3a9105a3a932253a70f126eb1e3b589c643dd248382015273901f8942346f7ab3a01f6d7613119bca447bb0308c8201529562000127565b8a516373cac13b60e01b8152600490fd5b606081019081106001600160401b038211176200032557604052565b601f909101601f19168101906001600160401b038211908210176200032557604052565b919080601f84011215620003435782516001600160401b0381116200032557602090604051926200067683601f19601f850116018562000617565b81845282828701011162000343575f5b8181106200069b5750825f9394955001015290565b858101830151848201840152820162000686565b60405190620006be82620005fb565b5f6040838281528260208201520152565b5f8051602062001bf383398151915254604051639cd07acb60e01b81525f60048201819052600560248301529091602091839160449183916001600160a01b03165af190811562000759575f9162000725575090565b90506020813d60201162000750575b81620007436020938362000617565b8101031262000343575190565b3d915062000734565b6040513d5f823e3d90fdfe6080604081815260049182361015610015575f80fd5b5f3560e01c90816306fdde0314610b125750806309047bdd14610ad657806318160ddd14610ab9578063204f83f914610a755780632cfd300514610978578063313ce5671461095d578063577706e1146108aa578063588f0b01146106a957806370a0823114610672578063711bf9b2146105fc5780637b7e0a5a146105da5780637d32e7bd146105a057806395d89b411461048e5780639a09435214610308578063ad8f5008146102ce578063b32c100114610294578063b88baa8d146101c7578063b91816111461018b578063c45a0155146101485763dd62ed3e146100fb575f80fd5b34610144578060031936011261014457602091610116610c19565b61011e610c2f565b6001600160a01b039182165f908152928552838320911682528352819020549051908152f35b5f80fd5b5034610144575f36600319011261014457517f00000000000000000000000000000000000000000000000000000000000000006001600160a01b03168152602090f35b5034610144576020366003190112610144576020906001600160a01b036101b0610c19565b165f526005825260ff815f20541690519015158152f35b509034610144576060366003190112610144576101e2610c19565b916101eb610c2f565b6044359390926001600160a01b039190337f0000000000000000000000000000000000000000000000000000000000000000841614158061027e575b610270575061023633866111d9565b1561014457610260948461024992610eb2565b82165f5260036020525f20548015610262576110db565b005b5061026b611399565b6110db565b835163ea8e4eb560e01b8152fd5b50335f52600560205260ff845f20541615610227565b5034610144576020906102c76102ba6102c06102af36610c73565b949192943691610d04565b90610d4a565b9033610f9d565b5160018152f35b5034610144575f36600319011261014457602090517f00000000000000000000000000000000000000000000000000000000000000008152f35b503461014457608036600319011261014457610322610c19565b9161032b610c2f565b60643567ffffffffffffffff81116101445761035761035061035f9236908601610c45565b3691610d04565b604435610d4a565b61036933826111d9565b156101445760018060a01b039182861695865f5260208097868252875f20335f528252875f20549661039b8887611278565b915f52600383526103af895f205487611278565b96821561047e575b8715610466575b905f6064925f8051602061143983398151915254168b51998a95869463d99882d560e01b865285015260248401528160448401525af193841561045c575f94610429575b5061042461041d86610417866102c799611155565b876112fc565b3383610f9d565b610ede565b9493508685813d8311610455575b6104418183610ce2565b810103126101445793519293610424610402565b503d610437565b86513d5f823e3d90fd5b96506064905f6104746113ec565b98919250506103be565b91506104886113ec565b916103b7565b5034610144575f366003190112610144578051905f906002549160018360011c9060018516948515610596575b602095868410811461058357838852879493929187908215610561575050600114610506575b505061050292916104f3910385610ce2565b51928284938452830190610bdb565b0390f35b9085925060025f527f405787fa12a823e0f2b7631cc41b3ba8828b3321ca811111fa75cd3aa3bb5ace915f925b82841061054957505050820101816104f36104e1565b8054848a018601528895508794909301928101610533565b60ff19168682015292151560051b850190920192508391506104f390506104e1565b602289634e487b7160e01b5f525260245ffd5b91607f16916104bb565b50346101445780600319360112610144576105b9610c19565b90602435916105c833846111d9565b15610144576020926102c79133610eb2565b5034610144576020906102c76102ba6105f56102af36610c73565b9033610eb2565b5034610144578060031936011261014457610615610c19565b9160243592831515809403610144576001600160a01b03917f0000000000000000000000000000000000000000000000000000000000000000831633036102705750165f5260056020525f209060ff801983541691161790555f80f35b5034610144576020366003190112610144576020906001600160a01b03610697610c19565b165f5260038252805f20549051908152f35b5090346101445781600319360112610144576106c3610c19565b602435926001600160a01b0392909190337f00000000000000000000000000000000000000000000000000000000000000008516141580610894575b6108865783821690815f52602095869160038352855f2054968215610876575b871561085e575b905f6064925f8051602061143983398151915254168851998a9586946304559f7160e01b865285015260248401528160448401525af1938415610854575f94610821575b50906107cf9161077b855f54611155565b805f55801561080e575b6107909030906110db565b805f52600386526107a485855f2054611155565b905f526003865280845f205580801591826107fb575b6107c59030906110db565b90610262576110db565b8182156107e8575b6107e29033906110db565b51908152f35b506107e26107f4611399565b90506107d7565b506107c5610807611399565b90506107ba565b5061079061081a611399565b9050610785565b919093508482813d831161084d575b61083a8183610ce2565b81010312610144579051926107cf61076a565b503d610830565b83513d5f823e3d90fd5b96506064905f61086c611399565b9891925050610726565b9150610880611399565b9161071f565b825163ea8e4eb560e01b8152fd5b50335f52600560205260ff835f205416156106ff565b50346101445780600319360112610144576108c3610c19565b337f00000000000000000000000000000000000000000000000000000000000000006001600160a01b0316141580610947575b6109395761090990602435903390610eb2565b335f5260036020525f20548015610926575b6102609033906110db565b50610260610932611399565b905061091b565b505163ea8e4eb560e01b8152fd5b50335f52600560205260ff825f205416156108f6565b5034610144575f366003190112610144576020905160068152f35b5034610144578060031936011261014457610991610c19565b602435916001600160a01b03337f00000000000000000000000000000000000000000000000000000000000000008216141580610a5f575b610a4f578394506109de610a2b945f54611028565b805f558015610a3c575b6109f39030906110db565b8216805f526003602052610a0a85835f2054611028565b9182915f5260036020525f205580801591826107fb576107c59030906110db565b8015610926576102609033906110db565b506109f3610a48611399565b90506109e8565b815163ea8e4eb560e01b81528590fd5b50335f52600560205260ff825f205416156109c9565b5034610144575f366003190112610144576020905167ffffffffffffffff7f0000000000000000000000000000000000000000000000000000000000000000168152f35b5034610144575f366003190112610144576020905f549051908152f35b5034610144575f36600319011261014457602090517f000000000000000000000000000000000000000000000000000000000000000015158152f35b91905034610144575f366003190112610144575f90600191600154928360011c9060018516948515610bd1575b602095868410811461058357838852879493929187908215610561575050600114610b7657505061050292916104f3910385610ce2565b9085925060015f527fb10e2d527612073b26eecdfd717e6a320cf44b4afac2b0732d9fcbe2b7fa0cf6915f925b828410610bb957505050820101816104f36104e1565b8054848a018601528895508794909301928101610ba3565b91607f1691610b3f565b91908251928382525f5b848110610c05575050825f602080949584010152601f8019910116010190565b602081830181015184830182015201610be5565b600435906001600160a01b038216820361014457565b602435906001600160a01b038216820361014457565b9181601f840112156101445782359167ffffffffffffffff8311610144576020838186019501011161014457565b6060600319820112610144576004356001600160a01b03811681036101445791602435916044359067ffffffffffffffff821161014457610cb691600401610c45565b9091565b67ffffffffffffffff8111610cce57604052565b634e487b7160e01b5f52604160045260245ffd5b90601f8019910116810190811067ffffffffffffffff821117610cce57604052565b92919267ffffffffffffffff8211610cce5760405191610d2e601f8201601f191660200184610ce2565b829481845281830111610144578281602093845f960137010152565b815190919015610e70575f805160206114398339815191525460405163045fc19560e11b81526004810193909352336024840152608060448401526001600160a01b039160209184919084169082905f908290610dab906084830190610bdb565b6005606483015203925af1918215610e31575f92610e3c575b507f9e7b61f58c47dc699ac88507c4f5bb9f121c03808c5676a8078fe583e46497005416803b1561014457604051630f8e573b60e21b815260048101839052336024820152905f908290604490829084905af18015610e3157610e25575090565b610e2e90610cba565b90565b6040513d5f823e3d90fd5b9091506020813d602011610e68575b81610e5860209383610ce2565b810103126101445751905f610dc4565b3d9150610e4b565b508015610ea957610e8133826111d9565b15610e895790565b604051630276b5d960e01b81526004810191909152336024820152604490fd5b50610e2e611399565b9091610edc9260018060a01b0383165f526003602052610ed660405f205483611278565b92610ede565b565b91610f779193610ef691610ef0611399565b916112fc565b91610f5560018060a01b03610f4081871696875f526003602052610f1e8760405f2054611028565b885f5260036020528060405f205580801591826107fb576107c59030906110db565b821693845f52600360205260405f2054611155565b835f5260036020528060405f205580801591826107fb576107c59030906110db565b7f4853ae1b4d437c4255ac16cd3ceda3465975023f27cb141584cd9d44440fed825f80a3565b9190610fef9060018060a01b039384811693845f52600460205260405f2095831695865f526020528060405f20556107c5819282159384611015575b610fe49030906110db565b8284610262576110db565b7ff37f546c25e850257cc0c94f92bec94a17e2f0e884ddda268a25d8144b70eb6a5f80a3565b50610fe4611021611399565b9050610fd9565b9081156110cb575b80156110b9575b602090606460018060a01b035f805160206114398339815191525416935f604051958694859363022f65e760e31b8552600485015260248401528160448401525af1908115610e31575f9161108a575090565b90506020813d6020116110b1575b816110a560209383610ce2565b81010312610144575190565b3d9150611098565b5060206110c4611399565b9050611037565b90506110d5611399565b90611030565b7f9e7b61f58c47dc699ac88507c4f5bb9f121c03808c5676a8078fe583e4649700546001600160a01b031691823b1561014457604051635ca4b5b160e11b815260048101929092526001600160a01b03166024820152905f908290604490829084905af18015610e315761114c5750565b610edc90610cba565b9081156111c9575b80156111b7575b602090606460018060a01b035f805160206114398339815191525416935f60405195869485936303056db360e31b8552600485015260248401528160448401525af1908115610e31575f9161108a575090565b5060206111c2611399565b9050611164565b90506111d3611399565b9061115d565b7f9e7b61f58c47dc699ac88507c4f5bb9f121c03808c5676a8078fe583e4649700546040516382027b6d60e01b815260048101929092526001600160a01b039283166024830152909160209183916044918391165afa908115610e31575f91611240575090565b90506020813d602011611270575b8161125b60209383610ce2565b81010312610144575180151581036101445790565b3d915061124e565b9081156112ec575b80156112da575b602090606460018060a01b035f805160206114398339815191525416935f6040519586948593631d44e90160e21b8552600485015260248401528160448401525af1908115610e31575f9161108a575090565b5060206112e5611399565b9050611287565b90506112f6611399565b90611280565b91908215611389575b801561137b575b8115611365575b6064602092935f60018060a01b035f8051602061143983398151915254166040519687958694637702dcff60e01b86526004860152602485015260448401525af1908115610e31575f9161108a575090565b602091506064611373611399565b925050611313565b50611384611399565b61130c565b91506113936113ec565b91611305565b5f8051602061143983398151915254604051639cd07acb60e01b81525f60048201819052600560248301529091602091839160449183916001600160a01b03165af1908115610e31575f9161108a575090565b5f602060018060a01b035f805160206114398339815191525416604460405180948193639cd07acb60e01b83528160048401528160248401525af1908115610e31575f9161108a57509056fe9e7b61f58c47dc699ac88507c4f5bb9f121c03808c5676a8078fe583e4649701a264697066735822122040fa979ee7f7106c4dbae74007feffeb74749b0a61532fbe989009a18ed5c12064736f6c634300081800339e7b61f58c47dc699ac88507c4f5bb9f121c03808c5676a8078fe583e4649701","linkReferences":{}},"methodIdentifiers":{"allowance(address,address)":"dd62ed3e","approve(address,bytes32,bytes)":"b32c1001","authorized(address)":"b9181611","authorizedTransfer(address,address,bytes32)":"b88baa8d","balanceOf(address)":"70a08231","burn(address,bytes32)":"588f0b01","decimals()":"313ce567","factory()":"c45a0155","isStable()":"09047bdd","maturity()":"204f83f9","mint(address,bytes32)":"2cfd3005","name()":"06fdde03","pullFrom(address,bytes32)":"577706e1","setAuthorized(address,bool)":"711bf9b2","strike()":"ad8f5008","symbol()":"95d89b41","totalSupply()":"18160ddd","transfer(address,bytes32)":"7d32e7bd","transfer(address,bytes32,bytes)":"7b7e0a5a","transferFrom(address,address,bytes32,bytes)":"9a094352"},"id":46}