{"abi":[{"type":"function","name":"cancelListing","inputs":[{"name":"listingId","type":"uint256","internalType":"uint256"}],"outputs":[],"stateMutability":"nonpayable"},{"type":"function","name":"createListing","inputs":[{"name":"token","type":"address","internalType":"contract OptionToken"},{"name":"quoteToken","type":"address","internalType":"contract IConfidentialQuoteToken"},{"name":"strike","type":"uint256","internalType":"uint256"},{"name":"maturity","type":"uint64","internalType":"uint64"},{"name":"encAmount","type":"bytes32","internalType":"externalEuint64"},{"name":"encMinReceive","type":"bytes32","internalType":"externalEuint64"},{"name":"amountProof","type":"bytes","internalType":"bytes"},{"name":"minProof","type":"bytes","internalType":"bytes"}],"outputs":[{"name":"listingId","type":"uint256","internalType":"uint256"}],"stateMutability":"nonpayable"},{"type":"function","name":"fill","inputs":[{"name":"listingId","type":"uint256","internalType":"uint256"},{"name":"encPayment","type":"bytes32","internalType":"externalEuint64"},{"name":"encExpected","type":"bytes32","internalType":"externalEuint64"},{"name":"paymentProof","type":"bytes","internalType":"bytes"},{"name":"expectedProof","type":"bytes","internalType":"bytes"}],"outputs":[],"stateMutability":"nonpayable"},{"type":"function","name":"getListing","inputs":[{"name":"listingId","type":"uint256","internalType":"uint256"}],"outputs":[{"name":"seller","type":"address","internalType":"address"},{"name":"token","type":"address","internalType":"address"},{"name":"quoteToken","type":"address","internalType":"address"},{"name":"strike","type":"uint256","internalType":"uint256"},{"name":"maturity","type":"uint64","internalType":"uint64"},{"name":"active","type":"bool","internalType":"bool"}],"stateMutability":"view"},{"type":"function","name":"listings","inputs":[{"name":"","type":"uint256","internalType":"uint256"}],"outputs":[{"name":"seller","type":"address","internalType":"address"},{"name":"token","type":"address","internalType":"contract OptionToken"},{"name":"quoteToken","type":"address","internalType":"contract IConfidentialQuoteToken"},{"name":"strike","type":"uint256","internalType":"uint256"},{"name":"maturity","type":"uint64","internalType":"uint64"},{"name":"lockedAmount","type":"bytes32","internalType":"euint64"},{"name":"minReceive","type":"bytes32","internalType":"euint64"},{"name":"active","type":"bool","internalType":"bool"}],"stateMutability":"view"},{"type":"function","name":"nextListingId","inputs":[],"outputs":[{"name":"","type":"uint256","internalType":"uint256"}],"stateMutability":"view"},{"type":"event","name":"FillAttempted","inputs":[{"name":"listingId","type":"uint256","indexed":true,"internalType":"uint256"},{"name":"buyer","type":"address","indexed":true,"internalType":"address"}],"anonymous":false},{"type":"event","name":"ListingCancelled","inputs":[{"name":"listingId","type":"uint256","indexed":true,"internalType":"uint256"}],"anonymous":false},{"type":"event","name":"ListingCreated","inputs":[{"name":"listingId","type":"uint256","indexed":true,"internalType":"uint256"},{"name":"seller","type":"address","indexed":true,"internalType":"address"},{"name":"token","type":"address","indexed":false,"internalType":"address"},{"name":"quoteToken","type":"address","indexed":false,"internalType":"address"},{"name":"strike","type":"uint256","indexed":false,"internalType":"uint256"},{"name":"maturity","type":"uint64","indexed":false,"internalType":"uint64"}],"anonymous":false},{"type":"error","name":"ListingNotActive","inputs":[]},{"type":"error","name":"NotSeller","inputs":[]},{"type":"error","name":"SenderNotAllowedToUseHandle","inputs":[{"name":"handle","type":"bytes32","internalType":"bytes32"},{"name":"sender","type":"address","internalType":"address"}]}],"bytecode":{"object":"0x6080806040523461001657611283908161001b8239f35b5f80fdfe6080806040526004361015610012575f80fd5b5f905f3560e01c908163107a274a14610b0057508063305a67a8146109ce578063aaccf1ec146109b1578063cd2502ee14610442578063d8009e9c146100f55763de74e57b14610060575f80fd5b346100f25760203660031901126100f257604061010091600435815260016020522060018060a01b0380825416918160018201541691600282015416600382015467ffffffffffffffff6004840154169060058401549260ff600760068701549601541695604051978852602088015260408701526060860152608085015260a084015260c0830152151560e0820152f35b80fd5b50346100f2576101003660031901126100f2576004356001600160a01b038116810361043e57602435906001600160a01b038216820361043a5760643567ffffffffffffffff811681036104365760c43567ffffffffffffffff811161043257610163903690600401610b7a565b60e49291923567ffffffffffffffff811161042e576101b5916101a561019d6101936101ad943690600401610b7a565b9790933691610bde565b608435610c3c565b943691610bde565b60a435610c3c565b936001600160a01b0384163b1561041f5760405163577706e160e01b81523360048201526024810184905286908181604481836001600160a01b038b165af180156104235761040b575b5054945f1986146103f7576001860187556040519361010085019785891067ffffffffffffffff8a11176103e357600767ffffffffffffffff96899260209b6040523382528b820160018060a01b038b1681526040830160018060a01b038916815260608401604435815260808501918c8c16835260a0860193898552604060c08801968c885260e089019a60018c528152602060019052209660018060a01b03905116906bffffffffffffffffffffffff60a01b9182895416178855600188019060018060a01b0390511682825416179055600287019160018060a01b03905116908254161790555160038501558a600485019151168b19825416179055516005830155516006820155019051151560ff8019835416911617905580156103d0575b61032d9030906111b1565b80801591826103bd575b6103429030906111b1565b906103aa575b6103539033906111b1565b6040519360018060a01b0316845260018060a01b0316858401526044356040840152166060820152817f27b5482a00cd827a7d07e8a6c989fbacdc0a0e08d7559dc36475b1f970ab635b60803393a3604051908152f35b506103536103b661110b565b9050610348565b506103426103c961110b565b9050610337565b5061032d6103dc61110b565b9050610322565b634e487b7160e01b5f52604160045260245ffd5b634e487b7160e01b87526011600452602487fd5b61041490610ba8565b61041f57855f6101ff565b8580fd5b6040513d84823e3d90fd5b8680fd5b8480fd5b8380fd5b8280fd5b5080fd5b50346100f25760a03660031901126100f25767ffffffffffffffff60643581811161043a57610475903690600401610b7a565b90916084359081116104365761048f903690600401610b7a565b60043585526001602052604085209260ff6007850154161561099f576020816104dc6104d489966104cc6104c436868d610bde565b602435610c3c565b963691610bde565b604435610c3c565b9660018060a01b03600288015416908660a4604051809781968295634d04a1a960e11b8452336004850152306024850152602435604485015260806064850152816084850152848401378181018301849052601f01601f191681010301925af1801561099457610975575b5060068301610557815483610e3f565b6005850195610567818854610e3f565b8215610964575b8015610951575b5f8051602061122e8339815191525460405163d99882d560e01b8152600481019490945260248401919091526001600160f81b0319861660448401526020908390606490829089906001600160a01b03165af191821561094657859261090a575b50906106036105fb6105ec610611948a54610ef2565b6105f461110b565b9084610f76565b935485610ef2565b61060b61110b565b91610f76565b9161062783610621848954611087565b92611087565b60018601805491939182159061064b906001600160a01b031684836108b6576111b1565b82906108f7575b61065d9033906111b1565b80546001600160a01b0316803b1561042e5760405163b88baa8d60e01b80825230600483015233602483015260448201949094529087908290606490829084905af19081156108ec5787916108d8575b505080546106e7908415906106d0906001600160a01b031686836108b6576111b1565b88546001600160a01b03169085906108b6576111b1565b5486546001600160a01b03908116939116803b1561042e576040519283523060048401526001600160a01b0393909316602483015260448201529084908290606490829084905af19081156108705784916108c4575b5050835461075a906001600160a01b03168380156108b6576111b1565b60028401548454604051637d32e7bd60e01b8082526001600160a01b039283166004830152602482019590955294602092869260449284929091165af19182156108ab576107f19360209361088e575b5081821561087b575b6107be9033906111b1565b600285015460405191825233600483015260248201929092529283916001600160a01b0316908290889082906044820190565b03925af1801561087057610841575b50600701805460ff1916905561081461110b565b9055336004357fccc685cfdc44fc2121de4dc348ba1549b46fdcd9c53dad08097cc0f5bd85e9e38380a380f35b6108629060203d602011610869575b61085a8183610bbc565b810190610c24565b505f610800565b503d610850565b6040513d86823e3d90fd5b506107be61088761110b565b90506107b3565b6108a490843d86116108695761085a8183610bbc565b505f6107aa565b6040513d88823e3d90fd5b506108bf61110b565b6111b1565b6108cd90610ba8565b61043a57825f61073d565b6108e190610ba8565b61041f57855f6106ad565b6040513d89823e3d90fd5b5061065d61090361110b565b9050610652565b915093506020813d60201161093e575b8161092760209383610bbc565b8101031261093a575186936106036105d6565b5f80fd5b3d915061091a565b6040513d87823e3d90fd5b50602061095d8661115e565b9050610575565b915061096f8561115e565b9161056e565b61098d9060203d6020116108695761085a8183610bbc565b505f610547565b6040513d85823e3d90fd5b6040516366cb03e960e01b8152600490fd5b50346100f257806003193601126100f25760209054604051908152f35b503461093a57602036600319011261093a57600435805f52600160205260405f206007810180549060ff82161561099f5782546001600160a01b03919082163303610aee57600584019081549360ff19169055610a2961110b565b90558060018401610a5982825416610a498691871592836108b6576111b1565b838754169086906108b6576111b1565b541692541690823b1561093a5760405163b88baa8d60e01b81523060048201526001600160a01b039290921660248301526044820152905f908290606490829084905af18015610ae357610ad0575b507f411aee90354c51b1b04cd563fcab2617142a9d50da19232d888547c8a1b7fd8a8280a280f35b610adb919250610ba8565b5f905f610aa8565b6040513d5f823e3d90fd5b604051635ec8235160e01b8152600490fd5b3461093a57602036600319011261093a5760c0906004355f52600160205260405f2060018060a01b03908181541691806001830154169060028301541660038301549160ff600767ffffffffffffffff600487015416950154169486526020860152604085015260608401526080830152151560a0820152f35b9181601f8401121561093a5782359167ffffffffffffffff831161093a576020838186019501011161093a57565b67ffffffffffffffff81116103e357604052565b90601f8019910116810190811067ffffffffffffffff8211176103e357604052565b92919267ffffffffffffffff82116103e35760405191610c08601f8201601f191660200184610bbc565b82948184528183011161093a578281602093845f960137010152565b9081602091031261093a5751801515810361093a5790565b815190919015610d87575f8051602061122e8339815191525460405163045fc19560e11b81526004810193909352336024840152608060448401528151608484018190526001600160a01b0392918316918491905f5b828110610d6f57505091815f60a4828683836020998401015260056064830152601f801991011681010301925af1918215610ae3575f92610d3b575b507f9e7b61f58c47dc699ac88507c4f5bb9f121c03808c5676a8078fe583e46497005416803b1561093a57604051630f8e573b60e21b815260048101839052336024820152905f908290604490829084905af18015610ae357610d2f575090565b610d3890610ba8565b90565b9091506020813d602011610d67575b81610d5760209383610bbc565b8101031261093a5751905f610cce565b3d9150610d4a565b602082820181015160a4898401015287945001610c92565b508015610e36577f9e7b61f58c47dc699ac88507c4f5bb9f121c03808c5676a8078fe583e4649700546040516382027b6d60e01b81526004810183905233602482015290602090829060449082906001600160a01b03165afa908115610ae3575f91610e17575b5015610df75790565b604051630276b5d960e01b81526004810191909152336024820152604490fd5b610e30915060203d6020116108695761085a8183610bbc565b5f610dee565b50610d3861110b565b908115610ee2575b8015610ed0575b602090606460018060a01b035f8051602061122e8339815191525416935f6040519586948593631391547f60e01b8552600485015260248401528160448401525af1908115610ae3575f91610ea1575090565b90506020813d602011610ec8575b81610ebc60209383610bbc565b8101031261093a575190565b3d9150610eaf565b506020610edb61110b565b9050610e4e565b9050610eec61110b565b90610e47565b908115610f66575b8015610f54575b602090606460018060a01b035f8051602061122e8339815191525416935f60405195869485936304559f7160e01b8552600485015260248401528160448401525af1908115610ae3575f91610ea1575090565b506020610f5f61110b565b9050610f01565b9050610f7061110b565b90610efa565b91908215611003575b8015610ff5575b8115610fdf575b6064602092935f60018060a01b035f8051602061122e83398151915254166040519687958694637702dcff60e01b86526004860152602485015260448401525af1908115610ae3575f91610ea1575090565b602091506064610fed61110b565b925050610f8d565b50610ffe61110b565b610f86565b91505f602060018060a01b035f8051602061122e8339815191525416604460405180948193639cd07acb60e01b83528160048401528160248401525af1908115610ae3575f91611055575b5091610f7f565b90506020813d60201161107f575b8161107060209383610bbc565b8101031261093a57515f61104e565b3d9150611063565b9081156110fb575b80156110e9575b602090606460018060a01b035f8051602061122e8339815191525416935f60405195869485936303056db360e31b8552600485015260248401528160448401525af1908115610ae3575f91610ea1575090565b5060206110f461110b565b9050611096565b905061110561110b565b9061108f565b5f8051602061122e83398151915254604051639cd07acb60e01b81525f60048201819052600560248301529091602091839160449183916001600160a01b03165af1908115610ae3575f91610ea1575090565b5f8051602061122e83398151915254604051639cd07acb60e01b815260048101929092525f6024830181905260209183916044918391906001600160a01b03165af1908115610ae3575f91610ea1575090565b7f9e7b61f58c47dc699ac88507c4f5bb9f121c03808c5676a8078fe583e4649700546001600160a01b031691823b1561093a57604051635ca4b5b160e11b815260048101929092526001600160a01b03166024820152905f908290604490829084905af18015610ae3576112225750565b61122b90610ba8565b56fe9e7b61f58c47dc699ac88507c4f5bb9f121c03808c5676a8078fe583e4649701a26469706673582212203c8361e8fbc3ccc8da7f6b5da4aa5f0e9f37ef0a0f931d76c4286affcfff1a7364736f6c63430008180033","linkReferences":{}},"methodIdentifiers":{"cancelListing(uint256)":"305a67a8","createListing(address,address,uint256,uint64,bytes32,bytes32,bytes,bytes)":"d8009e9c","fill(uint256,bytes32,bytes32,bytes,bytes)":"cd2502ee","getListing(uint256)":"107a274a","listings(uint256)":"de74e57b","nextListingId()":"aaccf1ec"},"id":18}