{"abi":[{"type":"constructor","inputs":[{"name":"confFactory_","type":"address","internalType":"address"},{"name":"pubFactory_","type":"address","internalType":"address"}],"stateMutability":"nonpayable"},{"type":"function","name":"confidentialFactory","inputs":[],"outputs":[{"name":"","type":"address","internalType":"contract IOptionFactory"}],"stateMutability":"view"},{"type":"function","name":"publicFactory","inputs":[],"outputs":[{"name":"","type":"address","internalType":"contract IOptionFactory"}],"stateMutability":"view"},{"type":"function","name":"unshield","inputs":[{"name":"strike","type":"uint256","internalType":"uint256"},{"name":"maturity","type":"uint64","internalType":"uint64"},{"name":"isStable","type":"bool","internalType":"bool"},{"name":"amount","type":"uint256","internalType":"uint256"}],"outputs":[],"stateMutability":"nonpayable"},{"type":"event","name":"Unshielded","inputs":[{"name":"user","type":"address","indexed":true,"internalType":"address"},{"name":"strike","type":"uint256","indexed":true,"internalType":"uint256"},{"name":"maturity","type":"uint64","indexed":false,"internalType":"uint64"},{"name":"isStable","type":"bool","indexed":false,"internalType":"bool"},{"name":"amount","type":"uint256","indexed":false,"internalType":"uint256"}],"anonymous":false},{"type":"error","name":"SeriesNotFound","inputs":[]}],"bytecode":{"object":"0x60c03461009157601f61069938819003918201601f19168301916001600160401b0383118484101761009557808492604094855283398101031261009157610052602061004b836100a9565b92016100a9565b6001600160a01b039182166080521660a0526040516105db90816100be8239608051818181609d015261014a015260a051818181605601526101ae0152f35b5f80fd5b634e487b7160e01b5f52604160045260245ffd5b51906001600160a01b03821682036100915756fe6080604081815260049182361015610015575f80fd5b5f925f3560e01c9182636b65da56146100cc5750508063b3b0d536146100895763f453e69014610043575f80fd5b34610085578160031936011261008557517f00000000000000000000000000000000000000000000000000000000000000006001600160a01b03168152602090f35b5080fd5b5034610085578160031936011261008557517f00000000000000000000000000000000000000000000000000000000000000006001600160a01b03168152602090f35b909150346103eb5760803660031901126103eb5781359267ffffffffffffffff6024803582811695918682036103eb5760448035801515958682036103eb57636261225160e11b808a52868a018c815267ffffffffffffffff871660208201526064359a6001600160a01b03979290918b908390819060400103818b7f0000000000000000000000000000000000000000000000000000000000000000165afa92831561045557898f9493928d925f945f966104fe575b50835191825291810195865267ffffffffffffffff909116602086015293849081906040015b03818b7f0000000000000000000000000000000000000000000000000000000000000000165afa918215610455575f935f936104c9575b508882161580156104bf575b6104af579188809897969594925f9b9a94878d146104a857505b16948a146104a157505b16947f9e7b61f58c47dc699ac88507c4f5bb9f121c03808c5676a8078fe583e4649701908b818354168c5194639cd07acb60e01b92838752168a86015260058886015284878160209d8e945af193841561049757868b928e8c935f9861045f575b50879688156103ef575b5050505050507f9e7b61f58c47dc699ac88507c4f5bb9f121c03808c5676a8078fe583e4649700541690813b156103eb575f918583928d519485938492635ca4b5b160e11b84528d840152888b8401525af180156103e1576103c4575b50908c9594939291813b156103945786918383928c51948593849263588f0b0160e01b8452338c850152898401525af180156103ba579086916103a6575b5050823b156103a25788938580948a5196879586946340c10f1960e01b865233908601528401525af1801561039857610380575b505082519485528401528201527fb402329afdfdf99cdcd229d42c1343dc3c067958df554a24984c44c1524d34ca60603392a380f35b61038990610523565b61039457865f61034a565b8680fd5b85513d84823e3d90fd5b8480fd5b6103af90610523565b6103a257845f610316565b89513d88823e3d90fd5b6103d49196959493929d50610523565b5f9b90919293945f6102d8565b8a513d5f823e3d90fd5b5f80fd5b865f979850879291541690519687958694855284015260058c8401525af1908115610455575f91610428575b50908888865f8e8161027b565b90508881813d831161044e575b61043f818361054b565b810103126103eb57515f61041b565b503d610435565b8b513d5f823e3d90fd5b9493505095505081813d8311610490575b61047a818361054b565b810103126103eb5788868d958c9351965f610271565b503d610470565b8c513d5f823e3d90fd5b9050610210565b9050610206565b8b5163948389ab60e01b81528a90fd5b50888416156101ec565b9092506104ed9193508b3d8d116104f7575b6104e5818361054b565b810190610581565b929092915f6101e0565b503d6104db565b61051b9196506101a99550843d86116104f7576104e5818361054b565b959094610183565b67ffffffffffffffff811161053757604052565b634e487b7160e01b5f52604160045260245ffd5b90601f8019910116810190811067ffffffffffffffff82111761053757604052565b51906001600160a01b03821682036103eb57565b91908260409103126103eb576105a2602061059b8461056d565b930161056d565b9056fea264697066735822122048635fe206bb468aaeffb010fdaaa48719a05298b53d27340aed742734109f0c64736f6c63430008180033","linkReferences":{}},"methodIdentifiers":{"confidentialFactory()":"b3b0d536","publicFactory()":"f453e690","unshield(uint256,uint64,bool,uint256)":"6b65da56"},"id":16}