{"abi":[{"type":"constructor","inputs":[{"name":"confFactory_","type":"address","internalType":"address"},{"name":"pubFactory_","type":"address","internalType":"address"}],"stateMutability":"nonpayable"},{"type":"function","name":"authorizeSeries","inputs":[{"name":"strike","type":"uint256","internalType":"uint256"},{"name":"maturity","type":"uint64","internalType":"uint64"}],"outputs":[],"stateMutability":"nonpayable"},{"type":"function","name":"confidentialFactory","inputs":[],"outputs":[{"name":"","type":"address","internalType":"contract IBridgeAuthorizableFactory"}],"stateMutability":"view"},{"type":"function","name":"finalizeUnshield","inputs":[{"name":"requestId","type":"uint256","internalType":"uint256"},{"name":"abiEncodedCleartexts","type":"bytes","internalType":"bytes"},{"name":"decryptionProof","type":"bytes","internalType":"bytes"}],"outputs":[],"stateMutability":"nonpayable"},{"type":"function","name":"nextRequestId","inputs":[],"outputs":[{"name":"","type":"uint256","internalType":"uint256"}],"stateMutability":"view"},{"type":"function","name":"publicFactory","inputs":[],"outputs":[{"name":"","type":"address","internalType":"contract IPublicOptionFactory"}],"stateMutability":"view"},{"type":"function","name":"requests","inputs":[{"name":"","type":"uint256","internalType":"uint256"}],"outputs":[{"name":"user","type":"address","internalType":"address"},{"name":"strike","type":"uint256","internalType":"uint256"},{"name":"maturity","type":"uint64","internalType":"uint64"},{"name":"isStable","type":"bool","internalType":"bool"},{"name":"requestedAmount","type":"uint64","internalType":"uint64"},{"name":"burnedAmount","type":"bytes32","internalType":"euint64"},{"name":"finalized","type":"bool","internalType":"bool"}],"stateMutability":"view"},{"type":"function","name":"unshield","inputs":[{"name":"strike","type":"uint256","internalType":"uint256"},{"name":"maturity","type":"uint64","internalType":"uint64"},{"name":"isStable","type":"bool","internalType":"bool"},{"name":"amount","type":"uint256","internalType":"uint256"}],"outputs":[{"name":"requestId","type":"uint256","internalType":"uint256"}],"stateMutability":"nonpayable"},{"type":"event","name":"PublicDecryptionVerified","inputs":[{"name":"handlesList","type":"bytes32[]","indexed":false,"internalType":"bytes32[]"},{"name":"abiEncodedCleartexts","type":"bytes","indexed":false,"internalType":"bytes"}],"anonymous":false},{"type":"event","name":"UnshieldFinalized","inputs":[{"name":"requestId","type":"uint256","indexed":true,"internalType":"uint256"},{"name":"user","type":"address","indexed":true,"internalType":"address"},{"name":"strike","type":"uint256","indexed":true,"internalType":"uint256"},{"name":"maturity","type":"uint64","indexed":false,"internalType":"uint64"},{"name":"isStable","type":"bool","indexed":false,"internalType":"bool"},{"name":"amount","type":"uint64","indexed":false,"internalType":"uint64"}],"anonymous":false},{"type":"event","name":"UnshieldRequested","inputs":[{"name":"requestId","type":"uint256","indexed":true,"internalType":"uint256"},{"name":"user","type":"address","indexed":true,"internalType":"address"},{"name":"strike","type":"uint256","indexed":true,"internalType":"uint256"},{"name":"maturity","type":"uint64","indexed":false,"internalType":"uint64"},{"name":"isStable","type":"bool","indexed":false,"internalType":"bool"},{"name":"requestedAmount","type":"uint64","indexed":false,"internalType":"uint64"},{"name":"burnedAmountHandle","type":"bytes32","indexed":false,"internalType":"bytes32"}],"anonymous":false},{"type":"error","name":"AlreadyFinalized","inputs":[]},{"type":"error","name":"AmountTooLarge","inputs":[]},{"type":"error","name":"BurnExceedsRequest","inputs":[]},{"type":"error","name":"InvalidKMSSignatures","inputs":[]},{"type":"error","name":"RequestNotFound","inputs":[]},{"type":"error","name":"SeriesNotFound","inputs":[]},{"type":"error","name":"ZamaProtocolUnsupported","inputs":[]}],"bytecode":{"object":"0x60c034620002aa57620010f890601f38839003908101601f19168201906001600160401b03821183831017620002ae5780839160409586948552833981010312620002aa576200005d60206200005583620002e2565b9201620002e2565b62000067620002f7565b5046600103620001ba576200007b620002f7565b5062000086620002c2565b73ca2e8f1f656cd25c01f05d0b243ab1ecd4a8ffb6815273d82385dada1ae3e969447f20a3164f6213100e7560208201527377627828a55156b04ac0dc0eb30467f1a552bb03848201525b80517f9e7b61f58c47dc699ac88507c4f5bb9f121c03808c5676a8078fe583e464970080546001600160a01b03199081166001600160a01b039384161790915560208301517f9e7b61f58c47dc699ac88507c4f5bb9f121c03808c5676a8078fe583e464970180548316918416919091179055918501517f9e7b61f58c47dc699ac88507c4f5bb9f121c03808c5676a8078fe583e46497028054909316908216179091559182166080521660a05251610de49081620003148239608051818181610438015281816105540152610aed015260a05181818160800152818161028901526105b20152f35b4662aa36a7036200022a57620001cf620002f7565b50620001da620002c2565b73f0ffdc93b7e186bc2f8cb3daa75d86d1930a433d81527392c920834ec8941d2c77d188936e1f7a6f49c127602082015273be0e383937d564d7ff0bc3b46c51f0bf8d5c311a84820152620000d1565b46617a690362000299576200023e620002f7565b5062000249620002c2565b7350157cffd6bbfa2dece204a89ec419c23ef5755d815273e3a9105a3a932253a70f126eb1e3b589c643dd24602082015273901f8942346f7ab3a01f6d7613119bca447bb03084820152620000d1565b82516373cac13b60e01b8152600490fd5b5f80fd5b634e487b7160e01b5f52604160045260245ffd5b60405190606082016001600160401b03811183821017620002ae57604052565b51906001600160a01b0382168203620002aa57565b62000301620002c2565b905f82525f60208301525f604083015256fe6080806040526004361015610012575f80fd5b5f905f3560e01c9081633977ae0314610ad0575080636a84a98514610ab35780636b65da56146104ee57806381d12c5814610467578063b3b0d53614610422578063ccd85b34146100b25763f453e6901461006b575f80fd5b346100af57806003193601126100af576040517f00000000000000000000000000000000000000000000000000000000000000006001600160a01b03168152602090f35b80fd5b50346100af5760031960603682011261041e576001600160401b03600435602435828111610381576100e8903690600401610b7a565b93909260443581811161041a57610103903690600401610b7a565b92909484885260209160018352604089209460018060a01b0398898754161561040857600487019860ff8a54166103f657856101dc6003956101cc8f8f956101eb6101828f9261017a8e6040519e8f9661015c88610bce565b600188528c36818a0137015461017187610c42565b528c3691610c63565b9b3691610c63565b977f9e7b61f58c47dc699ac88507c4f5bb9f121c03808c5676a8078fe583e4649702541694604051988997889687956378542ead60e01b8752606060048801526064870190610ca8565b838682030160248701528d610cdb565b91848303016044850152610cdb565b03925af19081156103eb578c916103b1575b501561039f577fc6366bab028b8d033cb362cfd1f2f3457ef4e92fc738b6788b90d5a7846367a0610242869461024f8795604051938493604085526040850190610ca8565b9083820389850152610cdb565b0390a18101031261039b573590828216809203610397576002840196875496848860481c16841161038557600160ff1982541617905588817f0000000000000000000000000000000000000000000000000000000000000000169760018701988954908489541690803b156103815784928360a4928b9460ff60405198899788966349adc32360e11b885260048801528116602487015260401c161515604485015260648401528a60848401525af1801561037657610356575b50509060ff60609493927f8c7658689481e211ce2b0e03297795b6a6c054cb255fbaeb837ba332188a39fc96541697549854604051948116855260401c161515908301526040820152a480f35b610364909594939295610ba7565b61037257909192885f610309565b8880fd5b6040513d84823e3d90fd5b8480fd5b6040516385cb204160e01b8152600490fd5b5f80fd5b8780fd5b60405163cf6c44e960e01b8152600490fd5b90508581813d83116103e4575b6103c88183610be9565b810103126103e0575180151581036103e0575f6101fd565b8b80fd5b503d6103be565b6040513d8e823e3d90fd5b60405163475a253560e01b8152600490fd5b604051632589d98f60e11b8152600490fd5b8680fd5b5080fd5b50346100af57806003193601126100af576040517f00000000000000000000000000000000000000000000000000000000000000006001600160a01b03168152602090f35b50346100af5760203660031901126100af57604060e091600435815260016020522060018060a01b038154169060018101549060028101546001600160401b039060ff6004600385015494015416936040519586526020860152818116604086015260ff8160401c161515606086015260481c16608084015260a0830152151560c0820152f35b50346100af5760803660031901126100af5760043561050b610b64565b90604435908115158203610aaf5760408051636261225160e11b808252600482018490526001600160401b03861660248301526064359591949192856044816001600160a01b037f0000000000000000000000000000000000000000000000000000000000000000165afa94851561093e5787908896610a8b575b5060408051928352600483018690526001600160401b0385166024840152826044816001600160a01b037f0000000000000000000000000000000000000000000000000000000000000000165afa9586156109ad5788928997610a54575b508315610a4c5750945b8215610a445750935b6001600160a01b0316938415908115610a32575b50610a20576001600160401b038511610a0e5760018060a01b037f9e7b61f58c47dc699ac88507c4f5bb9f121c03808c5676a8078fe583e4649701541660405194639cd07acb60e01b86526001600160401b03871660048701526020866044815f6024966005888401525af1908115610a035788965f926109cc575b508180156109bc575b7f9e7b61f58c47dc699ac88507c4f5bb9f121c03808c5676a8078fe583e464970080549093906001600160a01b0316803b156109b85760448a926040519d8e938492635ca4b5b160e11b84526004840152878a8401525af1998a156109ad5788999a9896979861098d575b50906044602092604051978893849263588f0b0160e01b8452336004850152888401525af193841561093e578794610959575b5083908415610949575b6040519161074583610bce565b600183526020368185013761075983610c42565b52546001600160a01b031690813b1561039b5761079688928392604051948580948193637d6e912360e11b83526020600484015289830190610ca8565b03925af1801561093e57908791610926575b5054955f198714610915576001870181556040519160e08301908382106001600160401b0383111761090257506004602099936001600160401b0395938a93604052338252898c83015286891660408301526060820191851515835260808101928888168452604060a08301938b855260c084019781895281528f60019052209360018060a01b038351166bffffffffffffffffffffffff60a01b8654161785558e8301516001860155896040600287019401511670ffffffffffffffff00000000000000000068ff000000000000000085549451151560401b16925160481b169270ffffffffffffffffffffffffffffffffff19161717179055516003820155019051151560ff8019835416911617905582604051951685521515878501521660408301526060820152827fff065942a1e053cf2ae2fa4692855decd368524dcdd26db53713afa8934c51be60803393a4604051908152f35b634e487b7160e01b5f9081526041600452fd5b634e487b7160e01b81526011600452fd5b61092f90610ba7565b61093a57855f6107a8565b8580fd5b6040513d89823e3d90fd5b9050610953610d19565b90610738565b9093506020813d602011610985575b8161097560209383610be9565b8101031261041a5751925f61072e565b3d9150610968565b61099d9096919293949596610ba7565b61039b579087949392915f6106fb565b6040513d8a823e3d90fd5b8980fd5b91506109c6610d19565b91610690565b965090506020863d6020116109fb575b816109e960209383610be9565b8101031261039757879551905f610687565b3d91506109dc565b6040513d5f823e3d90fd5b604051630625040160e01b8152600490fd5b60405163948389ab60e01b8152600490fd5b6001600160a01b03161590505f61060b565b9050936105f7565b9050946105ee565b909650610a7a91925060403d604011610a84575b610a728183610be9565b810190610c1e565b919091955f6105e4565b503d610a68565b9050610aa791955060403d604011610a8457610a728183610be9565b94905f610586565b8380fd5b50346100af57806003193601126100af5760209054604051908152f35b90503461039757604036600319011261039757610aeb610b64565b7f00000000000000000000000000000000000000000000000000000000000000006001600160a01b031690813b1561039757631ec5d83560e21b835260048035908401526001600160401b031660248301525f908290604490829084905af18015610a0357610b58575080f35b610b629150610ba7565b005b602435906001600160401b038216820361039757565b9181601f84011215610397578235916001600160401b038311610397576020838186019501011161039757565b6001600160401b038111610bba57604052565b634e487b7160e01b5f52604160045260245ffd5b604081019081106001600160401b03821117610bba57604052565b90601f801991011681019081106001600160401b03821117610bba57604052565b51906001600160a01b038216820361039757565b919082604091031261039757610c3f6020610c3884610c0a565b9301610c0a565b90565b805115610c4f5760200190565b634e487b7160e01b5f52603260045260245ffd5b9291926001600160401b038211610bba5760405191610c8c601f8201601f191660200184610be9565b829481845281830111610397578281602093845f960137010152565b9081518082526020808093019301915f5b828110610cc7575050505090565b835185529381019392810192600101610cb9565b91908251928382525f5b848110610d05575050825f602080949584010152601f8019910116010190565b602081830181015184830182015201610ce5565b7f9e7b61f58c47dc699ac88507c4f5bb9f121c03808c5676a8078fe583e464970154604051639cd07acb60e01b81525f60048201819052600560248301529091602091839160449183916001600160a01b03165af1908115610a03575f91610d7f575090565b90506020813d602011610da6575b81610d9a60209383610be9565b81010312610397575190565b3d9150610d8d56fea26469706673582212206c33ffb665276abf885c12467271f5532a5cf9440d14b5701903c48a78fb681664736f6c63430008180033","linkReferences":{}},"methodIdentifiers":{"authorizeSeries(uint256,uint64)":"3977ae03","confidentialFactory()":"b3b0d536","finalizeUnshield(uint256,bytes,bytes)":"ccd85b34","nextRequestId()":"6a84a985","publicFactory()":"f453e690","requests(uint256)":"81d12c58","unshield(uint256,uint64,bool,uint256)":"6b65da56"},"id":41}