{"abi":[{"type":"constructor","inputs":[{"name":"name_","type":"string","internalType":"string"},{"name":"symbol_","type":"string","internalType":"string"},{"name":"factory_","type":"address","internalType":"address"},{"name":"strike_","type":"uint256","internalType":"uint256"},{"name":"maturity_","type":"uint64","internalType":"uint64"},{"name":"isStable_","type":"bool","internalType":"bool"}],"stateMutability":"nonpayable"},{"type":"function","name":"allowance","inputs":[{"name":"owner","type":"address","internalType":"address"},{"name":"spender","type":"address","internalType":"address"}],"outputs":[{"name":"","type":"uint256","internalType":"uint256"}],"stateMutability":"view"},{"type":"function","name":"approve","inputs":[{"name":"spender","type":"address","internalType":"address"},{"name":"value","type":"uint256","internalType":"uint256"}],"outputs":[{"name":"","type":"bool","internalType":"bool"}],"stateMutability":"nonpayable"},{"type":"function","name":"authorized","inputs":[{"name":"","type":"address","internalType":"address"}],"outputs":[{"name":"","type":"bool","internalType":"bool"}],"stateMutability":"view"},{"type":"function","name":"balanceOf","inputs":[{"name":"account","type":"address","internalType":"address"}],"outputs":[{"name":"","type":"uint256","internalType":"uint256"}],"stateMutability":"view"},{"type":"function","name":"burn","inputs":[{"name":"from","type":"address","internalType":"address"},{"name":"amount","type":"uint256","internalType":"uint256"}],"outputs":[],"stateMutability":"nonpayable"},{"type":"function","name":"decimals","inputs":[],"outputs":[{"name":"","type":"uint8","internalType":"uint8"}],"stateMutability":"pure"},{"type":"function","name":"factory","inputs":[],"outputs":[{"name":"","type":"address","internalType":"address"}],"stateMutability":"view"},{"type":"function","name":"isStable","inputs":[],"outputs":[{"name":"","type":"bool","internalType":"bool"}],"stateMutability":"view"},{"type":"function","name":"maturity","inputs":[],"outputs":[{"name":"","type":"uint64","internalType":"uint64"}],"stateMutability":"view"},{"type":"function","name":"mint","inputs":[{"name":"to","type":"address","internalType":"address"},{"name":"amount","type":"uint256","internalType":"uint256"}],"outputs":[],"stateMutability":"nonpayable"},{"type":"function","name":"name","inputs":[],"outputs":[{"name":"","type":"string","internalType":"string"}],"stateMutability":"view"},{"type":"function","name":"setAuthorized","inputs":[{"name":"addr","type":"address","internalType":"address"},{"name":"enabled","type":"bool","internalType":"bool"}],"outputs":[],"stateMutability":"nonpayable"},{"type":"function","name":"strike","inputs":[],"outputs":[{"name":"","type":"uint256","internalType":"uint256"}],"stateMutability":"view"},{"type":"function","name":"symbol","inputs":[],"outputs":[{"name":"","type":"string","internalType":"string"}],"stateMutability":"view"},{"type":"function","name":"totalSupply","inputs":[],"outputs":[{"name":"","type":"uint256","internalType":"uint256"}],"stateMutability":"view"},{"type":"function","name":"transfer","inputs":[{"name":"to","type":"address","internalType":"address"},{"name":"value","type":"uint256","internalType":"uint256"}],"outputs":[{"name":"","type":"bool","internalType":"bool"}],"stateMutability":"nonpayable"},{"type":"function","name":"transferFrom","inputs":[{"name":"from","type":"address","internalType":"address"},{"name":"to","type":"address","internalType":"address"},{"name":"value","type":"uint256","internalType":"uint256"}],"outputs":[{"name":"","type":"bool","internalType":"bool"}],"stateMutability":"nonpayable"},{"type":"event","name":"Approval","inputs":[{"name":"owner","type":"address","indexed":true,"internalType":"address"},{"name":"spender","type":"address","indexed":true,"internalType":"address"},{"name":"value","type":"uint256","indexed":false,"internalType":"uint256"}],"anonymous":false},{"type":"event","name":"Transfer","inputs":[{"name":"from","type":"address","indexed":true,"internalType":"address"},{"name":"to","type":"address","indexed":true,"internalType":"address"},{"name":"value","type":"uint256","indexed":false,"internalType":"uint256"}],"anonymous":false},{"type":"error","name":"ERC20InsufficientAllowance","inputs":[{"name":"spender","type":"address","internalType":"address"},{"name":"allowance","type":"uint256","internalType":"uint256"},{"name":"needed","type":"uint256","internalType":"uint256"}]},{"type":"error","name":"ERC20InsufficientBalance","inputs":[{"name":"sender","type":"address","internalType":"address"},{"name":"balance","type":"uint256","internalType":"uint256"},{"name":"needed","type":"uint256","internalType":"uint256"}]},{"type":"error","name":"ERC20InvalidApprover","inputs":[{"name":"approver","type":"address","internalType":"address"}]},{"type":"error","name":"ERC20InvalidReceiver","inputs":[{"name":"receiver","type":"address","internalType":"address"}]},{"type":"error","name":"ERC20InvalidSender","inputs":[{"name":"sender","type":"address","internalType":"address"}]},{"type":"error","name":"ERC20InvalidSpender","inputs":[{"name":"spender","type":"address","internalType":"address"}]},{"type":"error","name":"NotAuthorized","inputs":[]}],"bytecode":{"object":"0x610100604052346200038b5762000edf803803806200001e816200038f565b92833981019060c0818303126200038b5780516001600160401b03908181116200038b578362000050918401620003b5565b60209384840151908382116200038b576200006d918501620003b5565b6040840151909490916001600160a01b03831683036200038b5760608501519360808601519581871687036200038b5760a001519687151588036200038b57825182811162000296576003918254916001958684811c9416801562000380575b888510146200036c578190601f9485811162000319575b508890858311600114620002b6575f92620002aa575b50505f1982861b1c191690861b1783555b8051938411620002965760049586548681811c911680156200028b575b82821014620002785783811162000230575b5080928511600114620001c657509383949184925f95620001ba575b50501b925f19911b1c19161790555b60805260a05260c05260e052604051610ab9908162000426823960805181818161013b0152818161023b015281816104880152610539015260a051816101bd015260c05181610738015260e051816108390152f35b015193505f8062000156565b92919084601f198116885f52855f20955f905b89838310620002155750505010620001fb575b50505050811b01905562000165565b01519060f8845f19921b161c191690555f808080620001ec565b858701518955909701969485019488935090810190620001d9565b875f52815f208480880160051c8201928489106200026e575b0160051c019087905b828110620002625750506200013a565b5f815501879062000252565b9250819262000249565b602288634e487b7160e01b5f525260245ffd5b90607f169062000128565b634e487b7160e01b5f52604160045260245ffd5b015190505f80620000fa565b90889350601f19831691875f528a5f20925f5b8c828210620003025750508411620002ea575b505050811b0183556200010b565b01515f1983881b60f8161c191690555f8080620002dc565b8385015186558c97909501949384019301620002c9565b909150855f52885f208580850160051c8201928b861062000362575b918a91869594930160051c01915b82811062000353575050620000e4565b5f81558594508a910162000343565b9250819262000335565b634e487b7160e01b5f52602260045260245ffd5b93607f1693620000cd565b5f80fd5b6040519190601f01601f191682016001600160401b038111838210176200029657604052565b919080601f840112156200038b5782516001600160401b0381116200029657602090620003eb601f8201601f191683016200038f565b928184528282870101116200038b575f5b818110620004115750825f9394955001015290565b8581018301518482018401528201620003fc56fe6080604090808252600480361015610015575f80fd5b5f3560e01c91826306fdde031461085e5750816309047bdd14610822578163095ea7b31461077a57816318160ddd1461075c578163204f83f91461071857816323b872dd14610626578163313ce5671461060b57816340c10f191461050f57816370a08231146104d9578163711bf9b21461045557816395d89b41146103365781639dc29fac1461021057508063a9059cbb146101e0578063ad8f5008146101a6578063b91816111461016a578063c45a0155146101275763dd62ed3e146100db575f80fd5b346101235780600319360112610123576020906100f661097d565b6100fe610993565b9060018060a01b038091165f5260018452825f2091165f528252805f20549051908152f35b5f80fd5b5034610123575f36600319011261012357517f00000000000000000000000000000000000000000000000000000000000000006001600160a01b03168152602090f35b5034610123576020366003190112610123576020906001600160a01b0361018f61097d565b165f526005825260ff815f20541690519015158152f35b5034610123575f36600319011261012357602090517f00000000000000000000000000000000000000000000000000000000000000008152f35b50346101235780600319360112610123576020906102096101ff61097d565b60243590336109a9565b5160018152f35b823461012357806003193601126101235761022961097d565b602435929091906001600160a01b03337f00000000000000000000000000000000000000000000000000000000000000008216141580610320575b6103115783169283156102fb57835f525f602052825f2054918583106102c7575f857fddf252ad1be2c89b69c2b068fc378daa952ba7f163c4a11628f55a4df523b3ef6020898881898688528785520381872055816002540360025551908152a3005b835163391434e360e21b81526001600160a01b03909216908201908152602081018390526040810186905281906060010390fd5b505f6024925191634b637e8f60e11b8352820152fd5b50905163ea8e4eb560e01b8152fd5b50335f52600560205260ff835f20541615610264565b8234610123575f366003190112610123578051905f835460018160011c906001831692831561044b575b60209384841081146104385783885290811561041c57506001146103c8575b505050829003601f01601f191682019267ffffffffffffffff8411838510176103b557508291826103b1925282610936565b0390f35b604190634e487b7160e01b5f525260245ffd5b5f878152929350837f8a35acfbc15ff81a39ae7d344fd709f28e8600b4aa8c65c6b64bfe7fe36bd19b5b838510610408575050505083010184808061037f565b8054888601830152930192849082016103f2565b60ff1916878501525050151560051b840101905084808061037f565b602289634e487b7160e01b5f525260245ffd5b91607f1691610360565b823461012357806003193601126101235761046e61097d565b9160243592831515809403610123576001600160a01b03917f0000000000000000000000000000000000000000000000000000000000000000831633036104cb5750165f5260056020525f209060ff801983541691161790555f80f35b835163ea8e4eb560e01b8152fd5b8234610123576020366003190112610123576020906001600160a01b036104fe61097d565b165f525f8252805f20549051908152f35b823461012357806003193601126101235761052861097d565b60243591906001600160a01b0390337f000000000000000000000000000000000000000000000000000000000000000083161415806105f5575b6105e557169283156105d057600254908382018092116105bd57505f927fddf252ad1be2c89b69c2b068fc378daa952ba7f163c4a11628f55a4df523b3ef9260209260025585855284835280852082815401905551908152a3005b601190634e487b7160e01b5f525260245ffd5b5f602492519163ec442f0560e01b8352820152fd5b825163ea8e4eb560e01b81528590fd5b50335f52600560205260ff835f20541615610562565b8234610123575f366003190112610123576020905160068152f35b9050346101235760603660031901126101235761064161097d565b610649610993565b906044359260018060a01b038216805f526001602052855f20335f52602052855f2054915f198310610684575b6020876102098888886109a9565b8583106106ec5781156106d65733156106c057505f90815260016020908152868220338352815290869020918590039091558290610209610676565b6024905f885191634a1406b160e11b8352820152fd5b6024905f88519163e602df0560e01b8352820152fd5b8651637dc7a0d960e11b8152339181019182526020820193909352604081018690528291506060010390fd5b8234610123575f366003190112610123576020905167ffffffffffffffff7f0000000000000000000000000000000000000000000000000000000000000000168152f35b8234610123575f366003190112610123576020906002549051908152f35b823461012357806003193601126101235761079361097d565b60243590331561080c576001600160a01b03169081156107f65760209350335f5260018452825f20825f52845280835f205582519081527f8c5be1e5ebec7d5bd14f71427d1e84f3dd0314c0f7b2291e5b200ac8c7c3b925843392a35160018152f35b8251634a1406b160e11b81525f81860152602490fd5b825163e602df0560e01b81525f81860152602490fd5b8234610123575f36600319011261012357602090517f000000000000000000000000000000000000000000000000000000000000000015158152f35b8334610123575f366003190112610123575f60035460018160011c906001831692831561092c575b60209384841081146104385783885290811561041c57506001146108d657505050829003601f01601f191682019267ffffffffffffffff8411838510176103b557508291826103b1925282610936565b60035f908152929350837fc2575a0e9e593c00f959f8c92f12db2869c3395a3b0502d05e2516446f71f85b5b838510610918575050505083010184808061037f565b805488860183015293019284908201610902565b91607f1691610886565b602080825282518183018190529093925f5b82811061096957505060409293505f838284010152601f8019910116010190565b818101860151848201604001528501610948565b600435906001600160a01b038216820361012357565b602435906001600160a01b038216820361012357565b916001600160a01b03808416928315610a6b5716928315610a5357825f525f60205260405f205490828210610a215750817fddf252ad1be2c89b69c2b068fc378daa952ba7f163c4a11628f55a4df523b3ef92602092855f525f84520360405f2055845f5260405f20818154019055604051908152a3565b60405163391434e360e21b81526001600160a01b03919091166004820152602481019190915260448101829052606490fd5b60405163ec442f0560e01b81525f6004820152602490fd5b604051634b637e8f60e11b81525f6004820152602490fdfea264697066735822122041104cb0096e4ccd8d42b2cc81950fd9e197ad798d7f1227487944c9febcb52e64736f6c63430008180033","linkReferences":{}},"methodIdentifiers":{"allowance(address,address)":"dd62ed3e","approve(address,uint256)":"095ea7b3","authorized(address)":"b9181611","balanceOf(address)":"70a08231","burn(address,uint256)":"9dc29fac","decimals()":"313ce567","factory()":"c45a0155","isStable()":"09047bdd","maturity()":"204f83f9","mint(address,uint256)":"40c10f19","name()":"06fdde03","setAuthorized(address,bool)":"711bf9b2","strike()":"ad8f5008","symbol()":"95d89b41","totalSupply()":"18160ddd","transfer(address,uint256)":"a9059cbb","transferFrom(address,address,uint256)":"23b872dd"},"id":25}