{"abi":[{"type":"constructor","inputs":[{"name":"collateralToken_","type":"address","internalType":"address"},{"name":"factory_","type":"address","internalType":"address"}],"stateMutability":"nonpayable"},{"type":"receive","stateMutability":"payable"},{"type":"function","name":"BPS","inputs":[],"outputs":[{"name":"","type":"uint256","internalType":"uint256"}],"stateMutability":"view"},{"type":"function","name":"FLASH_CALLBACK_SUCCESS","inputs":[],"outputs":[{"name":"","type":"bytes32","internalType":"bytes32"}],"stateMutability":"view"},{"type":"function","name":"FLASH_FEE_BPS","inputs":[],"outputs":[{"name":"","type":"uint256","internalType":"uint256"}],"stateMutability":"view"},{"type":"function","name":"collateralToken","inputs":[],"outputs":[{"name":"","type":"address","internalType":"address"}],"stateMutability":"view"},{"type":"function","name":"depositReserve","inputs":[{"name":"seriesId","type":"bytes32","internalType":"bytes32"},{"name":"from","type":"address","internalType":"address"},{"name":"amount","type":"uint256","internalType":"uint256"}],"outputs":[],"stateMutability":"payable"},{"type":"function","name":"factory","inputs":[],"outputs":[{"name":"","type":"address","internalType":"address"}],"stateMutability":"view"},{"type":"function","name":"flashFee","inputs":[{"name":"token","type":"address","internalType":"address"},{"name":"amount","type":"uint256","internalType":"uint256"}],"outputs":[{"name":"","type":"uint256","internalType":"uint256"}],"stateMutability":"view"},{"type":"function","name":"flashLoan","inputs":[{"name":"receiver","type":"address","internalType":"contract IERC3156FlashBorrowerLike"},{"name":"token","type":"address","internalType":"address"},{"name":"amount","type":"uint256","internalType":"uint256"},{"name":"data","type":"bytes","internalType":"bytes"}],"outputs":[{"name":"","type":"bool","internalType":"bool"}],"stateMutability":"nonpayable"},{"type":"function","name":"flashLoanActive","inputs":[],"outputs":[{"name":"","type":"bool","internalType":"bool"}],"stateMutability":"view"},{"type":"function","name":"isNativeCollateral","inputs":[],"outputs":[{"name":"","type":"bool","internalType":"bool"}],"stateMutability":"view"},{"type":"function","name":"maxFlashLoan","inputs":[{"name":"token","type":"address","internalType":"address"}],"outputs":[{"name":"","type":"uint256","internalType":"uint256"}],"stateMutability":"view"},{"type":"function","name":"reserves","inputs":[{"name":"","type":"bytes32","internalType":"bytes32"}],"outputs":[{"name":"","type":"uint256","internalType":"uint256"}],"stateMutability":"view"},{"type":"function","name":"totalReserves","inputs":[],"outputs":[{"name":"","type":"uint256","internalType":"uint256"}],"stateMutability":"view"},{"type":"function","name":"withdrawReserve","inputs":[{"name":"seriesId","type":"bytes32","internalType":"bytes32"},{"name":"to","type":"address","internalType":"address"},{"name":"amount","type":"uint256","internalType":"uint256"}],"outputs":[],"stateMutability":"nonpayable"},{"type":"event","name":"FlashLoan","inputs":[{"name":"receiver","type":"address","indexed":true,"internalType":"address"},{"name":"initiator","type":"address","indexed":true,"internalType":"address"},{"name":"amount","type":"uint256","indexed":false,"internalType":"uint256"},{"name":"fee","type":"uint256","indexed":false,"internalType":"uint256"}],"anonymous":false},{"type":"event","name":"ReserveDeposited","inputs":[{"name":"seriesId","type":"bytes32","indexed":true,"internalType":"bytes32"},{"name":"from","type":"address","indexed":true,"internalType":"address"},{"name":"amount","type":"uint256","indexed":false,"internalType":"uint256"}],"anonymous":false},{"type":"event","name":"ReserveWithdrawn","inputs":[{"name":"seriesId","type":"bytes32","indexed":true,"internalType":"bytes32"},{"name":"to","type":"address","indexed":true,"internalType":"address"},{"name":"amount","type":"uint256","indexed":false,"internalType":"uint256"}],"anonymous":false},{"type":"error","name":"FlashLoanCallbackFailed","inputs":[]},{"type":"error","name":"FlashLoanReentrancy","inputs":[]},{"type":"error","name":"InsufficientLiquidity","inputs":[]},{"type":"error","name":"NotFactory","inputs":[]},{"type":"error","name":"TokenTransferFailed","inputs":[]},{"type":"error","name":"UnsupportedToken","inputs":[]}],"bytecode":{"object":"0x60e0346100e457601f610df038819003918201601f19168301916001600160401b038311848410176100e85780849260409485528339810103126100e457610052602061004b836100fc565b92016100fc565b608082905260a0526001600160a01b03161560c052604051610cdf908161011182396080518181816102b20152818161037d015281816104d60152818161063701528181610b7a0152610c54015260a051818181610160015281816101ac01526103e2015260c051818181601f01528181610205015281816104150152818161066c01528181610a020152610ba60152f35b5f80fd5b634e487b7160e01b5f52604160045260245ffd5b51906001600160a01b03821682036100e45756fe6080604081815260049182361015610052575b50361561001d575f80fd5b7f00000000000000000000000000000000000000000000000000000000000000001561004557005b5163350b944160e11b8152fd5b5f3560e01c908162bbf1e414610a5e57508063050fedb814610a43578063249d39e914610a2757806357dca0e8146109eb5780635cffe9de146105c4578063613255ab1461059f5780637b79b23e146105655780637e91e1a6146103ca5780638f840ddd146103ac578063b2016bd414610369578063c242970d1461018f578063c45a01551461014c578063d9d98ce41461011d5763ea1f3588146100f7575f610012565b34610119575f3660031901126101195760209060ff6002541690519015158152f35b5f80fd5b503461011957806003193601126101195760209061014561013c610a82565b60243590610c4a565b9051908152f35b5034610119575f36600319011261011957517f00000000000000000000000000000000000000000000000000000000000000006001600160a01b03168152602090f35b50346101195761019e36610a98565b9391926001600160a01b03927f00000000000000000000000000000000000000000000000000000000000000008416330361035b5760ff6002541661034d57845f525f602052815f206101f2878254610c3d565b905561020086600154610c3d565b6001557f000000000000000000000000000000000000000000000000000000000000000015610280575f808080898888165af161023b610b10565b50156102725750916020917fffcaa199744b4f26f65f7fcb044bf80d51f5f52627bded663e1e311fd5e36b67935b519586521693a3005b905163022e258160e11b8152fd5b815163a9059cbb60e01b81526001600160a01b0384168282019081526020818101899052908290819060400103815f897f0000000000000000000000000000000000000000000000000000000000000000165af1908115610343575f91610314575b50156102725750916020917fffcaa199744b4f26f65f7fcb044bf80d51f5f52627bded663e1e311fd5e36b6793610269565b610336915060203d60201161033c575b61032e8183610ac2565b810190610af8565b5f6102e2565b503d610324565b83513d5f823e3d90fd5b90516317a9cf1360e11b8152fd5b9051631966391b60e11b8152fd5b5034610119575f36600319011261011957517f00000000000000000000000000000000000000000000000000000000000000006001600160a01b03168152602090f35b5034610119575f366003190112610119576020906001549051908152f35b506103d436610a98565b9391926001600160a01b03927f00000000000000000000000000000000000000000000000000000000000000008416330361035b5760ff6002541661034d577f000000000000000000000000000000000000000000000000000000000000000015610496578534036102725750916020917f1d1dbfe660a144d4bd44700051a1712022edec759e93ccc609700a50d325fc45935b855f525f8452805f2061047c888254610b4f565b905561048a87600154610b4f565b600155519586521693a3005b346105575781516323b872dd60e01b81526001600160a01b0384168282019081523060208281019190915260408201899052908290819060600103815f897f0000000000000000000000000000000000000000000000000000000000000000165af1908115610343575f91610538575b50156102725750916020917f1d1dbfe660a144d4bd44700051a1712022edec759e93ccc609700a50d325fc4593610468565b610551915060203d60201161033c5761032e8183610ac2565b5f610506565b905163350b944160e11b8152fd5b5034610119575f36600319011261011957602090517f439148f0bbc682ca079e46d6e2c2f0c1e3b820f1a291b069d8882abf8cf18dd98152f35b5034610119576020366003190112610119576020906101456105bf610a82565b610b70565b5034610119576080366003190112610119576001600160a01b0391803583811690819003610119576024359380851680860361011957604435936064359667ffffffffffffffff93848911610119573660238a011215610119578883013594851161011957366024868b010111610119577f0000000000000000000000000000000000000000000000000000000000000000168084036109db576002549360ff85166109cb577f00000000000000000000000000000000000000000000000000000000000000009081156109605747935b848a1161095057896106a691610c4a565b60ff1996871660011760025596888b8b85156108d1575f80938193509181925af16106cf610b10565b50156108c1575b8060248c519d8e946323e30c8b60e01b8652338a870152828601528c60448601528a606486015260a060848601528260a48601520160c48401375f60c482840101528160c460209d8e93601f801991011681010301815f8c5af180156108b7575f9061086a575b7f439148f0bbc682ca079e46d6e2c2f0c1e3b820f1a291b069d8882abf8cf18dd991500361085a57899190156107cb57505061077a844792610b4f565b116107bd57505b600254166002558351928352848301527f0d7d75e01ab95780d3cd1c8ec0dd6c2ce19e3a20427eec8bf53283b6fb8e95f0833393a35160018152f35b855163022e258160e11b8152fd5b5f9250610815906107dc878a610b4f565b8a516323b872dd60e01b81526001600160a01b038a16878201908152306020820152604081019290925294859384928391606090910190565b03925af1908115610850575f91610833575b50156107bd5750610781565b61084a9150883d8a1161033c5761032e8183610ac2565b5f610827565b87513d5f823e3d90fd5b8851637d65916160e01b81528490fd5b508a81813d83116108b0575b6108808183610ac2565b81010312610119577f439148f0bbc682ca079e46d6e2c2f0c1e3b820f1a291b069d8882abf8cf18dd9905161073d565b503d610876565b8a513d5f823e3d90fd5b8a5163022e258160e11b81528690fd5b905163a9059cbb60e01b81526001600160a01b039092168883019081526020818101929092528290819060400103815f895af1908115610946575f91610927575b506106d6578a5163022e258160e11b81528690fd5b610940915060203d60201161033c5761032e8183610ac2565b5f610912565b8c513d5f823e3d90fd5b8a5163bb55fd2760e01b81528690fd5b89516370a0823160e01b81523086820152602081602481875afa9081156109c1575f9161098f575b5093610695565b90506020813d6020116109b9575b816109aa60209383610ac2565b8101031261011957515f610988565b3d915061099d565b8b513d5f823e3d90fd5b88516317a9cf1360e11b81528490fd5b875163350b944160e11b81528390fd5b5034610119575f36600319011261011957602090517f000000000000000000000000000000000000000000000000000000000000000015158152f35b5034610119575f36600319011261011957602090516127108152f35b5034610119575f366003190112610119576020905160058152f35b9190503461011957602036600319011261011957602092355f525f83525f20548152f35b600435906001600160a01b038216820361011957565b606090600319011261011957600435906024356001600160a01b0381168103610119579060443590565b90601f8019910116810190811067ffffffffffffffff821117610ae457604052565b634e487b7160e01b5f52604160045260245ffd5b90816020910312610119575180151581036101195790565b3d15610b4a573d9067ffffffffffffffff8211610ae45760405191610b3f601f8201601f191660200184610ac2565b82523d5f602084013e565b606090565b91908201809211610b5c57565b634e487b7160e01b5f52601160045260245ffd5b6001600160a01b037f000000000000000000000000000000000000000000000000000000000000000081169116819003610c38577f000000000000000000000000000000000000000000000000000000000000000015610bcf57504790565b6020602491604051928380926370a0823160e01b82523060048301525afa908115610c2d575f91610bfe575090565b90506020813d602011610c25575b81610c1960209383610ac2565b81010312610119575190565b3d9150610c0c565b6040513d5f823e3d90fd5b505f90565b91908203918211610b5c57565b6001600160a01b037f00000000000000000000000000000000000000000000000000000000000000008116911603610c9757600581029080820460051490151715610b5c57612710900490565b60405163350b944160e11b8152600490fdfea26469706673582212204a37598519470dcbda1a327a32c15930343d0909632e91e0c4d1d4d34fbd826164736f6c63430008180033","linkReferences":{}},"methodIdentifiers":{"BPS()":"249d39e9","FLASH_CALLBACK_SUCCESS()":"7b79b23e","FLASH_FEE_BPS()":"050fedb8","collateralToken()":"b2016bd4","depositReserve(bytes32,address,uint256)":"7e91e1a6","factory()":"c45a0155","flashFee(address,uint256)":"d9d98ce4","flashLoan(address,address,uint256,bytes)":"5cffe9de","flashLoanActive()":"ea1f3588","isNativeCollateral()":"57dca0e8","maxFlashLoan(address)":"613255ab","reserves(bytes32)":"00bbf1e4","totalReserves()":"8f840ddd","withdrawReserve(bytes32,address,uint256)":"c242970d"},"id":21}