{"abi":[{"type":"constructor","inputs":[{"name":"weth_","type":"address","internalType":"address"}],"stateMutability":"nonpayable"},{"type":"function","name":"SCALE","inputs":[],"outputs":[{"name":"","type":"uint64","internalType":"uint64"}],"stateMutability":"view"},{"type":"function","name":"WETH","inputs":[],"outputs":[{"name":"","type":"address","internalType":"contract IWETH"}],"stateMutability":"view"},{"type":"function","name":"authorizeBridge","inputs":[{"name":"strike","type":"uint256","internalType":"uint256"},{"name":"maturity","type":"uint64","internalType":"uint64"}],"outputs":[],"stateMutability":"nonpayable"},{"type":"function","name":"bridge","inputs":[],"outputs":[{"name":"","type":"address","internalType":"address"}],"stateMutability":"view"},{"type":"function","name":"createSeries","inputs":[{"name":"strike","type":"uint256","internalType":"uint256"},{"name":"maturity","type":"uint64","internalType":"uint64"}],"outputs":[{"name":"stable","type":"address","internalType":"address"},{"name":"up","type":"address","internalType":"address"}],"stateMutability":"nonpayable"},{"type":"function","name":"getTokens","inputs":[{"name":"strike","type":"uint256","internalType":"uint256"},{"name":"maturity","type":"uint64","internalType":"uint64"}],"outputs":[{"name":"stable","type":"address","internalType":"address"},{"name":"up","type":"address","internalType":"address"}],"stateMutability":"view"},{"type":"function","name":"isSettled","inputs":[{"name":"strike","type":"uint256","internalType":"uint256"},{"name":"maturity","type":"uint64","internalType":"uint64"}],"outputs":[{"name":"","type":"bool","internalType":"bool"}],"stateMutability":"view"},{"type":"function","name":"merge","inputs":[{"name":"strike","type":"uint256","internalType":"uint256"},{"name":"maturity","type":"uint64","internalType":"uint64"},{"name":"amount","type":"uint256","internalType":"uint256"}],"outputs":[],"stateMutability":"nonpayable"},{"type":"function","name":"redeem","inputs":[{"name":"strike","type":"uint256","internalType":"uint256"},{"name":"maturity","type":"uint64","internalType":"uint64"}],"outputs":[],"stateMutability":"nonpayable"},{"type":"function","name":"reserves","inputs":[{"name":"","type":"bytes32","internalType":"bytes32"}],"outputs":[{"name":"","type":"uint256","internalType":"uint256"}],"stateMutability":"view"},{"type":"function","name":"series","inputs":[{"name":"","type":"bytes32","internalType":"bytes32"}],"outputs":[{"name":"stableToken","type":"address","internalType":"contract PublicOptionToken"},{"name":"upToken","type":"address","internalType":"contract PublicOptionToken"},{"name":"settled","type":"bool","internalType":"bool"},{"name":"stablePayout","type":"uint256","internalType":"uint256"},{"name":"upPayout","type":"uint256","internalType":"uint256"}],"stateMutability":"view"},{"type":"function","name":"seriesId","inputs":[{"name":"strike","type":"uint256","internalType":"uint256"},{"name":"maturity","type":"uint64","internalType":"uint64"}],"outputs":[{"name":"","type":"bytes32","internalType":"bytes32"}],"stateMutability":"pure"},{"type":"function","name":"setBridge","inputs":[{"name":"bridge_","type":"address","internalType":"address"}],"outputs":[],"stateMutability":"nonpayable"},{"type":"function","name":"settle","inputs":[{"name":"strike","type":"uint256","internalType":"uint256"},{"name":"maturity","type":"uint64","internalType":"uint64"},{"name":"oraclePrice","type":"uint256","internalType":"uint256"}],"outputs":[],"stateMutability":"nonpayable"},{"type":"function","name":"split","inputs":[{"name":"strike","type":"uint256","internalType":"uint256"},{"name":"maturity","type":"uint64","internalType":"uint64"},{"name":"amount","type":"uint256","internalType":"uint256"}],"outputs":[],"stateMutability":"nonpayable"},{"type":"event","name":"Merge","inputs":[{"name":"user","type":"address","indexed":true,"internalType":"address"},{"name":"seriesId","type":"bytes32","indexed":true,"internalType":"bytes32"},{"name":"amount","type":"uint256","indexed":false,"internalType":"uint256"}],"anonymous":false},{"type":"event","name":"Redeemed","inputs":[{"name":"user","type":"address","indexed":true,"internalType":"address"},{"name":"seriesId","type":"bytes32","indexed":true,"internalType":"bytes32"},{"name":"claim","type":"uint256","indexed":false,"internalType":"uint256"}],"anonymous":false},{"type":"event","name":"SeriesCreated","inputs":[{"name":"strike","type":"uint256","indexed":true,"internalType":"uint256"},{"name":"maturity","type":"uint64","indexed":true,"internalType":"uint64"},{"name":"stableToken","type":"address","indexed":false,"internalType":"address"},{"name":"upToken","type":"address","indexed":false,"internalType":"address"}],"anonymous":false},{"type":"event","name":"Settled","inputs":[{"name":"seriesId","type":"bytes32","indexed":true,"internalType":"bytes32"},{"name":"oraclePrice","type":"uint256","indexed":false,"internalType":"uint256"},{"name":"stablePayout","type":"uint256","indexed":false,"internalType":"uint256"},{"name":"upPayout","type":"uint256","indexed":false,"internalType":"uint256"}],"anonymous":false},{"type":"event","name":"Split","inputs":[{"name":"user","type":"address","indexed":true,"internalType":"address"},{"name":"seriesId","type":"bytes32","indexed":true,"internalType":"bytes32"},{"name":"amount","type":"uint256","indexed":false,"internalType":"uint256"}],"anonymous":false},{"type":"error","name":"AlreadySettled","inputs":[]},{"type":"error","name":"NotSettled","inputs":[]},{"type":"error","name":"NotYetMatured","inputs":[]},{"type":"error","name":"SeriesExists","inputs":[]},{"type":"error","name":"SeriesNotFound","inputs":[]}],"bytecode":{"object":"0x60a03461008157601f61232d38819003918201601f19168301916001600160401b038311848410176100855780849260209460405283398101031261008157516001600160a01b0381169081900361008157608052604051612293908161009a82396080518181816103120152818161049301528181610dfd0152610f940152f35b5f80fd5b634e487b7160e01b5f52604160045260245ffdfe608080604052600436101562000013575f80fd5b5f905f3560e01c908162bbf1e414620010f35750806318dc1cee1462000f255780631c7068851462000c5b57806339a2540b14620008005780637b1760d414620006be5780638dd14802146200064457806399323f5d14620004c2578063ad5c4648146200047b578063c4c244a21462000426578063ca27cb7e14620001f8578063d9e829e814620001cc578063e78cea9214620001a1578063eced55261462000181578063f5de118e146200011e5763faaa551e14620000d2575f80fd5b346200011b5760403660031901126200011b5760ff6001604060209362000105620000fc6200111b565b60043562001228565b815280855220015460a01c166040519015158152f35b80fd5b50346200011b5760203660031901126200011b57604060a09160043581528060205220600180831b03808254169160ff6001820154600360028401549301549360405195865281166020860152851c161515604084015260608301526080820152f35b50346200011b57806003193601126200011b576020604051620f42408152f35b50346200011b57806003193601126200011b576002546040516001600160a01b039091168152602090f35b50346200011b5760403660031901126200011b576020620001f0620000fc6200111b565b604051908152f35b50346200011b57620002166200020e3662001132565b929162001228565b80835260208381526040842080549293926001600160a01b03929190831690811562000414576001019060ff825460a01c1662000403578691813b15620003d757604051632770a7eb60e21b808252336004830152602482018890529290919084908390604490829084905af18015620003f85786928591620003db575b5050541690813b15620003d757604051908152336004820152602481018690529082908290604490829084905af18015620003cc57620003b0575b508490526001815260408520620002e8848254620011d0565b905560405163a9059cbb60e01b8152336004820152602481018490529181908390604490829089907f0000000000000000000000000000000000000000000000000000000000000000165af1918215620003a5577fc08a432bc76501d7495b0f1fedad30d20d1bb321f263b497422aff3b4d662ab29262000371575b506040519283523392a380f35b6200039590823d84116200039d575b6200038c818362001172565b81019062001194565b505f62000364565b503d62000380565b6040513d87823e3d90fd5b620003bb906200115e565b620003c857845f620002cf565b8480fd5b6040513d84823e3d90fd5b8280fd5b620003e9919293506200115e565b620003d7578490835f62000294565b6040513d86823e3d90fd5b60405162560ff960e81b8152600490fd5b60405163948389ab60e01b8152600490fd5b50346200011b5760403660031901126200011b576040906200044b620000fc6200111b565b815260208181529190208054600190910154604080516001600160a01b0393841681529290911692820192909252f35b50346200011b57806003193601126200011b576040517f00000000000000000000000000000000000000000000000000000000000000006001600160a01b03168152602090f35b50346200011b57620004d43662001132565b90620004e1818462001228565b8085526020859052604085208054919490916001600160a01b0316156200041457600182019182549160ff8360a01c1662000403576001600160401b0380951642106200063257851580801562000627575b15620005c357505083620f42405b169384620f424003818111620005af576002830186905516600390910181905560ff60a01b19909116600160a01b17909155604080519384526020840192909252908201527f2c486cde651b2de9cdb08bfbcbcdcdc49016ed2c824bef9e0ae17ab522daa6e790606090a280f35b634e487b7160e01b89526011600452602489fd5b620f424090818302928084048314901517156200061357620005ff5785918290889004828110620005f657505062000541565b16905062000541565b634e487b7160e01b5f52601260045260245ffd5b634e487b7160e01b5f52601160045260245ffd5b508682101562000533565b6040516362733c9560e01b8152600490fd5b50346200011b5760203660031901126200011b576004356001600160a01b0381811691829003620003d7576002549081166200068b576001600160a01b0319161760025580f35b60405162461bcd60e51b815260206004820152600b60248201526a185b1c9958591e481cd95d60aa1b6044820152606490fd5b50346200011b5760403660031901126200011b57620006dc6200111b565b6002546001600160a01b039081169133839003620007ce57620007029060043562001228565b835282602052604083209181835416801562000414578493813b15620003c85784809260446040518095819363388dfcd960e11b988984526004840152600160248401525af18015620003a55784928691620007b1575b505060010154169160025416823b15620007ac576044849283604051958694859384526004840152600160248401525af18015620003cc57620007995750f35b620007a4906200115e565b6200011b5780f35b505050fd5b620007bf919293506200115e565b620007ac578290845f62000759565b60405162461bcd60e51b815260206004820152600a6024820152696e6f742062726964676560b01b6044820152606490fd5b50346200011b5760403660031901126200011b576200081e6200111b565b6200082c8160043562001228565b908183528260205260018060a01b03928360408220541662000c49576200085560043562001289565b620008696001600160401b03841662001289565b9060405169737461626c654554482d60b01b6020820152620008cd602b8284516200089c81602a840160208901620011de565b8101602d60f81b602a820152865190620008bd8285830160208b01620011de565b0103600b81018452018262001172565b6040516573744554482d60d01b60208201526200092c6027828551620008fb816026840160208a01620011de565b8101602d60f81b60268201528751906200091c8285830160208c01620011de565b0103600781018452018262001172565b6040519182610edf8101106001600160401b03610edf8501111762000c2a578291620009716200098892610edf6200137f863960c0610edf8601818152019062001201565b90610edf840182036020610edf8601015262001201565b30610edf8301604081019190915260043560608201526001600160401b0388166080820152600160a090910152039084f091821562000c3e5762000a7a6027604051926575704554482d60d01b9081602086015262000a2883868851620009f7816026840160208d01620011de565b8101602d60f81b602682015284519062000a188285830160208901620011de565b0103600781018852018662001172565b604051958692602084015262000a49815180926020602687019101620011de565b8201602d60f81b602682015262000a6a8251809360208785019101620011de565b0103600781018552018362001172565b60405191610edf8301918383106001600160401b0384111762000c2a5760a062000acd85949362000abe5f94610edf6200137f893960c0875260c087019062001201565b90858203602087015262001201565b9230604082015260043560608201526001600160401b03891660808201520152039083f0938415620003cc576040519260a084018481106001600160401b0382111762000c16576003938891604052169586855287602086019116978882526040860190838252806040606089019580875260808a0197818952815280602052209751166bffffffffffffffffffffffff60a01b8854161787556001870192511682549160ff60a01b9051151560a01b16916affffffffffffffffffffff60a81b1617179055516002840155519101556001600160401b036040519116907f220e1e1ca923c6e27417f90002b83affb7a3f8c0e00adeee22ad0a4c9746e1f4600435918062000bf687878390602090939293604083019460018060a01b03809216845216910152565b0390a3604080516001600160a01b03928316815292909116602083015290f35b634e487b7160e01b5f52604160045260245ffd5b634e487b7160e01b86526041600452602486fd5b6040513d85823e3d90fd5b6040516339cb981160e21b8152600490fd5b50346200011b5760403660031901126200011b5762000c7d620000fc6200111b565b808252602082815260408320600181019081549160ff8360a01c161562000f135760018060a01b03928684845416604051936370a0823160e01b948581523360048201528881602481865afa948515620003f85788968a92869762000ed5575b5060249060405198899384928352336004840152165afa94851562000c3e57839562000e98575b50813b15620003d757604051632770a7eb60e21b808252336004830152602482018690529290919084908390604490829084905af18015620003f8578892859162000e7b575b5050541690813b15620003d757604051908152336004820152602481018590529082908290604490829084905af18015620003cc5762000e5b575b50509162000db262000db992600362000da8620f424096600286015490620011bc565b93015490620011bc565b90620011ae565b0491838552600181526040852062000dd3848254620011d0565b905560405163a9059cbb60e01b8152336004820152602481018490529181908390604490829089907f0000000000000000000000000000000000000000000000000000000000000000165af1918215620003a5577f44b7f176bcc739b54bd0800fe491cbdea19df7d4d6b19c281462e6b4fc504344926200037157506040519283523392a380f35b62000e69909492946200115e565b62000e775791865f62000d85565b8680fd5b62000e89919293506200115e565b620003d7578690835f62000d4a565b88809296508194503d831162000ecd575b62000eb5818362001172565b8101031262000ec957889151935f62000d04565b5f80fd5b503d62000ea9565b97509550935085813d831162000f0b575b62000ef2818362001172565b8101031262000ec957878a936024899751969062000cdd565b503d62000ee6565b60405163ba329a9b60e01b8152600490fd5b503462000ec95762000f3b6200020e3662001132565b90815f5260205f815260405f2060018060a01b0380825416156200041457600182019160ff835460a01c1662000403576040516323b872dd60e01b8152336004820152306024820152604481018690529084826064815f7f000000000000000000000000000000000000000000000000000000000000000088165af1918215620010c6578392620010d1575b50865f526001855260405f2062000fe0878254620011ae565b9055541691823b1562000ec9576040516340c10f1960e01b80825233600483015260248201879052935f908290604490829084905af18015620010c657620010ac575b50548692911690813b15620003d757604051908152336004820152602481018590529082908290604490829084905af18015620003cc5762001090575b50507f63f965bc7d01a262367324aa1c5c7ae80b123ec74947ccf42dbe15369d8df89e906040519283523392a380f35b6200109b906200115e565b620010a857835f62001060565b8380fd5b620010bb91939297506200115e565b5f9590915f62001023565b6040513d5f823e3d90fd5b620010eb90863d88116200039d576200038c818362001172565b505f62000fc7565b3462000ec957602036600319011262000ec9576020906004355f526001825260405f20548152f35b602435906001600160401b038216820362000ec957565b606090600319011262000ec957600435906024356001600160401b038116810362000ec9579060443590565b6001600160401b03811162000c1657604052565b90601f801991011681019081106001600160401b0382111762000c1657604052565b9081602091031262000ec95751801515810362000ec95790565b919082018092116200061357565b818102929181159184041417156200061357565b919082039182116200061357565b5f5b838110620011f05750505f910152565b8181015183820152602001620011e0565b906020916200121c81518092818552858086019101620011de565b601f01601f1916010190565b9060405190602082019283526001600160401b0360c01b9060c01b16604082015260288152606081018181106001600160401b0382111762000c165760405251902090565b6001600160401b03811162000c1657601f01601f191660200190565b80156200134f575f81805b620013365750620012a5816200126d565b90620012b5604051928362001172565b808252601f19620012c6826200126d565b013660208401375b8083156200132f57801562000613575f190192600a9160308383068101809111620006135784518610156200131b5760f81b6001600160f81b0319165f1a908401601f01530491620012ce565b634e487b7160e01b5f52603260045260245ffd5b5050905090565b905f19811462000613576001600a910191048062001294565b50604051604081018181106001600160401b0382111762000c165760405260018152600360fc1b60208201529056fe610100604052346200038b5762000edf803803806200001e816200038f565b92833981019060c0818303126200038b5780516001600160401b03908181116200038b578362000050918401620003b5565b60209384840151908382116200038b576200006d918501620003b5565b6040840151909490916001600160a01b03831683036200038b5760608501519360808601519581871687036200038b5760a001519687151588036200038b57825182811162000296576003918254916001958684811c9416801562000380575b888510146200036c578190601f9485811162000319575b508890858311600114620002b6575f92620002aa575b50505f1982861b1c191690861b1783555b8051938411620002965760049586548681811c911680156200028b575b82821014620002785783811162000230575b5080928511600114620001c657509383949184925f95620001ba575b50501b925f19911b1c19161790555b60805260a05260c05260e052604051610ab9908162000426823960805181818161013b0152818161023b015281816104880152610539015260a051816101bd015260c05181610738015260e051816108390152f35b015193505f8062000156565b92919084601f198116885f52855f20955f905b89838310620002155750505010620001fb575b50505050811b01905562000165565b01519060f8845f19921b161c191690555f808080620001ec565b858701518955909701969485019488935090810190620001d9565b875f52815f208480880160051c8201928489106200026e575b0160051c019087905b828110620002625750506200013a565b5f815501879062000252565b9250819262000249565b602288634e487b7160e01b5f525260245ffd5b90607f169062000128565b634e487b7160e01b5f52604160045260245ffd5b015190505f80620000fa565b90889350601f19831691875f528a5f20925f5b8c828210620003025750508411620002ea575b505050811b0183556200010b565b01515f1983881b60f8161c191690555f8080620002dc565b8385015186558c97909501949384019301620002c9565b909150855f52885f208580850160051c8201928b861062000362575b918a91869594930160051c01915b82811062000353575050620000e4565b5f81558594508a910162000343565b9250819262000335565b634e487b7160e01b5f52602260045260245ffd5b93607f1693620000cd565b5f80fd5b6040519190601f01601f191682016001600160401b038111838210176200029657604052565b919080601f840112156200038b5782516001600160401b0381116200029657602090620003eb601f8201601f191683016200038f565b928184528282870101116200038b575f5b818110620004115750825f9394955001015290565b8581018301518482018401528201620003fc56fe6080604090808252600480361015610015575f80fd5b5f3560e01c91826306fdde031461085e5750816309047bdd14610822578163095ea7b31461077a57816318160ddd1461075c578163204f83f91461071857816323b872dd14610626578163313ce5671461060b57816340c10f191461050f57816370a08231146104d9578163711bf9b21461045557816395d89b41146103365781639dc29fac1461021057508063a9059cbb146101e0578063ad8f5008146101a6578063b91816111461016a578063c45a0155146101275763dd62ed3e146100db575f80fd5b346101235780600319360112610123576020906100f661097d565b6100fe610993565b9060018060a01b038091165f5260018452825f2091165f528252805f20549051908152f35b5f80fd5b5034610123575f36600319011261012357517f00000000000000000000000000000000000000000000000000000000000000006001600160a01b03168152602090f35b5034610123576020366003190112610123576020906001600160a01b0361018f61097d565b165f526005825260ff815f20541690519015158152f35b5034610123575f36600319011261012357602090517f00000000000000000000000000000000000000000000000000000000000000008152f35b50346101235780600319360112610123576020906102096101ff61097d565b60243590336109a9565b5160018152f35b823461012357806003193601126101235761022961097d565b602435929091906001600160a01b03337f00000000000000000000000000000000000000000000000000000000000000008216141580610320575b6103115783169283156102fb57835f525f602052825f2054918583106102c7575f857fddf252ad1be2c89b69c2b068fc378daa952ba7f163c4a11628f55a4df523b3ef6020898881898688528785520381872055816002540360025551908152a3005b835163391434e360e21b81526001600160a01b03909216908201908152602081018390526040810186905281906060010390fd5b505f6024925191634b637e8f60e11b8352820152fd5b50905163ea8e4eb560e01b8152fd5b50335f52600560205260ff835f20541615610264565b8234610123575f366003190112610123578051905f835460018160011c906001831692831561044b575b60209384841081146104385783885290811561041c57506001146103c8575b505050829003601f01601f191682019267ffffffffffffffff8411838510176103b557508291826103b1925282610936565b0390f35b604190634e487b7160e01b5f525260245ffd5b5f878152929350837f8a35acfbc15ff81a39ae7d344fd709f28e8600b4aa8c65c6b64bfe7fe36bd19b5b838510610408575050505083010184808061037f565b8054888601830152930192849082016103f2565b60ff1916878501525050151560051b840101905084808061037f565b602289634e487b7160e01b5f525260245ffd5b91607f1691610360565b823461012357806003193601126101235761046e61097d565b9160243592831515809403610123576001600160a01b03917f0000000000000000000000000000000000000000000000000000000000000000831633036104cb5750165f5260056020525f209060ff801983541691161790555f80f35b835163ea8e4eb560e01b8152fd5b8234610123576020366003190112610123576020906001600160a01b036104fe61097d565b165f525f8252805f20549051908152f35b823461012357806003193601126101235761052861097d565b60243591906001600160a01b0390337f000000000000000000000000000000000000000000000000000000000000000083161415806105f5575b6105e557169283156105d057600254908382018092116105bd57505f927fddf252ad1be2c89b69c2b068fc378daa952ba7f163c4a11628f55a4df523b3ef9260209260025585855284835280852082815401905551908152a3005b601190634e487b7160e01b5f525260245ffd5b5f602492519163ec442f0560e01b8352820152fd5b825163ea8e4eb560e01b81528590fd5b50335f52600560205260ff835f20541615610562565b8234610123575f366003190112610123576020905160068152f35b9050346101235760603660031901126101235761064161097d565b610649610993565b906044359260018060a01b038216805f526001602052855f20335f52602052855f2054915f198310610684575b6020876102098888886109a9565b8583106106ec5781156106d65733156106c057505f90815260016020908152868220338352815290869020918590039091558290610209610676565b6024905f885191634a1406b160e11b8352820152fd5b6024905f88519163e602df0560e01b8352820152fd5b8651637dc7a0d960e11b8152339181019182526020820193909352604081018690528291506060010390fd5b8234610123575f366003190112610123576020905167ffffffffffffffff7f0000000000000000000000000000000000000000000000000000000000000000168152f35b8234610123575f366003190112610123576020906002549051908152f35b823461012357806003193601126101235761079361097d565b60243590331561080c576001600160a01b03169081156107f65760209350335f5260018452825f20825f52845280835f205582519081527f8c5be1e5ebec7d5bd14f71427d1e84f3dd0314c0f7b2291e5b200ac8c7c3b925843392a35160018152f35b8251634a1406b160e11b81525f81860152602490fd5b825163e602df0560e01b81525f81860152602490fd5b8234610123575f36600319011261012357602090517f000000000000000000000000000000000000000000000000000000000000000015158152f35b8334610123575f366003190112610123575f60035460018160011c906001831692831561092c575b60209384841081146104385783885290811561041c57506001146108d657505050829003601f01601f191682019267ffffffffffffffff8411838510176103b557508291826103b1925282610936565b60035f908152929350837fc2575a0e9e593c00f959f8c92f12db2869c3395a3b0502d05e2516446f71f85b5b838510610918575050505083010184808061037f565b805488860183015293019284908201610902565b91607f1691610886565b602080825282518183018190529093925f5b82811061096957505060409293505f838284010152601f8019910116010190565b818101860151848201604001528501610948565b600435906001600160a01b038216820361012357565b602435906001600160a01b038216820361012357565b916001600160a01b03808416928315610a6b5716928315610a5357825f525f60205260405f205490828210610a215750817fddf252ad1be2c89b69c2b068fc378daa952ba7f163c4a11628f55a4df523b3ef92602092855f525f84520360405f2055845f5260405f20818154019055604051908152a3565b60405163391434e360e21b81526001600160a01b03919091166004820152602481019190915260448101829052606490fd5b60405163ec442f0560e01b81525f6004820152602490fd5b604051634b637e8f60e11b81525f6004820152602490fdfea264697066735822122041104cb0096e4ccd8d42b2cc81950fd9e197ad798d7f1227487944c9febcb52e64736f6c63430008180033a2646970667358221220e76e3974b5e02987c7917e702b4e6d99aea0257eac59222371996ab1f61c6eae64736f6c63430008180033","linkReferences":{}},"methodIdentifiers":{"SCALE()":"eced5526","WETH()":"ad5c4648","authorizeBridge(uint256,uint64)":"7b1760d4","bridge()":"e78cea92","createSeries(uint256,uint64)":"39a2540b","getTokens(uint256,uint64)":"c4c244a2","isSettled(uint256,uint64)":"faaa551e","merge(uint256,uint64,uint256)":"ca27cb7e","redeem(uint256,uint64)":"1c706885","reserves(bytes32)":"00bbf1e4","series(bytes32)":"f5de118e","seriesId(uint256,uint64)":"d9e829e8","setBridge(address)":"8dd14802","settle(uint256,uint64,uint256)":"99323f5d","split(uint256,uint64,uint256)":"18dc1cee"},"id":24}