{"abi":[{"type":"constructor","inputs":[{"name":"collateralToken_","type":"address","internalType":"address"},{"name":"oracle_","type":"address","internalType":"address"}],"stateMutability":"nonpayable"},{"type":"function","name":"SCALE","inputs":[],"outputs":[{"name":"","type":"uint64","internalType":"uint64"}],"stateMutability":"view"},{"type":"function","name":"authorizeBridge","inputs":[{"name":"strike","type":"uint256","internalType":"uint256"},{"name":"maturity","type":"uint64","internalType":"uint64"}],"outputs":[],"stateMutability":"nonpayable"},{"type":"function","name":"bridge","inputs":[],"outputs":[{"name":"","type":"address","internalType":"address"}],"stateMutability":"view"},{"type":"function","name":"bridgeMint","inputs":[{"name":"strike","type":"uint256","internalType":"uint256"},{"name":"maturity","type":"uint64","internalType":"uint64"},{"name":"isStable","type":"bool","internalType":"bool"},{"name":"to","type":"address","internalType":"address"},{"name":"amount","type":"uint256","internalType":"uint256"}],"outputs":[],"stateMutability":"nonpayable"},{"type":"function","name":"bridgeMintable","inputs":[{"name":"","type":"bytes32","internalType":"bytes32"}],"outputs":[{"name":"","type":"uint256","internalType":"uint256"}],"stateMutability":"view"},{"type":"function","name":"collateralToken","inputs":[],"outputs":[{"name":"","type":"address","internalType":"address"}],"stateMutability":"view"},{"type":"function","name":"createSeries","inputs":[{"name":"strike","type":"uint256","internalType":"uint256"},{"name":"maturity","type":"uint64","internalType":"uint64"}],"outputs":[{"name":"stable","type":"address","internalType":"address"},{"name":"up","type":"address","internalType":"address"}],"stateMutability":"nonpayable"},{"type":"function","name":"fundBridgeReserve","inputs":[{"name":"strike","type":"uint256","internalType":"uint256"},{"name":"maturity","type":"uint64","internalType":"uint64"},{"name":"amount","type":"uint256","internalType":"uint256"}],"outputs":[],"stateMutability":"payable"},{"type":"function","name":"getTokens","inputs":[{"name":"strike","type":"uint256","internalType":"uint256"},{"name":"maturity","type":"uint64","internalType":"uint64"}],"outputs":[{"name":"stable","type":"address","internalType":"address"},{"name":"up","type":"address","internalType":"address"}],"stateMutability":"view"},{"type":"function","name":"isSettled","inputs":[{"name":"strike","type":"uint256","internalType":"uint256"},{"name":"maturity","type":"uint64","internalType":"uint64"}],"outputs":[{"name":"","type":"bool","internalType":"bool"}],"stateMutability":"view"},{"type":"function","name":"merge","inputs":[{"name":"strike","type":"uint256","internalType":"uint256"},{"name":"maturity","type":"uint64","internalType":"uint64"},{"name":"amount","type":"uint256","internalType":"uint256"}],"outputs":[],"stateMutability":"nonpayable"},{"type":"function","name":"oracle","inputs":[],"outputs":[{"name":"","type":"address","internalType":"address"}],"stateMutability":"view"},{"type":"function","name":"redeem","inputs":[{"name":"strike","type":"uint256","internalType":"uint256"},{"name":"maturity","type":"uint64","internalType":"uint64"}],"outputs":[],"stateMutability":"nonpayable"},{"type":"function","name":"reserves","inputs":[{"name":"id","type":"bytes32","internalType":"bytes32"}],"outputs":[{"name":"","type":"uint256","internalType":"uint256"}],"stateMutability":"view"},{"type":"function","name":"series","inputs":[{"name":"","type":"bytes32","internalType":"bytes32"}],"outputs":[{"name":"stableToken","type":"address","internalType":"contract PublicOptionToken"},{"name":"upToken","type":"address","internalType":"contract PublicOptionToken"},{"name":"settled","type":"bool","internalType":"bool"},{"name":"stablePayout","type":"uint256","internalType":"uint256"},{"name":"upPayout","type":"uint256","internalType":"uint256"}],"stateMutability":"view"},{"type":"function","name":"seriesId","inputs":[{"name":"strike","type":"uint256","internalType":"uint256"},{"name":"maturity","type":"uint64","internalType":"uint64"}],"outputs":[{"name":"","type":"bytes32","internalType":"bytes32"}],"stateMutability":"pure"},{"type":"function","name":"setBridge","inputs":[{"name":"bridge_","type":"address","internalType":"address"}],"outputs":[],"stateMutability":"nonpayable"},{"type":"function","name":"settle","inputs":[{"name":"strike","type":"uint256","internalType":"uint256"},{"name":"maturity","type":"uint64","internalType":"uint64"},{"name":"oraclePrice","type":"uint256","internalType":"uint256"}],"outputs":[],"stateMutability":"nonpayable"},{"type":"function","name":"split","inputs":[{"name":"strike","type":"uint256","internalType":"uint256"},{"name":"maturity","type":"uint64","internalType":"uint64"},{"name":"amount","type":"uint256","internalType":"uint256"}],"outputs":[],"stateMutability":"payable"},{"type":"function","name":"vault","inputs":[],"outputs":[{"name":"","type":"address","internalType":"contract CentralCollateralVault"}],"stateMutability":"view"},{"type":"event","name":"BridgeMinted","inputs":[{"name":"user","type":"address","indexed":true,"internalType":"address"},{"name":"seriesId","type":"bytes32","indexed":true,"internalType":"bytes32"},{"name":"isStable","type":"bool","indexed":true,"internalType":"bool"},{"name":"amount","type":"uint256","indexed":false,"internalType":"uint256"}],"anonymous":false},{"type":"event","name":"BridgeReserveFunded","inputs":[{"name":"funder","type":"address","indexed":true,"internalType":"address"},{"name":"seriesId","type":"bytes32","indexed":true,"internalType":"bytes32"},{"name":"amount","type":"uint256","indexed":false,"internalType":"uint256"}],"anonymous":false},{"type":"event","name":"Merge","inputs":[{"name":"user","type":"address","indexed":true,"internalType":"address"},{"name":"seriesId","type":"bytes32","indexed":true,"internalType":"bytes32"},{"name":"amount","type":"uint256","indexed":false,"internalType":"uint256"}],"anonymous":false},{"type":"event","name":"Redeemed","inputs":[{"name":"user","type":"address","indexed":true,"internalType":"address"},{"name":"seriesId","type":"bytes32","indexed":true,"internalType":"bytes32"},{"name":"claim","type":"uint256","indexed":false,"internalType":"uint256"}],"anonymous":false},{"type":"event","name":"SeriesCreated","inputs":[{"name":"strike","type":"uint256","indexed":true,"internalType":"uint256"},{"name":"maturity","type":"uint64","indexed":true,"internalType":"uint64"},{"name":"stableToken","type":"address","indexed":false,"internalType":"address"},{"name":"upToken","type":"address","indexed":false,"internalType":"address"}],"anonymous":false},{"type":"event","name":"Settled","inputs":[{"name":"seriesId","type":"bytes32","indexed":true,"internalType":"bytes32"},{"name":"oraclePrice","type":"uint256","indexed":false,"internalType":"uint256"},{"name":"stablePayout","type":"uint256","indexed":false,"internalType":"uint256"},{"name":"upPayout","type":"uint256","indexed":false,"internalType":"uint256"}],"anonymous":false},{"type":"event","name":"Split","inputs":[{"name":"user","type":"address","indexed":true,"internalType":"address"},{"name":"seriesId","type":"bytes32","indexed":true,"internalType":"bytes32"},{"name":"amount","type":"uint256","indexed":false,"internalType":"uint256"}],"anonymous":false},{"type":"error","name":"AlreadySettled","inputs":[]},{"type":"error","name":"InsufficientBridgeReserve","inputs":[]},{"type":"error","name":"InvalidOracle","inputs":[]},{"type":"error","name":"NotOracle","inputs":[]},{"type":"error","name":"NotSettled","inputs":[]},{"type":"error","name":"NotYetMatured","inputs":[]},{"type":"error","name":"SeriesExists","inputs":[]},{"type":"error","name":"SeriesNotFound","inputs":[]}],"bytecode":{"object":"0x60e034620001335762003627906001600160401b0390601f38849003908101601f1916820190838211838310176200010e578083916040968794855283398101031262000133576200005f6020620000578362000137565b920162000137565b6001600160a01b03908082161562000122578260a052608052835192610df09182850191858310908311176200010e57859385936200283785391681523060208201520301905ff08015620001045760c052516126ea90816200014d82396080518181816105690152610998015260a0518161051d015260c0518181816101250152818161035201528181610b02015281816111850152818161134e01526114ea0152f35b50513d5f823e3d90fd5b634e487b7160e01b5f52604160045260245ffd5b8451639589a27d60e01b8152600490fd5b5f80fd5b51906001600160a01b0382168203620001335756fe608080604052600436101562000013575f80fd5b5f905f3560e01c908162bbf1e414620014bd5750806318dc1cee146200130c5780631c706885146200101957806339a2540b1462000bc9578063671a128d1462000ad25780637b1760d414620009c75780637dc0d1d014620009805780638dd148021462000906578063935b8646146200070757806399323f5d146200054c578063b2016bd41462000505578063bc35244114620004d9578063c4c244a21462000484578063ca27cb7e146200027b578063d9e829e8146200024f578063e78cea921462000224578063eced55261462000204578063f5de118e14620001a1578063faaa551e14620001575763fbfa77cf146200010e575f80fd5b3462000154578060031936011262000154576040517f00000000000000000000000000000000000000000000000000000000000000006001600160a01b03168152602090f35b80fd5b503462000154576040366003190112620001545760ff600160406020936200018b6200018262001560565b6004356200167f565b815280855220015460a01c166040519015158152f35b5034620001545760203660031901126200015457604060a09160043581528060205220600180831b03808254169160ff6001820154600360028401549301549360405195865281166020860152851c161515604084015260608301526080820152f35b503462000154578060031936011262000154576020604051620f42408152f35b503462000154578060031936011262000154576002546040516001600160a01b039091168152602090f35b50346200015457604036600319011262000154576020620002736200018262001560565b604051908152f35b5034620001545762000299620002913662001577565b92916200167f565b90818352826020526040832060018060a01b038082541691821562000472576001019160ff835460a01c1662000461578592813b156200043557604051632770a7eb60e21b808252336004830152602482018790529290919085908390604490829084905af1801562000456578492869162000439575b5050541690813b156200043557604051908152336004820152602481018590529083908290604490829084905af19081156200042a57839162000412575b50507f000000000000000000000000000000000000000000000000000000000000000016803b156200040e5760405163c242970d60e01b815260048101859052336024820152604481018490529082908290606490829084905af180156200040357620003e7575b50506040519081527fc08a432bc76501d7495b0f1fedad30d20d1bb321f263b497422aff3b4d662ab260203392a380f35b620003f290620015a3565b620003ff57825f620003b6565b8280fd5b6040513d84823e3d90fd5b5080fd5b6200041d90620015a3565b6200040e57815f6200034e565b6040513d85823e3d90fd5b8380fd5b6200044791929350620015a3565b62000435578290845f62000310565b6040513d87823e3d90fd5b60405162560ff960e81b8152600490fd5b60405163948389ab60e01b8152600490fd5b5034620001545760403660031901126200015457604090620004a96200018262001560565b815260208181529190208054600190910154604080516001600160a01b0393841681529290911692820192909252f35b503462000154576020366003190112620001545760406020916004358152600183522054604051908152f35b503462000154578060031936011262000154576040517f00000000000000000000000000000000000000000000000000000000000000006001600160a01b03168152602090f35b503462000154576200055e3662001577565b906001600160a01b037f000000000000000000000000000000000000000000000000000000000000000081163303620006f5576200059d82856200167f565b93848652856020526040862091825416156200047257600182019182549160ff8360a01c1662000461576001600160401b038095164210620006e3578515808015620006d8575b156200067457505083620f42405b169384620f42400381811162000660576002830186905516600390910181905560ff60a01b19909116600160a01b17909155604080519384526020840192909252908201527f2c486cde651b2de9cdb08bfbcbcdcdc49016ed2c824bef9e0ae17ab522daa6e790606090a280f35b634e487b7160e01b89526011600452602489fd5b620f42409081830292808404831490151715620006c457620006b05785918290889004828110620006a7575050620005f2565b169050620005f2565b634e487b7160e01b5f52601260045260245ffd5b634e487b7160e01b5f52601160045260245ffd5b5086821015620005e4565b6040516362733c9560e01b8152600490fd5b604051631bc2178f60e01b8152600490fd5b5034620001545760a036600319011262000154576200072562001560565b6044358015159182820362000435576001600160a01b03606435818116929183820362000902576200076560843593620001828360025416331462001645565b948588528760205260408820908282541615620004725786895260016020528460408a205410620008f057868952600160205260408920805490868203918211620008dc57558893929190156200084c575416803b15620003ff576040516340c10f1960e01b81526001600160a01b039290921660048301526024820184905282908290604490829084905af18015620004035762000830575b505060207f4263ffe17ae7ec28c7a8963f44f2d0047d1fa3a0d036dfc0d228e8afe926489f915b604051908152a480f35b6200083b90620015a3565b6200084857845f620007ff565b8480fd5b6001015416803b15620003ff576040516340c10f1960e01b81526001600160a01b039290921660048301526024820184905282908290604490829084905af180156200040357620008c4575b505060207f4263ffe17ae7ec28c7a8963f44f2d0047d1fa3a0d036dfc0d228e8afe926489f9162000826565b620008cf90620015a3565b6200084857845f62000898565b634e487b7160e01b8b52601160045260248bfd5b60405163213e82d560e21b8152600490fd5b5f80fd5b50346200015457602036600319011262000154576004356001600160a01b038181169182900362000902576002549081166200094d576001600160a01b0319161760025580f35b60405162461bcd60e51b815260206004820152600b60248201526a185b1c9958591e481cd95d60aa1b6044820152606490fd5b503462000154578060031936011262000154576040517f00000000000000000000000000000000000000000000000000000000000000006001600160a01b03168152602090f35b5034620001545760403660031901126200015457620009e562001560565b6002546001600160a01b039081169162000a06906200018233851462001645565b835282602052604083209181835416801562000472578493813b15620008485784809260446040518095819363388dfcd960e11b988984526004840152600160248401525af1801562000456578492869162000ab5575b505060010154169160025416823b1562000ab0576044849283604051958694859384526004840152600160248401525af18015620004035762000a9d5750f35b62000aa890620015a3565b620001545780f35b505050fd5b62000ac391929350620015a3565b62000ab0578290845f62000a5d565b5062000ae2620002913662001577565b908183528260205260018060a01b038060408520541615620004725783907f000000000000000000000000000000000000000000000000000000000000000016803b156200040e57604051633f48f0d360e11b815260048101859052336024820152604481018490529082908290606490829034905af18015620004035762000bb1575b5082905260016020526040832062000b80828254620015ed565b90556040519081527ffadbd905f863f82ce063a9a0eb04bd36c1fb7944054d72d45785b2dfeeaa939c60203392a380f35b62000bbc90620015a3565b620003ff57825f62000b66565b503462000154576040366003190112620001545762000be762001560565b62000bf5816004356200167f565b908183528260205260018060a01b039283604082205416620010075762000c1e600435620016e0565b62000c326001600160401b038416620016e0565b9060405169737461626c654554482d60b01b602082015262000c96602b82845162000c6581602a840160208901620015fb565b8101602d60f81b602a82015286519062000c868285830160208b01620015fb565b0103600b810184520182620015b7565b6040516573744554482d60d01b602082015262000cf5602782855162000cc4816026840160208a01620015fb565b8101602d60f81b602682015287519062000ce58285830160208c01620015fb565b01036007810184520182620015b7565b6040519182610edf8101106001600160401b03610edf8501111762000ff357829162000d3a62000d5192610edf620017d6863960c0610edf860181815201906200161e565b90610edf840182036020610edf860101526200161e565b30610edf8301604081019190915260043560608201526001600160401b0388166080820152600160a090910152039084f09182156200042a5762000e436027604051926575704554482d60d01b9081602086015262000df18386885162000dc0816026840160208d01620015fb565b8101602d60f81b602682015284519062000de18285830160208901620015fb565b01036007810188520186620015b7565b604051958692602084015262000e12815180926020602687019101620015fb565b8201602d60f81b602682015262000e338251809360208785019101620015fb565b01036007810185520183620015b7565b60405191610edf8301918383106001600160401b0384111762000ff35760a062000e9685949362000e875f94610edf620017d6893960c0875260c08701906200161e565b9085820360208701526200161e565b9230604082015260043560608201526001600160401b03891660808201520152039083f093841562000403576040519260a084018481106001600160401b0382111762000fdf576003938891604052169586855287602086019116978882526040860190838252806040606089019580875260808a0197818952815280602052209751166bffffffffffffffffffffffff60a01b8854161787556001870192511682549160ff60a01b9051151560a01b16916affffffffffffffffffffff60a81b1617179055516002840155519101556001600160401b036040519116907f220e1e1ca923c6e27417f90002b83affb7a3f8c0e00adeee22ad0a4c9746e1f4600435918062000fbf87878390602090939293604083019460018060a01b03809216845216910152565b0390a3604080516001600160a01b03928316815292909116602083015290f35b634e487b7160e01b5f52604160045260245ffd5b634e487b7160e01b86526041600452602486fd5b6040516339cb981160e21b8152600490fd5b50346200015457604036600319011262000154576200103b6200018262001560565b808252602082815260408320906001820180549260ff8460a01c1615620012fa5780546040516370a0823160e01b8082523360048301526001600160a01b039689959193909290881691908781602481865afa9384156200126e57899589928996620012bc575b5060249060405197889384928352336004840152165afa938415620012b157869462001279575b50813b156200124d57604051632770a7eb60e21b808252336004830152602482018590529290919087908390604490829084905af180156200126e578992889162001251575b5050541690813b156200124d57604051908152336004820152602481018490529085908290604490829084905af19081156200045657859162001231575b5050916200117a6200118192600362001170620f424096600286015490620015d9565b93015490620015d9565b90620015ed565b04927f000000000000000000000000000000000000000000000000000000000000000016803b156200040e5760405163c242970d60e01b815260048101869052336024820152604481018590529082908290606490829084905af18015620004035762001219575b50507f44b7f176bcc739b54bd0800fe491cbdea19df7d4d6b19c281462e6b4fc504344906040519283523392a380f35b6200122490620015a3565b6200043557835f620011e9565b6200123f90949294620015a3565b620004355791835f6200114d565b8580fd5b6200125f91929350620015a3565b6200124d578790865f6200110f565b6040513d89823e3d90fd5b955092508585813d8111620012a9575b620012958183620015b7565b810103126200090257889451925f620010c9565b503d62001289565b6040513d88823e3d90fd5b98509450945086813d8311620012f2575b620012d98183620015b7565b81010312620009025786889460248c98519590620010a2565b503d620012cd565b60405163ba329a9b60e01b8152600490fd5b506200131c620002913662001577565b90815f525f60205260405f2060018060a01b0380825416156200047257600182019160ff835460a01c166200046157817f000000000000000000000000000000000000000000000000000000000000000016803b156200090257604051633f48f0d360e11b81526004810187905233602482015260448101869052905f908290606490829034905af18015620014b25762001498575b509080869392541691823b1562000435576040516340c10f1960e01b808252336004830152602482018790529385908290604490829084905af19081156200045657859162001480575b5050541690813b15620003ff57604051908152336004820152602481018490529082908290604490829084905af18015620004035762001468575b50506040519081527f63f965bc7d01a262367324aa1c5c7ae80b123ec74947ccf42dbe15369d8df89e60203392a380f35b6200147390620015a3565b620003ff57825f62001437565b6200148b90620015a3565b6200043557835f620013fc565b620014a79193929650620015a3565b5f94909181620013b2565b6040513d5f823e3d90fd5b346200090257602090816003193601126200090257622efc7960e21b8152600480359082015281816024817f00000000000000000000000000000000000000000000000000000000000000006001600160a01b03165afa908115620014b2575f916200152d575b50604051908152f35b90508181813d831162001558575b620015478183620015b7565b810103126200090257518262001524565b503d6200153b565b602435906001600160401b03821682036200090257565b60609060031901126200090257600435906024356001600160401b038116810362000902579060443590565b6001600160401b03811162000fdf57604052565b90601f801991011681019081106001600160401b0382111762000fdf57604052565b81810292918115918404141715620006c457565b91908201809211620006c457565b5f5b8381106200160d5750505f910152565b8181015183820152602001620015fd565b906020916200163981518092818552858086019101620015fb565b601f01601f1916010190565b156200164d57565b60405162461bcd60e51b815260206004820152600a6024820152696e6f742062726964676560b01b6044820152606490fd5b9060405190602082019283526001600160401b0360c01b9060c01b16604082015260288152606081018181106001600160401b0382111762000fdf5760405251902090565b6001600160401b03811162000fdf57601f01601f191660200190565b8015620017a6575f81805b6200178d5750620016fc81620016c4565b906200170c6040519283620015b7565b808252601f196200171d82620016c4565b013660208401375b80831562001786578015620006c4575f190192600a9160308383068101809111620006c4578451861015620017725760f81b6001600160f81b0319165f1a908401601f0153049162001725565b634e487b7160e01b5f52603260045260245ffd5b5050905090565b905f198114620006c4576001600a9101910480620016eb565b50604051604081018181106001600160401b0382111762000fdf5760405260018152600360fc1b60208201529056fe610100604052346200038b5762000edf803803806200001e816200038f565b92833981019060c0818303126200038b5780516001600160401b03908181116200038b578362000050918401620003b5565b60209384840151908382116200038b576200006d918501620003b5565b6040840151909490916001600160a01b03831683036200038b5760608501519360808601519581871687036200038b5760a001519687151588036200038b57825182811162000296576003918254916001958684811c9416801562000380575b888510146200036c578190601f9485811162000319575b508890858311600114620002b6575f92620002aa575b50505f1982861b1c191690861b1783555b8051938411620002965760049586548681811c911680156200028b575b82821014620002785783811162000230575b5080928511600114620001c657509383949184925f95620001ba575b50501b925f19911b1c19161790555b60805260a05260c05260e052604051610ab9908162000426823960805181818161013b0152818161023b015281816104880152610539015260a051816101bd015260c05181610738015260e051816108390152f35b015193505f8062000156565b92919084601f198116885f52855f20955f905b89838310620002155750505010620001fb575b50505050811b01905562000165565b01519060f8845f19921b161c191690555f808080620001ec565b858701518955909701969485019488935090810190620001d9565b875f52815f208480880160051c8201928489106200026e575b0160051c019087905b828110620002625750506200013a565b5f815501879062000252565b9250819262000249565b602288634e487b7160e01b5f525260245ffd5b90607f169062000128565b634e487b7160e01b5f52604160045260245ffd5b015190505f80620000fa565b90889350601f19831691875f528a5f20925f5b8c828210620003025750508411620002ea575b505050811b0183556200010b565b01515f1983881b60f8161c191690555f8080620002dc565b8385015186558c97909501949384019301620002c9565b909150855f52885f208580850160051c8201928b861062000362575b918a91869594930160051c01915b82811062000353575050620000e4565b5f81558594508a910162000343565b9250819262000335565b634e487b7160e01b5f52602260045260245ffd5b93607f1693620000cd565b5f80fd5b6040519190601f01601f191682016001600160401b038111838210176200029657604052565b919080601f840112156200038b5782516001600160401b0381116200029657602090620003eb601f8201601f191683016200038f565b928184528282870101116200038b575f5b818110620004115750825f9394955001015290565b8581018301518482018401528201620003fc56fe6080604090808252600480361015610015575f80fd5b5f3560e01c91826306fdde031461085e5750816309047bdd14610822578163095ea7b31461077a57816318160ddd1461075c578163204f83f91461071857816323b872dd14610626578163313ce5671461060b57816340c10f191461050f57816370a08231146104d9578163711bf9b21461045557816395d89b41146103365781639dc29fac1461021057508063a9059cbb146101e0578063ad8f5008146101a6578063b91816111461016a578063c45a0155146101275763dd62ed3e146100db575f80fd5b346101235780600319360112610123576020906100f661097d565b6100fe610993565b9060018060a01b038091165f5260018452825f2091165f528252805f20549051908152f35b5f80fd5b5034610123575f36600319011261012357517f00000000000000000000000000000000000000000000000000000000000000006001600160a01b03168152602090f35b5034610123576020366003190112610123576020906001600160a01b0361018f61097d565b165f526005825260ff815f20541690519015158152f35b5034610123575f36600319011261012357602090517f00000000000000000000000000000000000000000000000000000000000000008152f35b50346101235780600319360112610123576020906102096101ff61097d565b60243590336109a9565b5160018152f35b823461012357806003193601126101235761022961097d565b602435929091906001600160a01b03337f00000000000000000000000000000000000000000000000000000000000000008216141580610320575b6103115783169283156102fb57835f525f602052825f2054918583106102c7575f857fddf252ad1be2c89b69c2b068fc378daa952ba7f163c4a11628f55a4df523b3ef6020898881898688528785520381872055816002540360025551908152a3005b835163391434e360e21b81526001600160a01b03909216908201908152602081018390526040810186905281906060010390fd5b505f6024925191634b637e8f60e11b8352820152fd5b50905163ea8e4eb560e01b8152fd5b50335f52600560205260ff835f20541615610264565b8234610123575f366003190112610123578051905f835460018160011c906001831692831561044b575b60209384841081146104385783885290811561041c57506001146103c8575b505050829003601f01601f191682019267ffffffffffffffff8411838510176103b557508291826103b1925282610936565b0390f35b604190634e487b7160e01b5f525260245ffd5b5f878152929350837f8a35acfbc15ff81a39ae7d344fd709f28e8600b4aa8c65c6b64bfe7fe36bd19b5b838510610408575050505083010184808061037f565b8054888601830152930192849082016103f2565b60ff1916878501525050151560051b840101905084808061037f565b602289634e487b7160e01b5f525260245ffd5b91607f1691610360565b823461012357806003193601126101235761046e61097d565b9160243592831515809403610123576001600160a01b03917f0000000000000000000000000000000000000000000000000000000000000000831633036104cb5750165f5260056020525f209060ff801983541691161790555f80f35b835163ea8e4eb560e01b8152fd5b8234610123576020366003190112610123576020906001600160a01b036104fe61097d565b165f525f8252805f20549051908152f35b823461012357806003193601126101235761052861097d565b60243591906001600160a01b0390337f000000000000000000000000000000000000000000000000000000000000000083161415806105f5575b6105e557169283156105d057600254908382018092116105bd57505f927fddf252ad1be2c89b69c2b068fc378daa952ba7f163c4a11628f55a4df523b3ef9260209260025585855284835280852082815401905551908152a3005b601190634e487b7160e01b5f525260245ffd5b5f602492519163ec442f0560e01b8352820152fd5b825163ea8e4eb560e01b81528590fd5b50335f52600560205260ff835f20541615610562565b8234610123575f366003190112610123576020905160068152f35b9050346101235760603660031901126101235761064161097d565b610649610993565b906044359260018060a01b038216805f526001602052855f20335f52602052855f2054915f198310610684575b6020876102098888886109a9565b8583106106ec5781156106d65733156106c057505f90815260016020908152868220338352815290869020918590039091558290610209610676565b6024905f885191634a1406b160e11b8352820152fd5b6024905f88519163e602df0560e01b8352820152fd5b8651637dc7a0d960e11b8152339181019182526020820193909352604081018690528291506060010390fd5b8234610123575f366003190112610123576020905167ffffffffffffffff7f0000000000000000000000000000000000000000000000000000000000000000168152f35b8234610123575f366003190112610123576020906002549051908152f35b823461012357806003193601126101235761079361097d565b60243590331561080c576001600160a01b03169081156107f65760209350335f5260018452825f20825f52845280835f205582519081527f8c5be1e5ebec7d5bd14f71427d1e84f3dd0314c0f7b2291e5b200ac8c7c3b925843392a35160018152f35b8251634a1406b160e11b81525f81860152602490fd5b825163e602df0560e01b81525f81860152602490fd5b8234610123575f36600319011261012357602090517f000000000000000000000000000000000000000000000000000000000000000015158152f35b8334610123575f366003190112610123575f60035460018160011c906001831692831561092c575b60209384841081146104385783885290811561041c57506001146108d657505050829003601f01601f191682019267ffffffffffffffff8411838510176103b557508291826103b1925282610936565b60035f908152929350837fc2575a0e9e593c00f959f8c92f12db2869c3395a3b0502d05e2516446f71f85b5b838510610918575050505083010184808061037f565b805488860183015293019284908201610902565b91607f1691610886565b602080825282518183018190529093925f5b82811061096957505060409293505f838284010152601f8019910116010190565b818101860151848201604001528501610948565b600435906001600160a01b038216820361012357565b602435906001600160a01b038216820361012357565b916001600160a01b03808416928315610a6b5716928315610a5357825f525f60205260405f205490828210610a215750817fddf252ad1be2c89b69c2b068fc378daa952ba7f163c4a11628f55a4df523b3ef92602092855f525f84520360405f2055845f5260405f20818154019055604051908152a3565b60405163391434e360e21b81526001600160a01b03919091166004820152602481019190915260448101829052606490fd5b60405163ec442f0560e01b81525f6004820152602490fd5b604051634b637e8f60e11b81525f6004820152602490fdfea2646970667358221220516208fa4250dcd1ab06b760dc9117262040ee7f86095392d6250b5b5621b8b764736f6c63430008180033a26469706673582212203fd78604bb48b9c587ff50e88934135d3ff6ef858930bc8e1b07d1ab92cb507064736f6c6343000818003360e0346100e457601f610df038819003918201601f19168301916001600160401b038311848410176100e85780849260409485528339810103126100e457610052602061004b836100fc565b92016100fc565b608082905260a0526001600160a01b03161560c052604051610cdf908161011182396080518181816102b20152818161037d015281816104d60152818161063701528181610b7a0152610c54015260a051818181610160015281816101ac01526103e2015260c051818181601f01528181610205015281816104150152818161066c01528181610a020152610ba60152f35b5f80fd5b634e487b7160e01b5f52604160045260245ffd5b51906001600160a01b03821682036100e45756fe6080604081815260049182361015610052575b50361561001d575f80fd5b7f00000000000000000000000000000000000000000000000000000000000000001561004557005b5163350b944160e11b8152fd5b5f3560e01c908162bbf1e414610a5e57508063050fedb814610a43578063249d39e914610a2757806357dca0e8146109eb5780635cffe9de146105c4578063613255ab1461059f5780637b79b23e146105655780637e91e1a6146103ca5780638f840ddd146103ac578063b2016bd414610369578063c242970d1461018f578063c45a01551461014c578063d9d98ce41461011d5763ea1f3588146100f7575f610012565b34610119575f3660031901126101195760209060ff6002541690519015158152f35b5f80fd5b503461011957806003193601126101195760209061014561013c610a82565b60243590610c4a565b9051908152f35b5034610119575f36600319011261011957517f00000000000000000000000000000000000000000000000000000000000000006001600160a01b03168152602090f35b50346101195761019e36610a98565b9391926001600160a01b03927f00000000000000000000000000000000000000000000000000000000000000008416330361035b5760ff6002541661034d57845f525f602052815f206101f2878254610c3d565b905561020086600154610c3d565b6001557f000000000000000000000000000000000000000000000000000000000000000015610280575f808080898888165af161023b610b10565b50156102725750916020917fffcaa199744b4f26f65f7fcb044bf80d51f5f52627bded663e1e311fd5e36b67935b519586521693a3005b905163022e258160e11b8152fd5b815163a9059cbb60e01b81526001600160a01b0384168282019081526020818101899052908290819060400103815f897f0000000000000000000000000000000000000000000000000000000000000000165af1908115610343575f91610314575b50156102725750916020917fffcaa199744b4f26f65f7fcb044bf80d51f5f52627bded663e1e311fd5e36b6793610269565b610336915060203d60201161033c575b61032e8183610ac2565b810190610af8565b5f6102e2565b503d610324565b83513d5f823e3d90fd5b90516317a9cf1360e11b8152fd5b9051631966391b60e11b8152fd5b5034610119575f36600319011261011957517f00000000000000000000000000000000000000000000000000000000000000006001600160a01b03168152602090f35b5034610119575f366003190112610119576020906001549051908152f35b506103d436610a98565b9391926001600160a01b03927f00000000000000000000000000000000000000000000000000000000000000008416330361035b5760ff6002541661034d577f000000000000000000000000000000000000000000000000000000000000000015610496578534036102725750916020917f1d1dbfe660a144d4bd44700051a1712022edec759e93ccc609700a50d325fc45935b855f525f8452805f2061047c888254610b4f565b905561048a87600154610b4f565b600155519586521693a3005b346105575781516323b872dd60e01b81526001600160a01b0384168282019081523060208281019190915260408201899052908290819060600103815f897f0000000000000000000000000000000000000000000000000000000000000000165af1908115610343575f91610538575b50156102725750916020917f1d1dbfe660a144d4bd44700051a1712022edec759e93ccc609700a50d325fc4593610468565b610551915060203d60201161033c5761032e8183610ac2565b5f610506565b905163350b944160e11b8152fd5b5034610119575f36600319011261011957602090517f439148f0bbc682ca079e46d6e2c2f0c1e3b820f1a291b069d8882abf8cf18dd98152f35b5034610119576020366003190112610119576020906101456105bf610a82565b610b70565b5034610119576080366003190112610119576001600160a01b0391803583811690819003610119576024359380851680860361011957604435936064359667ffffffffffffffff93848911610119573660238a011215610119578883013594851161011957366024868b010111610119577f0000000000000000000000000000000000000000000000000000000000000000168084036109db576002549360ff85166109cb577f00000000000000000000000000000000000000000000000000000000000000009081156109605747935b848a1161095057896106a691610c4a565b60ff1996871660011760025596888b8b85156108d1575f80938193509181925af16106cf610b10565b50156108c1575b8060248c519d8e946323e30c8b60e01b8652338a870152828601528c60448601528a606486015260a060848601528260a48601520160c48401375f60c482840101528160c460209d8e93601f801991011681010301815f8c5af180156108b7575f9061086a575b7f439148f0bbc682ca079e46d6e2c2f0c1e3b820f1a291b069d8882abf8cf18dd991500361085a57899190156107cb57505061077a844792610b4f565b116107bd57505b600254166002558351928352848301527f0d7d75e01ab95780d3cd1c8ec0dd6c2ce19e3a20427eec8bf53283b6fb8e95f0833393a35160018152f35b855163022e258160e11b8152fd5b5f9250610815906107dc878a610b4f565b8a516323b872dd60e01b81526001600160a01b038a16878201908152306020820152604081019290925294859384928391606090910190565b03925af1908115610850575f91610833575b50156107bd5750610781565b61084a9150883d8a1161033c5761032e8183610ac2565b5f610827565b87513d5f823e3d90fd5b8851637d65916160e01b81528490fd5b508a81813d83116108b0575b6108808183610ac2565b81010312610119577f439148f0bbc682ca079e46d6e2c2f0c1e3b820f1a291b069d8882abf8cf18dd9905161073d565b503d610876565b8a513d5f823e3d90fd5b8a5163022e258160e11b81528690fd5b905163a9059cbb60e01b81526001600160a01b039092168883019081526020818101929092528290819060400103815f895af1908115610946575f91610927575b506106d6578a5163022e258160e11b81528690fd5b610940915060203d60201161033c5761032e8183610ac2565b5f610912565b8c513d5f823e3d90fd5b8a5163bb55fd2760e01b81528690fd5b89516370a0823160e01b81523086820152602081602481875afa9081156109c1575f9161098f575b5093610695565b90506020813d6020116109b9575b816109aa60209383610ac2565b8101031261011957515f610988565b3d915061099d565b8b513d5f823e3d90fd5b88516317a9cf1360e11b81528490fd5b875163350b944160e11b81528390fd5b5034610119575f36600319011261011957602090517f000000000000000000000000000000000000000000000000000000000000000015158152f35b5034610119575f36600319011261011957602090516127108152f35b5034610119575f366003190112610119576020905160058152f35b9190503461011957602036600319011261011957602092355f525f83525f20548152f35b600435906001600160a01b038216820361011957565b606090600319011261011957600435906024356001600160a01b0381168103610119579060443590565b90601f8019910116810190811067ffffffffffffffff821117610ae457604052565b634e487b7160e01b5f52604160045260245ffd5b90816020910312610119575180151581036101195790565b3d15610b4a573d9067ffffffffffffffff8211610ae45760405191610b3f601f8201601f191660200184610ac2565b82523d5f602084013e565b606090565b91908201809211610b5c57565b634e487b7160e01b5f52601160045260245ffd5b6001600160a01b037f000000000000000000000000000000000000000000000000000000000000000081169116819003610c38577f000000000000000000000000000000000000000000000000000000000000000015610bcf57504790565b6020602491604051928380926370a0823160e01b82523060048301525afa908115610c2d575f91610bfe575090565b90506020813d602011610c25575b81610c1960209383610ac2565b81010312610119575190565b3d9150610c0c565b6040513d5f823e3d90fd5b505f90565b91908203918211610b5c57565b6001600160a01b037f00000000000000000000000000000000000000000000000000000000000000008116911603610c9757600581029080820460051490151715610b5c57612710900490565b60405163350b944160e11b8152600490fdfea26469706673582212204a37598519470dcbda1a327a32c15930343d0909632e91e0c4d1d4d34fbd826164736f6c63430008180033","linkReferences":{}},"methodIdentifiers":{"SCALE()":"eced5526","authorizeBridge(uint256,uint64)":"7b1760d4","bridge()":"e78cea92","bridgeMint(uint256,uint64,bool,address,uint256)":"935b8646","bridgeMintable(bytes32)":"bc352441","collateralToken()":"b2016bd4","createSeries(uint256,uint64)":"39a2540b","fundBridgeReserve(uint256,uint64,uint256)":"671a128d","getTokens(uint256,uint64)":"c4c244a2","isSettled(uint256,uint64)":"faaa551e","merge(uint256,uint64,uint256)":"ca27cb7e","oracle()":"7dc0d1d0","redeem(uint256,uint64)":"1c706885","reserves(bytes32)":"00bbf1e4","series(bytes32)":"f5de118e","seriesId(uint256,uint64)":"d9e829e8","setBridge(address)":"8dd14802","settle(uint256,uint64,uint256)":"99323f5d","split(uint256,uint64,uint256)":"18dc1cee","vault()":"fbfa77cf"},"id":45}