{"abi":[{"type":"constructor","inputs":[{"name":"cWETH_","type":"address","internalType":"address"},{"name":"factory_","type":"address","internalType":"address"}],"stateMutability":"nonpayable"},{"type":"function","name":"cWETH","inputs":[],"outputs":[{"name":"","type":"address","internalType":"contract IConfidentialCollateralToken"}],"stateMutability":"view"},{"type":"function","name":"depositReserve","inputs":[{"name":"seriesId","type":"bytes32","internalType":"bytes32"},{"name":"from","type":"address","internalType":"address"},{"name":"encAmount","type":"bytes32","internalType":"externalEuint64"},{"name":"proof","type":"bytes","internalType":"bytes"}],"outputs":[{"name":"amount","type":"bytes32","internalType":"euint64"}],"stateMutability":"nonpayable"},{"type":"function","name":"factory","inputs":[],"outputs":[{"name":"","type":"address","internalType":"address"}],"stateMutability":"view"},{"type":"function","name":"reserveOf","inputs":[{"name":"seriesId","type":"bytes32","internalType":"bytes32"}],"outputs":[{"name":"","type":"bytes32","internalType":"euint64"}],"stateMutability":"view"},{"type":"function","name":"withdrawReserve","inputs":[{"name":"seriesId","type":"bytes32","internalType":"bytes32"},{"name":"to","type":"address","internalType":"address"},{"name":"amount","type":"bytes32","internalType":"euint64"}],"outputs":[],"stateMutability":"nonpayable"},{"type":"event","name":"ReserveDeposited","inputs":[{"name":"seriesId","type":"bytes32","indexed":true,"internalType":"bytes32"},{"name":"from","type":"address","indexed":true,"internalType":"address"}],"anonymous":false},{"type":"event","name":"ReserveWithdrawn","inputs":[{"name":"seriesId","type":"bytes32","indexed":true,"internalType":"bytes32"},{"name":"to","type":"address","indexed":true,"internalType":"address"}],"anonymous":false},{"type":"error","name":"NotFactory","inputs":[]},{"type":"error","name":"SenderNotAllowedToUseHandle","inputs":[{"name":"handle","type":"bytes32","internalType":"bytes32"},{"name":"sender","type":"address","internalType":"address"}]},{"type":"error","name":"ZamaProtocolUnsupported","inputs":[]}],"bytecode":{"object":"0x60c034620002ab5762000d0590601f38839003908101601f19168201906001600160401b03821183831017620002af5780839160409586948552833981010312620002ab576200005d60206200005583620002e3565b9201620002e3565b9062000068620002f8565b5046600103620001b9576200007c620002f8565b5062000087620002c3565b73ca2e8f1f656cd25c01f05d0b243ab1ecd4a8ffb6815273d82385dada1ae3e969447f20a3164f6213100e7560208201527377627828a55156b04ac0dc0eb30467f1a552bb0384820152905b81517f9e7b61f58c47dc699ac88507c4f5bb9f121c03808c5676a8078fe583e464970080546001600160a01b03199081166001600160a01b039384161790915560208401517f9e7b61f58c47dc699ac88507c4f5bb9f121c03808c5676a8078fe583e464970180548316918416919091179055928501517f9e7b61f58c47dc699ac88507c4f5bb9f121c03808c5676a8078fe583e46497028054909416908216179092551660805260a052516109f090816200031582396080518181816101d30152818161046c01526105e7015260a05181818160930152818161012b01526103b60152f35b4662aa36a7036200022a57620001ce620002f8565b50620001d9620002c3565b73f0ffdc93b7e186bc2f8cb3daa75d86d1930a433d81527392c920834ec8941d2c77d188936e1f7a6f49c127602082015273be0e383937d564d7ff0bc3b46c51f0bf8d5c311a8482015290620000d3565b46617a69036200029a576200023e620002f8565b5062000249620002c3565b7350157cffd6bbfa2dece204a89ec419c23ef5755d815273e3a9105a3a932253a70f126eb1e3b589c643dd24602082015273901f8942346f7ab3a01f6d7613119bca447bb0308482015290620000d3565b82516373cac13b60e01b8152600490fd5b5f80fd5b634e487b7160e01b5f52604160045260245ffd5b60405190606082016001600160401b03811183821017620002af57604052565b51906001600160a01b0382168203620002ab57565b62000302620002c3565b905f82525f60208301525f604083015256fe6080604081815260049182361015610015575f80fd5b5f3560e01c9081631ee8aa1f146105d5575080632b0b4fa71461038a578063a357ce84146100c2578063c45a01551461007f5763d7b8c54314610056575f80fd5b3461007b57602036600319011261007b57602091355f525f8252805f20549051908152f35b5f80fd5b503461007b575f36600319011261007b57517f00000000000000000000000000000000000000000000000000000000000000006001600160a01b03168152602090f35b50903461007b57608036600319011261007b578035906100e0610616565b926044359060643567ffffffffffffffff9384821161007b573660238301121561007b578181013594851161007b576024820191602486369201011161007b576001600160a01b03917f00000000000000000000000000000000000000000000000000000000000000008316330361037b57601f19601f870116836020998a92875184820161016f9082610654565b8a81528a86868301375f818c01860152610189908a61068e565b998089519687958695634d04a1a960e11b8752169b8c8a8701523060248701526044860152606485016080905281608486015260a4850137820160a4015f905281010360a40181867f0000000000000000000000000000000000000000000000000000000000000000165a905f91f1801561037157610344575b50855f525f875286835f205486928115610334575b8715948561031c575b905f6064925f8051602061099b83398151915254168851968795869463022f65e760e31b865285015260248401528160448401525af1908115610312575f916102e5575b50855f525f875280835f205580156102d2575b61028390309061089c565b83906102bf575b61029590339061089c565b51927feaf380bbf80a28976076568b0dcbc66ae4815e1a6460e44d6e4c1c716ffbee915f80a38152f35b506102956102cb610918565b905061028a565b506102836102de610918565b9050610278565b90508681813d831161030b575b6102fc8183610654565b8101031261007b57515f610265565b503d6102f2565b83513d5f823e3d90fd5b93506064905f61032a610918565b9591925050610221565b905061033e610918565b90610218565b61036390883d8a1161036a575b61035b8183610654565b810190610676565b505f610203565b503d610351565b84513d5f823e3d90fd5b508251631966391b60e11b8152fd5b503461007b57606036600319011261007b578135906103a7610616565b90604435906001600160a01b037f0000000000000000000000000000000000000000000000000000000000000000811633036105c557845f526020935f8552825f20548481156105b5575b86861592836105a5575b60648b5f885f8051602061099b83398151915254168a5196879586946303056db360e31b865285015260248401528160448401525af190811561059b579087949392915f91610565575b50604492915f918a835282875280888420558015610552575b61046a90309061089c565b7f000000000000000000000000000000000000000000000000000000000000000085169088828261053e575b61049f9161089c565b83899161052a575b6104b09161089c565b86519788958694637d32e7bd60e01b865216809c85015260248401525af19081156105215750610503575b50507f4770fbbd7702cc701f57b09bfaaf10740fabb91e4c906ce6de1f8da8212e2a3f5f80a3005b8161051992903d1061036a5761035b8183610654565b505f806104db565b513d5f823e3d90fd5b6104b09150610537610918565b91506104a7565b61049f915061054b610918565b9150610496565b5061046a61055e610918565b905061045f565b85819692509392933d8311610594575b61057f8183610654565b8101031261007b579251869391906044610446565b503d610575565b85513d5f823e3d90fd5b91506105af610918565b916103fc565b90506105bf610918565b906103f2565b8151631966391b60e11b81528690fd5b3461007b575f36600319011261007b577f00000000000000000000000000000000000000000000000000000000000000006001600160a01b03168152602090f35b602435906001600160a01b038216820361007b57565b67ffffffffffffffff811161064057604052565b634e487b7160e01b5f52604160045260245ffd5b90601f8019910116810190811067ffffffffffffffff82111761064057604052565b9081602091031261007b5751801515810361007b5790565b8151909190156107e4575f8051602061099b8339815191525460405163045fc19560e11b81526004810193909352336024840152608060448401528151608484018190526001600160a01b0392918316918491905f5b8281106107cc57505091815f60a4828683836020998401015260056064830152601f801991011681010301925af191821561078d575f92610798575b507f9e7b61f58c47dc699ac88507c4f5bb9f121c03808c5676a8078fe583e46497005416803b1561007b57604051630f8e573b60e21b815260048101839052336024820152905f908290604490829084905af1801561078d57610781575090565b61078a9061062c565b90565b6040513d5f823e3d90fd5b9091506020813d6020116107c4575b816107b460209383610654565b8101031261007b5751905f610720565b3d91506107a7565b602082820181015160a48984010152879450016106e4565b508015610893577f9e7b61f58c47dc699ac88507c4f5bb9f121c03808c5676a8078fe583e4649700546040516382027b6d60e01b81526004810183905233602482015290602090829060449082906001600160a01b03165afa90811561078d575f91610874575b50156108545790565b604051630276b5d960e01b81526004810191909152336024820152604490fd5b61088d915060203d60201161036a5761035b8183610654565b5f61084b565b5061078a610918565b7f9e7b61f58c47dc699ac88507c4f5bb9f121c03808c5676a8078fe583e4649700546001600160a01b031691823b1561007b57604051635ca4b5b160e11b815260048101929092526001600160a01b03166024820152905f908290604490829084905af1801561078d5761090d5750565b6109169061062c565b565b5f8051602061099b83398151915254604051639cd07acb60e01b81525f60048201819052600560248301529091602091839160449183916001600160a01b03165af190811561078d575f9161096b575090565b90506020813d602011610992575b8161098660209383610654565b8101031261007b575190565b3d915061097956fe9e7b61f58c47dc699ac88507c4f5bb9f121c03808c5676a8078fe583e4649701a26469706673582212209f09023966de43e95375b1963edf6735a07e4072836e55320413256c4388bda464736f6c63430008180033","linkReferences":{}},"methodIdentifiers":{"cWETH()":"1ee8aa1f","depositReserve(bytes32,address,bytes32,bytes)":"a357ce84","factory()":"c45a0155","reserveOf(bytes32)":"d7b8c543","withdrawReserve(bytes32,address,bytes32)":"2b0b4fa7"},"id":13}