{"abi":[{"type":"function","name":"cast","inputs":[{"name":"ct","type":"bytes32","internalType":"bytes32"},{"name":"","type":"uint8","internalType":"enum FheType"}],"outputs":[{"name":"","type":"bytes32","internalType":"bytes32"}],"stateMutability":"pure"},{"type":"function","name":"fheAdd","inputs":[{"name":"lhs","type":"bytes32","internalType":"bytes32"},{"name":"rhs","type":"bytes32","internalType":"bytes32"},{"name":"","type":"bytes1","internalType":"bytes1"}],"outputs":[{"name":"","type":"bytes32","internalType":"bytes32"}],"stateMutability":"pure"},{"type":"function","name":"fheBitAnd","inputs":[{"name":"lhs","type":"bytes32","internalType":"bytes32"},{"name":"rhs","type":"bytes32","internalType":"bytes32"},{"name":"","type":"bytes1","internalType":"bytes1"}],"outputs":[{"name":"","type":"bytes32","internalType":"bytes32"}],"stateMutability":"pure"},{"type":"function","name":"fheBitOr","inputs":[{"name":"lhs","type":"bytes32","internalType":"bytes32"},{"name":"rhs","type":"bytes32","internalType":"bytes32"},{"name":"","type":"bytes1","internalType":"bytes1"}],"outputs":[{"name":"","type":"bytes32","internalType":"bytes32"}],"stateMutability":"pure"},{"type":"function","name":"fheBitXor","inputs":[{"name":"lhs","type":"bytes32","internalType":"bytes32"},{"name":"rhs","type":"bytes32","internalType":"bytes32"},{"name":"","type":"bytes1","internalType":"bytes1"}],"outputs":[{"name":"","type":"bytes32","internalType":"bytes32"}],"stateMutability":"pure"},{"type":"function","name":"fheDiv","inputs":[{"name":"lhs","type":"bytes32","internalType":"bytes32"},{"name":"rhs","type":"bytes32","internalType":"bytes32"},{"name":"","type":"bytes1","internalType":"bytes1"}],"outputs":[{"name":"","type":"bytes32","internalType":"bytes32"}],"stateMutability":"pure"},{"type":"function","name":"fheEq","inputs":[{"name":"lhs","type":"bytes32","internalType":"bytes32"},{"name":"rhs","type":"bytes32","internalType":"bytes32"},{"name":"","type":"bytes1","internalType":"bytes1"}],"outputs":[{"name":"","type":"bytes32","internalType":"bytes32"}],"stateMutability":"pure"},{"type":"function","name":"fheGe","inputs":[{"name":"lhs","type":"bytes32","internalType":"bytes32"},{"name":"rhs","type":"bytes32","internalType":"bytes32"},{"name":"","type":"bytes1","internalType":"bytes1"}],"outputs":[{"name":"","type":"bytes32","internalType":"bytes32"}],"stateMutability":"pure"},{"type":"function","name":"fheGt","inputs":[{"name":"lhs","type":"bytes32","internalType":"bytes32"},{"name":"rhs","type":"bytes32","internalType":"bytes32"},{"name":"","type":"bytes1","internalType":"bytes1"}],"outputs":[{"name":"","type":"bytes32","internalType":"bytes32"}],"stateMutability":"pure"},{"type":"function","name":"fheIfThenElse","inputs":[{"name":"control","type":"bytes32","internalType":"bytes32"},{"name":"ifTrue","type":"bytes32","internalType":"bytes32"},{"name":"ifFalse","type":"bytes32","internalType":"bytes32"}],"outputs":[{"name":"","type":"bytes32","internalType":"bytes32"}],"stateMutability":"pure"},{"type":"function","name":"fheIsIn","inputs":[{"name":"value","type":"bytes32","internalType":"bytes32"},{"name":"values","type":"bytes32[]","internalType":"bytes32[]"},{"name":"","type":"uint8","internalType":"enum FheType"}],"outputs":[{"name":"","type":"bytes32","internalType":"bytes32"}],"stateMutability":"pure"},{"type":"function","name":"fheLe","inputs":[{"name":"lhs","type":"bytes32","internalType":"bytes32"},{"name":"rhs","type":"bytes32","internalType":"bytes32"},{"name":"","type":"bytes1","internalType":"bytes1"}],"outputs":[{"name":"","type":"bytes32","internalType":"bytes32"}],"stateMutability":"pure"},{"type":"function","name":"fheLt","inputs":[{"name":"lhs","type":"bytes32","internalType":"bytes32"},{"name":"rhs","type":"bytes32","internalType":"bytes32"},{"name":"","type":"bytes1","internalType":"bytes1"}],"outputs":[{"name":"","type":"bytes32","internalType":"bytes32"}],"stateMutability":"pure"},{"type":"function","name":"fheMax","inputs":[{"name":"lhs","type":"bytes32","internalType":"bytes32"},{"name":"rhs","type":"bytes32","internalType":"bytes32"},{"name":"","type":"bytes1","internalType":"bytes1"}],"outputs":[{"name":"","type":"bytes32","internalType":"bytes32"}],"stateMutability":"pure"},{"type":"function","name":"fheMin","inputs":[{"name":"lhs","type":"bytes32","internalType":"bytes32"},{"name":"rhs","type":"bytes32","internalType":"bytes32"},{"name":"","type":"bytes1","internalType":"bytes1"}],"outputs":[{"name":"","type":"bytes32","internalType":"bytes32"}],"stateMutability":"pure"},{"type":"function","name":"fheMul","inputs":[{"name":"lhs","type":"bytes32","internalType":"bytes32"},{"name":"rhs","type":"bytes32","internalType":"bytes32"},{"name":"","type":"bytes1","internalType":"bytes1"}],"outputs":[{"name":"","type":"bytes32","internalType":"bytes32"}],"stateMutability":"pure"},{"type":"function","name":"fheMulDiv","inputs":[{"name":"factor1","type":"bytes32","internalType":"bytes32"},{"name":"factor2","type":"bytes32","internalType":"bytes32"},{"name":"divisor","type":"bytes32","internalType":"bytes32"},{"name":"","type":"bytes1","internalType":"bytes1"}],"outputs":[{"name":"","type":"bytes32","internalType":"bytes32"}],"stateMutability":"pure"},{"type":"function","name":"fheNe","inputs":[{"name":"lhs","type":"bytes32","internalType":"bytes32"},{"name":"rhs","type":"bytes32","internalType":"bytes32"},{"name":"","type":"bytes1","internalType":"bytes1"}],"outputs":[{"name":"","type":"bytes32","internalType":"bytes32"}],"stateMutability":"pure"},{"type":"function","name":"fheNeg","inputs":[{"name":"ct","type":"bytes32","internalType":"bytes32"}],"outputs":[{"name":"","type":"bytes32","internalType":"bytes32"}],"stateMutability":"pure"},{"type":"function","name":"fheNot","inputs":[{"name":"ct","type":"bytes32","internalType":"bytes32"}],"outputs":[{"name":"","type":"bytes32","internalType":"bytes32"}],"stateMutability":"pure"},{"type":"function","name":"fheRand","inputs":[{"name":"","type":"uint8","internalType":"enum FheType"}],"outputs":[{"name":"","type":"bytes32","internalType":"bytes32"}],"stateMutability":"pure"},{"type":"function","name":"fheRandBounded","inputs":[{"name":"upperBound","type":"uint256","internalType":"uint256"},{"name":"","type":"uint8","internalType":"enum FheType"}],"outputs":[{"name":"","type":"bytes32","internalType":"bytes32"}],"stateMutability":"pure"},{"type":"function","name":"fheRem","inputs":[{"name":"lhs","type":"bytes32","internalType":"bytes32"},{"name":"rhs","type":"bytes32","internalType":"bytes32"},{"name":"","type":"bytes1","internalType":"bytes1"}],"outputs":[{"name":"","type":"bytes32","internalType":"bytes32"}],"stateMutability":"pure"},{"type":"function","name":"fheRotl","inputs":[{"name":"lhs","type":"bytes32","internalType":"bytes32"},{"name":"","type":"bytes32","internalType":"bytes32"},{"name":"","type":"bytes1","internalType":"bytes1"}],"outputs":[{"name":"","type":"bytes32","internalType":"bytes32"}],"stateMutability":"pure"},{"type":"function","name":"fheRotr","inputs":[{"name":"lhs","type":"bytes32","internalType":"bytes32"},{"name":"","type":"bytes32","internalType":"bytes32"},{"name":"","type":"bytes1","internalType":"bytes1"}],"outputs":[{"name":"","type":"bytes32","internalType":"bytes32"}],"stateMutability":"pure"},{"type":"function","name":"fheShl","inputs":[{"name":"lhs","type":"bytes32","internalType":"bytes32"},{"name":"rhs","type":"bytes32","internalType":"bytes32"},{"name":"","type":"bytes1","internalType":"bytes1"}],"outputs":[{"name":"","type":"bytes32","internalType":"bytes32"}],"stateMutability":"pure"},{"type":"function","name":"fheShr","inputs":[{"name":"lhs","type":"bytes32","internalType":"bytes32"},{"name":"rhs","type":"bytes32","internalType":"bytes32"},{"name":"","type":"bytes1","internalType":"bytes1"}],"outputs":[{"name":"","type":"bytes32","internalType":"bytes32"}],"stateMutability":"pure"},{"type":"function","name":"fheSub","inputs":[{"name":"lhs","type":"bytes32","internalType":"bytes32"},{"name":"rhs","type":"bytes32","internalType":"bytes32"},{"name":"","type":"bytes1","internalType":"bytes1"}],"outputs":[{"name":"","type":"bytes32","internalType":"bytes32"}],"stateMutability":"pure"},{"type":"function","name":"fheSum","inputs":[{"name":"values","type":"bytes32[]","internalType":"bytes32[]"},{"name":"","type":"uint8","internalType":"enum FheType"}],"outputs":[{"name":"result","type":"bytes32","internalType":"bytes32"}],"stateMutability":"pure"},{"type":"function","name":"getInputVerifierAddress","inputs":[],"outputs":[{"name":"","type":"address","internalType":"address"}],"stateMutability":"view"},{"type":"function","name":"trivialEncrypt","inputs":[{"name":"ct","type":"uint256","internalType":"uint256"},{"name":"","type":"uint8","internalType":"enum FheType"}],"outputs":[{"name":"","type":"bytes32","internalType":"bytes32"}],"stateMutability":"pure"},{"type":"function","name":"verifyInput","inputs":[{"name":"inputHandle","type":"bytes32","internalType":"bytes32"},{"name":"","type":"address","internalType":"address"},{"name":"","type":"bytes","internalType":"bytes"},{"name":"","type":"uint8","internalType":"enum FheType"}],"outputs":[{"name":"","type":"bytes32","internalType":"bytes32"}],"stateMutability":"pure"}],"bytecode":{"object":"0x608080604052346100165761086a908161001b8239f35b5f80fdfe6080604090808252600480361015610015575f80fd5b5f3560e01c91826304559f71146106c25750816304a8d1991461064b57816308bf832a14610583578163117b2f38146105675781631391547f1461054a578163182b6d98146105115781631c89ee44146104ea57816336318d64146104c057816348eef47e1461049357816357f0a568146104775781635a53accb1461044e57816363a2db29146104335781636754b360146102a2578163721076811461041757816373729f60146103cb5781637513a404146103ae5781637702dcff1461038257816385362ee7146103665781638b49ceb41461034b57816391f98ffe1461033057816394fdeb20146102db5781639cd07acb146102c1578163a8c7c2c1146102a7578163c021329e146102a2578163ccc480a114610287578163cf4d18aa1461025c578163d580c06314610223578163d75d6e8a146101fc578163d8092cbc146101df578163d99882d5146101c4578163f51ccfb0146101a6575063f77f3f1d14610180575f80fd5b346101a25760209061019b610194366106e5565b5014610826565b9051908152f35b5f80fd5b9050346101a25760203660031901126101a257602091519035198152f35b82346101a2576020906101d6366106e5565b50915191168152f35b82346101a25760209061019b6101f4366106e5565b501415610826565b9050346101a25760203660031901126101a2576054903510156101a2576020905160018152f35b82346101a25760203660031901126101a25781359081610249576020925051905f038152f35b601183634e487b7160e01b5f525260245ffd5b82346101a25760209061026e366106e5565b5090816102805750505f905b51908152f35b069061027a565b82346101a257602090610299366106e5565b509151911b8152f35b610760565b82346101a2575f3660031901126101a25760209051308152f35b82346101a2576020906102d336610741565b509051908152f35b82346101a25760803660031901126101a257604435916064356001600160f81b03198116036101a25760209280610314575050515f8152f35b61032561032a9260243590356107bf565b6107d2565b9061027a565b82346101a257602090610342366106e5565b509151911c8152f35b82346101a25760209061035d366106e5565b50915191188152f35b82346101a25760209061019b61037b366106e5565b5010610826565b82346101a25760603660031901126101a25760209135156103a557516024358152f35b6044359061027a565b82346101a25760209061019b6103c3366106e5565b501015610826565b82346101a25760603660031901126101a25760243567ffffffffffffffff81116101a2576103fc9036908401610710565b605460449492943510156101a25760209361019b92356107f0565b82346101a25760209061019b61042c366106e5565b5011610826565b82346101a257602090610445366106e5565b50915191178152f35b82346101a257602090610460366106e5565b508061046e575050515f8152f35b61032a916107d2565b82346101a25760209061019b61048c366106e5565b50906107bf565b82346101a2576020906104a536610741565b506104b65760ff5f915b5191168152f35b60ff6001916104af565b82346101a2576020906104d2366106e5565b508082106104e257509051908152f35b90509061027a565b9050346101a257816003193601126101a257605460243510156101a2576020915190358152f35b82346101a257610520366106e5565b508082111561053d57810390811161024957602092509051908152f35b5050602091505f9061027a565b82346101a25760209061019b61055f366106e5565b501115610826565b82346101a25760209061019b61057c366106e5565b509061079e565b9050346101a25760803660031901126101a2576024356001600160a01b038116036101a25767ffffffffffffffff6044358181116101a257366023820112156101a2578083013582811161063857845192601f8201601f19908116603f011684019081118482101761062557855280835236602482840101116101a2575f928160246020940184830137010152605460643510156101a2576020915190358152f35b604185634e487b7160e01b5f525260245ffd5b604184634e487b7160e01b5f525260245ffd5b9050346101a257816003193601126101a25780359067ffffffffffffffff82116101a25761067b91369101610710565b90605460243510156101a257905f915f915b80831061069e576020848651908152f35b9091926106b96001916106b286858761077a565b359061079e565b9301919061068d565b346101a2576020906106d3366106e5565b508082116106e057508152f35b825250f35b60609060031901126101a25760043590602435906044356001600160f81b0319811681036101a25790565b9181601f840112156101a25782359167ffffffffffffffff83116101a2576020808501948460051b0101116101a257565b60409060031901126101a2576004359060243560548110156101a25790565b346101a2576020610770366106e5565b5050604051908152f35b919081101561078a5760051b0190565b634e487b7160e01b5f52603260045260245ffd5b919082018092116107ab57565b634e487b7160e01b5f52601160045260245ffd5b818102929181159184041417156107ab57565b81156107dc570490565b634e487b7160e01b5f52601260045260245ffd5b90915f5b81811061080357505050505f90565b8261080f82848761077a565b351461081d576001016107f4565b50505050600190565b1561083057600190565b5f9056fea2646970667358221220717cffa74ede18a65bdede7f31a90686a4b58f7676048ef83efdc08e29da418e64736f6c63430008180033","linkReferences":{}},"methodIdentifiers":{"cast(bytes32,uint8)":"1c89ee44","fheAdd(bytes32,bytes32,bytes1)":"117b2f38","fheBitAnd(bytes32,bytes32,bytes1)":"d99882d5","fheBitOr(bytes32,bytes32,bytes1)":"63a2db29","fheBitXor(bytes32,bytes32,bytes1)":"8b49ceb4","fheDiv(bytes32,bytes32,bytes1)":"5a53accb","fheEq(bytes32,bytes32,bytes1)":"f77f3f1d","fheGe(bytes32,bytes32,bytes1)":"1391547f","fheGt(bytes32,bytes32,bytes1)":"85362ee7","fheIfThenElse(bytes32,bytes32,bytes32)":"7702dcff","fheIsIn(bytes32,bytes32[],uint8)":"73729f60","fheLe(bytes32,bytes32,bytes1)":"7513a404","fheLt(bytes32,bytes32,bytes1)":"72107681","fheMax(bytes32,bytes32,bytes1)":"36318d64","fheMin(bytes32,bytes32,bytes1)":"04559f71","fheMul(bytes32,bytes32,bytes1)":"57f0a568","fheMulDiv(bytes32,bytes32,bytes32,bytes1)":"94fdeb20","fheNe(bytes32,bytes32,bytes1)":"d8092cbc","fheNeg(bytes32)":"d580c063","fheNot(bytes32)":"f51ccfb0","fheRand(uint8)":"d75d6e8a","fheRandBounded(uint256,uint8)":"48eef47e","fheRem(bytes32,bytes32,bytes1)":"cf4d18aa","fheRotl(bytes32,bytes32,bytes1)":"6754b360","fheRotr(bytes32,bytes32,bytes1)":"c021329e","fheShl(bytes32,bytes32,bytes1)":"ccc480a1","fheShr(bytes32,bytes32,bytes1)":"91f98ffe","fheSub(bytes32,bytes32,bytes1)":"182b6d98","fheSum(bytes32[],uint8)":"04a8d199","getInputVerifierAddress()":"a8c7c2c1","trivialEncrypt(uint256,uint8)":"9cd07acb","verifyInput(bytes32,address,bytes,uint8)":"08bf832a"},"id":47}