{"abi":[{"type":"function","name":"VALID_PROOF","inputs":[],"outputs":[{"name":"","type":"bytes","internalType":"bytes"}],"stateMutability":"view"},{"type":"function","name":"eip712Domain","inputs":[],"outputs":[{"name":"fields","type":"bytes1","internalType":"bytes1"},{"name":"name","type":"string","internalType":"string"},{"name":"version","type":"string","internalType":"string"},{"name":"chainId","type":"uint256","internalType":"uint256"},{"name":"verifyingContract","type":"address","internalType":"address"},{"name":"salt","type":"bytes32","internalType":"bytes32"},{"name":"extensions","type":"uint256[]","internalType":"uint256[]"}],"stateMutability":"view"},{"type":"function","name":"getContextSignersAndThresholdFromExtraData","inputs":[{"name":"","type":"bytes","internalType":"bytes"}],"outputs":[{"name":"signers","type":"address[]","internalType":"address[]"},{"name":"threshold","type":"uint256","internalType":"uint256"}],"stateMutability":"pure"},{"type":"function","name":"verifyDecryptionEIP712KMSSignatures","inputs":[{"name":"handlesList","type":"bytes32[]","internalType":"bytes32[]"},{"name":"decryptedResult","type":"bytes","internalType":"bytes"},{"name":"decryptionProof","type":"bytes","internalType":"bytes"}],"outputs":[{"name":"","type":"bool","internalType":"bool"}],"stateMutability":"pure"}],"bytecode":{"object":"0x60808060405234610016576104e1908161001b8239f35b5f80fdfe60406080815260049081361015610014575f80fd5b5f3560e01c806378542ead1461023c57806384b0196e146101485780639cc40c22146101025763b7f47bd614610048575f80fd5b346100fe57602091826003193601126100fe5780359067ffffffffffffffff908183116100fe57366023840112156100fe578201359081116100fe57369101602401116100fe57610097610314565b9060019260018352808301918136843760016100b2856103fe565b528051948594828601928652518092526060850193915f5b8181106100df57505050506001908301520390f35b83516001600160a01b03168652879650948401949284019282016100ca565b5f80fd5b50346100fe575f3660031901126100fe576101449061011f610314565b9060058252641d985b1a5960da1b6020830152519182916020835260208301906103c0565b0390f35b5090346100fe575f3660031901126100fe578151906020918281019181831067ffffffffffffffff841117610229575083838382525f8352610188610314565b9260088452674c6f63616c4b4d5360c01b82850152816101e46101a9610314565b9460019560018152603160f81b848201526101d7825198600f60f81b8a5260e0868b015260e08a01906103c0565b91888303908901526103c0565b914660608701523060808701525f60a087015285830360c087015251918281520194915f5b8281106102165785870386f35b8351875295810195928101928401610209565b604190634e487b7160e01b5f525260245ffd5b50346100fe5760603660031901126100fe5767ffffffffffffffff9180358381116100fe57366023820112156100fe578082013590848211610301578160051b906020916024602061028f818401610348565b809681520191830101913683116100fe57602401905b8282106102f257505050506024358481116100fe576102c7903690840161036e565b6044359485116100fe576102e36102e99360209636910161036e565b9161041f565b90519015158152f35b813581529083019083016102a5565b604183634e487b7160e01b5f525260245ffd5b604051906040820182811067ffffffffffffffff82111761033457604052565b634e487b7160e01b5f52604160045260245ffd5b6040519190601f01601f1916820167ffffffffffffffff81118382101761033457604052565b81601f820112156100fe5780359067ffffffffffffffff82116103345761039e601f8301601f1916602001610348565b92828452602083830101116100fe57815f926020809301838601378301015290565b91908251928382525f5b8481106103ea575050825f602080949584010152601f8019910116010190565b6020818301810151848301820152016103ca565b80511561040b5760200190565b634e487b7160e01b5f52603260045260245ffd5b917fd89cb60d7bb51b2e66fc1cd78900f2c708ed6c0a195e1923095557d52cfb8d0e9060208151910120641d985b1a5960da1b602061045c610314565b600581520152036104a55760018251036104a5576020818051810103126100fe57602001519067ffffffffffffffff908183168093036100fe5761049f906103fe565b51161490565b50505f9056fea26469706673582212206b3e2e612b1ab89df83fb2dc0e2fe1ce077cc7487a14047e3c9e252c6d820e4d64736f6c63430008180033","linkReferences":{}},"methodIdentifiers":{"VALID_PROOF()":"9cc40c22","eip712Domain()":"84b0196e","getContextSignersAndThresholdFromExtraData(bytes)":"b7f47bd6","verifyDecryptionEIP712KMSSignatures(bytes32[],bytes,bytes)":"78542ead"},"id":47}