{"abi":[{"type":"function","name":"allow","inputs":[{"name":"","type":"bytes32","internalType":"bytes32"},{"name":"","type":"address","internalType":"address"}],"outputs":[],"stateMutability":"pure"},{"type":"function","name":"allowForDecryption","inputs":[{"name":"handlesList","type":"bytes32[]","internalType":"bytes32[]"}],"outputs":[],"stateMutability":"nonpayable"},{"type":"function","name":"allowTransient","inputs":[{"name":"","type":"bytes32","internalType":"bytes32"},{"name":"","type":"address","internalType":"address"}],"outputs":[],"stateMutability":"pure"},{"type":"function","name":"cleanTransientStorage","inputs":[],"outputs":[],"stateMutability":"pure"},{"type":"function","name":"decryptable","inputs":[{"name":"","type":"bytes32","internalType":"bytes32"}],"outputs":[{"name":"","type":"bool","internalType":"bool"}],"stateMutability":"view"},{"type":"function","name":"delegateForUserDecryption","inputs":[{"name":"","type":"address","internalType":"address"},{"name":"","type":"address","internalType":"address"},{"name":"","type":"uint64","internalType":"uint64"}],"outputs":[],"stateMutability":"pure"},{"type":"function","name":"getUserDecryptionDelegationExpirationDate","inputs":[{"name":"","type":"address","internalType":"address"},{"name":"","type":"address","internalType":"address"},{"name":"","type":"address","internalType":"address"}],"outputs":[{"name":"","type":"uint64","internalType":"uint64"}],"stateMutability":"pure"},{"type":"function","name":"isAccountDenied","inputs":[{"name":"","type":"address","internalType":"address"}],"outputs":[{"name":"","type":"bool","internalType":"bool"}],"stateMutability":"pure"},{"type":"function","name":"isAllowed","inputs":[{"name":"","type":"bytes32","internalType":"bytes32"},{"name":"","type":"address","internalType":"address"}],"outputs":[{"name":"","type":"bool","internalType":"bool"}],"stateMutability":"pure"},{"type":"function","name":"isAllowedForDecryption","inputs":[{"name":"handle","type":"bytes32","internalType":"bytes32"}],"outputs":[{"name":"","type":"bool","internalType":"bool"}],"stateMutability":"view"},{"type":"function","name":"isHandleDelegatedForUserDecryption","inputs":[{"name":"","type":"address","internalType":"address"},{"name":"","type":"address","internalType":"address"},{"name":"","type":"address","internalType":"address"},{"name":"","type":"bytes32","internalType":"bytes32"}],"outputs":[{"name":"","type":"bool","internalType":"bool"}],"stateMutability":"pure"},{"type":"function","name":"multicall","inputs":[{"name":"data","type":"bytes[]","internalType":"bytes[]"}],"outputs":[{"name":"results","type":"bytes[]","internalType":"bytes[]"}],"stateMutability":"payable"},{"type":"function","name":"persistAllowed","inputs":[{"name":"","type":"bytes32","internalType":"bytes32"},{"name":"","type":"address","internalType":"address"}],"outputs":[{"name":"","type":"bool","internalType":"bool"}],"stateMutability":"pure"},{"type":"function","name":"revokeDelegationForUserDecryption","inputs":[{"name":"","type":"address","internalType":"address"},{"name":"","type":"address","internalType":"address"}],"outputs":[],"stateMutability":"pure"}],"bytecode":{"object":"0x60808060405234610016576105b0908161001b8239f35b5f80fdfe604060808152600480361015610013575f80fd5b5f3560e01c806304f61a95146104485780631e2f86ba146103e157806335334c23146104365780633e395cec146101ce5780633f462dbe14610407578063669e6316146103e65780637ad82219146101a257806382027b6d146103e15780639edc01ec146103bd578063ac9650d8146101d3578063b9496b62146101ce578063c0d02943146101a2578063d09c0dee1461016b5763fadd2246146100b5575f80fd5b346101675760209160206003193601126101675781359167ffffffffffffffff83116101675736602384011215610167578201356100fa6100f58261053a565b610500565b926024602085848152019260051b82010191368311610167576024869201905b83821061015857505050505f5b8251811015610156578061013d60019285610552565b515f525f8552825f208260ff1982541617905501610127565b005b8135815290820190820161011a565b5f80fd5b823461016757608036600319011261016757602090610188610480565b50610191610496565b5061019a6104ac565b505160018152f35b50903461016757602036600319011261016757602091355f525f825260ff815f20541690519015158152f35b6104e7565b50602091826003193601126101675781359067ffffffffffffffff80831161016757366023840112156101675782840135938185116101675760059160243687851b87018201116101675761022f6100f588959796999861053a565b9584875261023c8561053a565b601f19969087015f5b8181106103ae5750503681900360421901915f5b8781106102f7578b8b8b8b835193838594850190808652845180925280838701938360051b8801019501935f905b8382106102945787870388f35b9193959092949650603f19888203018652838288518051908185525f5b8281106102e0575050838392601f835f86809660019a0101520116010198019601920187969594929391610287565b8181018501518682018601528894879450016102b1565b8481839d9a9b9c9d1b8401013584811215610167578301858101359087821161016757604401813603811361016757815f929183928d51928392833781018381520390305af43d156103a5573d87811161039357908161035f8f8e601f829796011601610500565b9081525f81943d92013e5b156101675760019161037c828e610552565b52610387818d610552565b50019a9998979a610259565b8660418a634e487b7160e01b5f52525ffd5b9060609161036a565b60608a82018c01528a01610245565b8234610167576020366003190112610167576020906103da610480565b50515f8152f35b6104c2565b823461016757366003190112610167576103fe610480565b50610156610496565b823461016757606036600319011261016757602090610424610480565b5061042d610496565b506103da6104ac565b34610167575f36600319011261016757005b3461016757606036600319011261016757610461610480565b5061046a610496565b5060443567ffffffffffffffff81160361016757005b600435906001600160a01b038216820361016757565b602435906001600160a01b038216820361016757565b604435906001600160a01b038216820361016757565b34610167576040366003190112610167576104db610496565b50602060405160018152f35b3461016757604036600319011261016757610156610496565b6040519190601f01601f1916820167ffffffffffffffff81118382101761052657604052565b634e487b7160e01b5f52604160045260245ffd5b67ffffffffffffffff81116105265760051b60200190565b80518210156105665760209160051b010190565b634e487b7160e01b5f52603260045260245ffdfea2646970667358221220627ebc8671dba704f2745fa373aaf1958e2771ec628efbf201d38f7d025fd10e64736f6c63430008180033","linkReferences":{}},"methodIdentifiers":{"allow(bytes32,address)":"b9496b62","allowForDecryption(bytes32[])":"fadd2246","allowTransient(bytes32,address)":"3e395cec","cleanTransientStorage()":"35334c23","decryptable(bytes32)":"7ad82219","delegateForUserDecryption(address,address,uint64)":"04f61a95","getUserDecryptionDelegationExpirationDate(address,address,address)":"3f462dbe","isAccountDenied(address)":"9edc01ec","isAllowed(bytes32,address)":"82027b6d","isAllowedForDecryption(bytes32)":"c0d02943","isHandleDelegatedForUserDecryption(address,address,address,bytes32)":"d09c0dee","multicall(bytes[])":"ac9650d8","persistAllowed(bytes32,address)":"1e2f86ba","revokeDelegationForUserDecryption(address,address)":"669e6316"},"id":47}