{"abi":[{"type":"constructor","inputs":[{"name":"name_","type":"string","internalType":"string"},{"name":"symbol_","type":"string","internalType":"string"}],"stateMutability":"nonpayable"},{"type":"function","name":"allowance","inputs":[{"name":"owner","type":"address","internalType":"address"},{"name":"spender","type":"address","internalType":"address"}],"outputs":[{"name":"","type":"bytes32","internalType":"euint64"}],"stateMutability":"view"},{"type":"function","name":"approve","inputs":[{"name":"spender","type":"address","internalType":"address"},{"name":"encAmount","type":"bytes32","internalType":"externalEuint64"},{"name":"proof","type":"bytes","internalType":"bytes"}],"outputs":[{"name":"","type":"bool","internalType":"bool"}],"stateMutability":"nonpayable"},{"type":"function","name":"balanceOf","inputs":[{"name":"account","type":"address","internalType":"address"}],"outputs":[{"name":"","type":"bytes32","internalType":"euint64"}],"stateMutability":"view"},{"type":"function","name":"decimals","inputs":[],"outputs":[{"name":"","type":"uint8","internalType":"uint8"}],"stateMutability":"pure"},{"type":"function","name":"mintPlain","inputs":[{"name":"to","type":"address","internalType":"address"},{"name":"amount","type":"uint64","internalType":"uint64"}],"outputs":[],"stateMutability":"nonpayable"},{"type":"function","name":"name","inputs":[],"outputs":[{"name":"","type":"string","internalType":"string"}],"stateMutability":"view"},{"type":"function","name":"plainBalanceOf","inputs":[{"name":"account","type":"address","internalType":"address"}],"outputs":[{"name":"","type":"uint64","internalType":"uint64"}],"stateMutability":"view"},{"type":"function","name":"symbol","inputs":[],"outputs":[{"name":"","type":"string","internalType":"string"}],"stateMutability":"view"},{"type":"function","name":"totalSupply","inputs":[],"outputs":[{"name":"","type":"bytes32","internalType":"euint64"}],"stateMutability":"view"},{"type":"function","name":"transfer","inputs":[{"name":"to","type":"address","internalType":"address"},{"name":"encAmount","type":"bytes32","internalType":"externalEuint64"},{"name":"proof","type":"bytes","internalType":"bytes"}],"outputs":[{"name":"","type":"bool","internalType":"bool"}],"stateMutability":"nonpayable"},{"type":"function","name":"transfer","inputs":[{"name":"to","type":"address","internalType":"address"},{"name":"amount","type":"bytes32","internalType":"euint64"}],"outputs":[{"name":"","type":"bool","internalType":"bool"}],"stateMutability":"nonpayable"},{"type":"function","name":"transferFrom","inputs":[{"name":"from","type":"address","internalType":"address"},{"name":"to","type":"address","internalType":"address"},{"name":"encAmount","type":"bytes32","internalType":"externalEuint64"},{"name":"proof","type":"bytes","internalType":"bytes"}],"outputs":[{"name":"","type":"bool","internalType":"bool"}],"stateMutability":"nonpayable"},{"type":"event","name":"Approval","inputs":[{"name":"owner","type":"address","indexed":true,"internalType":"address"},{"name":"spender","type":"address","indexed":true,"internalType":"address"}],"anonymous":false},{"type":"event","name":"Transfer","inputs":[{"name":"from","type":"address","indexed":true,"internalType":"address"},{"name":"to","type":"address","indexed":true,"internalType":"address"}],"anonymous":false},{"type":"error","name":"SenderNotAllowedToUseHandle","inputs":[{"name":"handle","type":"bytes32","internalType":"bytes32"},{"name":"sender","type":"address","internalType":"address"}]},{"type":"error","name":"ZamaProtocolUnsupported","inputs":[]}],"bytecode":{"object":"0x608060409080825234620002c2576200169f803803809162000022828562000596565b833981018282820312620002c25781516001600160401b039190828111620002c2578162000052918501620005ba565b9260209182820151848111620002c2576200006e9201620005ba565b90620000796200062e565b5060019046820362000484576200008f6200062e565b5085516200009d816200057a565b73ca2e8f1f656cd25c01f05d0b243ab1ecd4a8ffb6815273d82385dada1ae3e969447f20a3164f6213100e75828201527377627828a55156b04ac0dc0eb30467f1a552bb0387820152945b85517f9e7b61f58c47dc699ac88507c4f5bb9f121c03808c5676a8078fe583e464970080546001600160a01b03199081166001600160a01b03938416178255848901515f805160206200167f83398151915280548316918516919091179055978901517f9e7b61f58c47dc699ac88507c4f5bb9f121c03808c5676a8078fe583e46497028054909916908316179097558151909490868111620002a4578454928584811c9416801562000479575b8585101462000397578190601f9485811162000426575b508590858311600114620003c2575f92620003b6575b50505f19600383901b1c191690851b1784555b805192868411620002a4576002548581811c91168015620003ab575b8282101462000397578381116200034e575b5080928411600114620002e557509282939183925f94620002d9575b50501b915f199060031b1c1916176002555b6200023c6200064e565b92835f558315620002c6575b541691823b15620002c2575f926044849286519586938492635ca4b5b160e11b845260048401523060248401525af18015620002b85762000293575b8251610f9b9081620006e48239f35b8111620002a45781525f8062000284565b634e487b7160e01b5f52604160045260245ffd5b83513d5f823e3d90fd5b5f80fd5b9250620002d26200064e565b9262000248565b015192505f8062000220565b919083601f19811660025f52845f20945f905b888383106200033357505050106200031a575b505050811b0160025562000232565b01515f1960f88460031b161c191690555f80806200030b565b858701518855909601959485019487935090810190620002f8565b60025f52815f208480870160051c8201928488106200038d575b0160051c019086905b8281106200038157505062000204565b5f815501869062000371565b9250819262000368565b634e487b7160e01b5f52602260045260245ffd5b90607f1690620001f2565b015190505f80620001c3565b90879350601f19831691845f52875f20925f5b898282106200040f5750508411620003f6575b505050811b018455620001d6565b01515f1960f88460031b161c191690555f8080620003e8565b8385015186558b97909501949384019301620003d5565b909150865f52855f208580850160051c8201928886106200046f575b918991869594930160051c01915b82811062000460575050620001ad565b5f815585945089910162000450565b9250819262000442565b93607f169362000196565b4662aa36a703620004f757620004996200062e565b508551620004a7816200057a565b73f0ffdc93b7e186bc2f8cb3daa75d86d1930a433d81527392c920834ec8941d2c77d188936e1f7a6f49c1278282015273be0e383937d564d7ff0bc3b46c51f0bf8d5c311a8782015294620000e8565b46617a690362000569576200050b6200062e565b50855162000519816200057a565b7350157cffd6bbfa2dece204a89ec419c23ef5755d815273e3a9105a3a932253a70f126eb1e3b589c643dd248282015273901f8942346f7ab3a01f6d7613119bca447bb0308782015294620000e8565b85516373cac13b60e01b8152600490fd5b606081019081106001600160401b03821117620002a457604052565b601f909101601f19168101906001600160401b03821190821017620002a457604052565b919080601f84011215620002c25782516001600160401b038111620002a45760209060405192620005f583601f19601f850116018562000596565b818452828287010111620002c2575f5b8181106200061a5750825f9394955001015290565b858101830151848201840152820162000605565b604051906200063d826200057a565b5f6040838281528260208201520152565b5f805160206200167f83398151915254604051639cd07acb60e01b81525f60048201819052600560248301529091602091839160449183916001600160a01b03165af1908115620006d8575f91620006a4575090565b90506020813d602011620006cf575b81620006c26020938362000596565b81010312620002c2575190565b3d9150620006b3565b6040513d5f823e3d90fdfe6080604090808252600480361015610015575f80fd5b5f3560e01c91826306fdde03146106215750816318160ddd14610604578163313ce567146105e957816370a08231146105b25781637b7e0a5a146105905781637d32e7bd1461055657816395d89b41146104445781639a094352146102be578163b32c100114610284578163d2a6d9de14610132578163dd62ed3e146100e8575063eb76fdfd146100a4575f80fd5b346100e45760203660031901126100e4576020906001600160a01b036100c8610726565b165f526003825267ffffffffffffffff815f2054169051908152f35b5f80fd5b82346100e457806003193601126100e457602091610104610726565b61010c61073c565b6001600160a01b039182165f908152928552838320911682528352819020549051908152f35b82346100e457806003193601126100e45761014b610726565b906024359267ffffffffffffffff84168094036100e4575f9160018060a01b0394855f80516020610f46833981519152541690825193639cd07acb60e01b8552840152600560248401528260448160209687945af191821561027a575f92610248575b5060036101ea610212966101c3855f54610da8565b805f558015610235575b6101d8903090610ecb565b861693845f52828652835f2054610da8565b9384935f52525f20558080159182610222575b610208903090610ecb565b9061021457610ecb565b005b5061021d610e78565b610ecb565b5061020861022e610e78565b90506101fd565b506101d8610241610e78565b90506101cd565b9491508285813d8311610273575b61026081836107ef565b810103126100e4579351909360036101ae565b503d610256565b50513d5f823e3d90fd5b82346100e4576020906102b76102aa6102b061029f36610780565b949192943691610811565b90610857565b9033610aaa565b5160018152f35b82346100e45760803660031901126100e4576102d8610726565b916102e161073c565b60643567ffffffffffffffff81116100e45761030d6103066103159236908601610752565b3691610811565b604435610857565b61031f3382610b35565b156100e45760018060a01b039182861695865f5260208097868252875f20335f528252875f2054966103518887610bd4565b915f5260038352610365895f205487610bd4565b968215610434575b871561041c575b905f6064925f80516020610f4683398151915254168b51998a95869463d99882d560e01b865285015260248401528160448401525af1938415610412575f946103df575b506103da6103d3866103cd866102b799610c87565b87610d0b565b3383610aaa565b6109eb565b9493508685813d831161040b575b6103f781836107ef565b810103126100e457935192936103da6103b8565b503d6103ed565b86513d5f823e3d90fd5b96506064905f61042a610e2c565b9891925050610374565b915061043e610e2c565b9161036d565b82346100e4575f3660031901126100e4578051905f906002549160018360011c906001851694851561054c575b6020958684108114610539578388528794939291879082156105175750506001146104bc575b50506104b892916104a99103856107ef565b519282849384528301906106e8565b0390f35b9085925060025f527f405787fa12a823e0f2b7631cc41b3ba8828b3321ca811111fa75cd3aa3bb5ace915f925b8284106104ff57505050820101816104a9610497565b8054848a0186015288955087949093019281016104e9565b60ff19168682015292151560051b850190920192508391506104a99050610497565b602289634e487b7160e01b5f525260245ffd5b91607f1691610471565b82346100e457806003193601126100e45761056f610726565b906024359161057e3384610b35565b156100e4576020926102b791336109bf565b82346100e4576020906102b76102aa6105ab61029f36610780565b90336109bf565b82346100e45760203660031901126100e4576020906001600160a01b036105d7610726565b165f5260038252805f20549051908152f35b82346100e4575f3660031901126100e4576020905160068152f35b82346100e4575f3660031901126100e4576020905f549051908152f35b83346100e4575f3660031901126100e4575f90600191600154928360011c90600185169485156106de575b6020958684108114610539578388528794939291879082156105175750506001146106835750506104b892916104a99103856107ef565b9085925060015f527fb10e2d527612073b26eecdfd717e6a320cf44b4afac2b0732d9fcbe2b7fa0cf6915f925b8284106106c657505050820101816104a9610497565b8054848a0186015288955087949093019281016106b0565b91607f169161064c565b91908251928382525f5b848110610712575050825f602080949584010152601f8019910116010190565b6020818301810151848301820152016106f2565b600435906001600160a01b03821682036100e457565b602435906001600160a01b03821682036100e457565b9181601f840112156100e45782359167ffffffffffffffff83116100e457602083818601950101116100e457565b60606003198201126100e4576004356001600160a01b03811681036100e45791602435916044359067ffffffffffffffff82116100e4576107c391600401610752565b9091565b67ffffffffffffffff81116107db57604052565b634e487b7160e01b5f52604160045260245ffd5b90601f8019910116810190811067ffffffffffffffff8211176107db57604052565b92919267ffffffffffffffff82116107db576040519161083b601f8201601f1916602001846107ef565b8294818452818301116100e4578281602093845f960137010152565b81519091901561097d575f80516020610f468339815191525460405163045fc19560e11b81526004810193909352336024840152608060448401526001600160a01b039160209184919084169082905f9082906108b89060848301906106e8565b6005606483015203925af191821561093e575f92610949575b507f9e7b61f58c47dc699ac88507c4f5bb9f121c03808c5676a8078fe583e46497005416803b156100e457604051630f8e573b60e21b815260048101839052336024820152905f908290604490829084905af1801561093e57610932575090565b61093b906107c7565b90565b6040513d5f823e3d90fd5b9091506020813d602011610975575b81610965602093836107ef565b810103126100e45751905f6108d1565b3d9150610958565b5080156109b65761098e3382610b35565b156109965790565b604051630276b5d960e01b81526004810191909152336024820152604490fd5b5061093b610e78565b90916109e99260018060a01b0383165f5260036020526109e360405f205483610bd4565b926109eb565b565b91610a849193610a03916109fd610e78565b91610d0b565b91610a6260018060a01b03610a4d81871696875f526003602052610a2b8760405f2054610da8565b885f5260036020528060405f2055808015918261022257610208903090610ecb565b821693845f52600360205260405f2054610c87565b835f5260036020528060405f2055808015918261022257610208903090610ecb565b7f4853ae1b4d437c4255ac16cd3ceda3465975023f27cb141584cd9d44440fed825f80a3565b9190610afc9060018060a01b039384811693845f52600460205260405f2095831695865f526020528060405f2055610208819282159384610b22575b610af1903090610ecb565b828461021457610ecb565b7ff37f546c25e850257cc0c94f92bec94a17e2f0e884ddda268a25d8144b70eb6a5f80a3565b50610af1610b2e610e78565b9050610ae6565b7f9e7b61f58c47dc699ac88507c4f5bb9f121c03808c5676a8078fe583e4649700546040516382027b6d60e01b815260048101929092526001600160a01b039283166024830152909160209183916044918391165afa90811561093e575f91610b9c575090565b90506020813d602011610bcc575b81610bb7602093836107ef565b810103126100e4575180151581036100e45790565b3d9150610baa565b908115610c77575b8015610c65575b602090606460018060a01b035f80516020610f468339815191525416935f6040519586948593631d44e90160e21b8552600485015260248401528160448401525af190811561093e575f91610c36575090565b90506020813d602011610c5d575b81610c51602093836107ef565b810103126100e4575190565b3d9150610c44565b506020610c70610e78565b9050610be3565b9050610c81610e78565b90610bdc565b908115610cfb575b8015610ce9575b602090606460018060a01b035f80516020610f468339815191525416935f60405195869485936303056db360e31b8552600485015260248401528160448401525af190811561093e575f91610c36575090565b506020610cf4610e78565b9050610c96565b9050610d05610e78565b90610c8f565b91908215610d98575b8015610d8a575b8115610d74575b6064602092935f60018060a01b035f80516020610f4683398151915254166040519687958694637702dcff60e01b86526004860152602485015260448401525af190811561093e575f91610c36575090565b602091506064610d82610e78565b925050610d22565b50610d93610e78565b610d1b565b9150610da2610e2c565b91610d14565b908115610e1c575b8015610e0a575b602090606460018060a01b035f80516020610f468339815191525416935f604051958694859363022f65e760e31b8552600485015260248401528160448401525af190811561093e575f91610c36575090565b506020610e15610e78565b9050610db7565b9050610e26610e78565b90610db0565b5f602060018060a01b035f80516020610f468339815191525416604460405180948193639cd07acb60e01b83528160048401528160248401525af190811561093e575f91610c36575090565b5f80516020610f4683398151915254604051639cd07acb60e01b81525f60048201819052600560248301529091602091839160449183916001600160a01b03165af190811561093e575f91610c36575090565b7f9e7b61f58c47dc699ac88507c4f5bb9f121c03808c5676a8078fe583e4649700546001600160a01b031691823b156100e457604051635ca4b5b160e11b815260048101929092526001600160a01b03166024820152905f908290604490829084905af1801561093e57610f3c5750565b6109e9906107c756fe9e7b61f58c47dc699ac88507c4f5bb9f121c03808c5676a8078fe583e4649701a26469706673582212208841343ff660af9f60e965fc227b785af0731507159d7203ebb8035ae4ecd4d564736f6c634300081800339e7b61f58c47dc699ac88507c4f5bb9f121c03808c5676a8078fe583e4649701","linkReferences":{}},"methodIdentifiers":{"allowance(address,address)":"dd62ed3e","approve(address,bytes32,bytes)":"b32c1001","balanceOf(address)":"70a08231","decimals()":"313ce567","mintPlain(address,uint64)":"d2a6d9de","name()":"06fdde03","plainBalanceOf(address)":"eb76fdfd","symbol()":"95d89b41","totalSupply()":"18160ddd","transfer(address,bytes32)":"7d32e7bd","transfer(address,bytes32,bytes)":"7b7e0a5a","transferFrom(address,address,bytes32,bytes)":"9a094352"},"id":47}